:020000040800F2
:100000003007002055020008C51B0008DD19000854
:10001000C11B0008A9040008B51D0008000000006D
:10002000000000000000000000000000ED1C0008BF
:10003000F504000800000000C91B0008F11C0008BE
:100040006F0200086F0200086F0200086F020008CC
:100050006F0200086F0200086F0200086F020008BC
:100060006F0200086F0200086F0200086F020008AC
:100070006F0200086F0200086F0200086F0200089C
:100080006F0200086F0200086F020008D104000828
:10009000AD040008B9040008C50400086F02000898
:1000A0006F0200086F0200086F0200086F0200086C
:1000B0006F0200086F0200086F0200086F0200085C
:1000C0006F0200086F0200086F0200086F0200084C
:1000D0006F0200086F0200086F0200086F0200083C
:1000E0006F0200086F0200086F0200086F0200082C
:1000F0006F0200086F0200086F0200086F0200081C
:100100006F0200086F0200086F0200086F0200080B
:100110006F0200086F0200086F0200086F020008FB
:100120006F0200086F0200086F0200086F020008EB
:100130006F0200086F0200086F0200086F020008DB
:10014000DD040008E90400086F0200086F020008DF
:100150006F0200086F0200086F0200086F020008BB
:100160006F0200086F0200086F0200086F020008AB
:100170006F0200086F0200086F0200080000000014
:100180006F0200086F02000800F002F800F052F859
:1001900014A696E8000CB244B344DA4501D100F04D
:1001A00049F8BAE80F000FA696E83000A5EB040561
:1001B00004EB0607AAEB0704A7F101074FEA1515A0
:1001C0004FEA3414A4F10104AC4201D300F032F838
:1001D00013F0010F18BFFB1A43F0010300F001F800
:1001E000DBE71847241F0000441F0000103A24BF1B
:1001F00078C878C1FAD8520724BF30C830C144BF8C
:1002000004680C6070470000704700000023002461
:1002100000250026103A28BF78C1FBD8520728BF16
:1002200030C148BF0B6070471FB501F058FF1FBDBC
:1002300010B510BD00F0D0F81146FFF7F5FF01F042
:100240003DFF00F0EEF803B4FFF7F2FF03BC00F04F
:10025000F5F800000948804709480047FEE7FEE737
:10026000FEE7FEE7FEE7FEE7FEE7FEE7FEE7FEE766
:1002700004480549054A064B70470000A11D0008C7
:1002800089010008300100203007002030030020E1
:100290003003002053EA020C00F069802DE9F04B96
:1002A0004FF00006002B1FBFB3FA83F503FA05F4E5
:1002B00024FA05F65E4012BF1643B2FA82F502FA3E
:1002C00005F4C5F120051EBF22FA05FC44EA0C0422
:1002D000203556EA044C4FEA144418BF641C4FF012
:1002E00000084FF00009904271EB030C39D300294C
:1002F00019BFB1FA81F701FA07F6B0FA80F700FAF0
:1003000007F6C7F120071EBF20FA07FC46EA0C06D5
:100310002037B6FBF4FCA7EB0507103F07F01F0BD7
:10032000CBF120062CFA06F60CFA0BFB44BFB346C1
:100330000026202FA4BF5E464FF0000B5BEA060CA0
:1003400008BF4FF0010B19EB0B0948EB0608ABFB9C
:10035000027C06FB02CC0BFB03CCC01B71EB0C0137
:10036000C1E70B46024641464846BDE8F08B13B54F
:10037000084318BF4FF0FF300146AFF30080BDE8DF
:100380001C4070474FF0000200B513469446964655
:10039000203922BFA0E80C50A0E80C50B1F1200198
:1003A000BFF4F7AF090728BFA0E80C5048BF0CC046
:1003B0005DF804EB890028BF40F8042B08BF7047A4
:1003C00048BF20F8022B11F0804F18BF00F8012B16
:1003D0007047704770477047754600F02BF8AE467F
:1003E00005006946534620F00700854618B020B541
:1003F000FFF73EFFBDE820404FF000064FF000073A
:100400004FF000084FF0000BAC46ACE8C009ACE878
:10041000C009ACE8C009ACE8C00921F007018D466D
:10042000704710B50446AFF300802046BDE8104089
:10043000FFF709BF0048704710000020014918204D
:10044000ABBEFEE7260002007047000080B57E20AC
:10045000B62101F0B1FC322000F04CFC7D200421DB
:1004600001F0AAFC7C20002101F0A6FC1420B6219A
:1004700001F0E2FC322000F03DFC1120002101F0EF
:10048000DBFC4120002101F097FC40208C2101F091
:1004900093FC0F20022101F0CFFC10200021BDE8C9
:1004A000804001F0C9BC0000FEE7000040F280007F
:1004B000C2F2000000F046B940F28000C2F2000033
:1004C00000F040B940F28000C2F2000000F03AB9FA
:1004D00040F28000C2F2000000F034B940F2A800FF
:1004E000C2F2000000F02EB940F2A800C2F20000F3
:1004F00000F028B97047000072B600BFFEE70000A8
:1005000090F82020013A012A08D8006800F114026E
:100510000020136819431160704700BF00F12402E6
:1005200001204FF4802113681943116070470000C7
:1005300090F82020013A012A30D8B0B546F2006088
:10054000C4F20000026842F001020260026822F474
:100550007C520260D1F814E0CC694A6A0368012C2D
:1005600043EA022202600EF01F024FF0010303FA79
:1005700002F2C3696FEA020C23EA0203C36113D0DB
:100580002CBBC36803EA0C03C360CB688C8844EAC5
:10059000034300EBCE0423640B4611E0416A41F4AF
:1005A0008021416201207047C3681343C3600B6818
:1005B0008C8844EA034300EBCE04236401F10C036E
:1005C0008C681B8843EA044300EBCE0463644368F1
:1005D0008D6943EA0204D1F810E0096A002D08BFD2
:1005E00003EA0C0444604369BEF1000F43EA0204CD
:1005F00008BF03EA0C040129446102D1C169114317
:10060000C161016821F0010101600020B0BD00005E
:1006100070470000B0B590F82040013C012C7DD817
:10062000D0F800C000290CBFDCF80C40DCF810400A
:10063000A4077DD00CF5D8754FEA011C55F80C4085
:1006400014F00404946055F80CE005EB011C19BF8C
:100650004FEADE0555604FEA5E551560DCF8005044
:10066000E64605F00205D5605EF8044F24075ABF40
:10067000DEF8004004F00F0408241461DEF80040A6
:100680000029C4F307249461DEF800504FEA1545B1
:100690005561DCF808201A70026802EB0112D2F8EA
:1006A000B8214FEA12225A70026802EB0112D2F806
:1006B000B8214FEA12429A70026802EB0112D2F896
:1006C000B8214FEA1262DA70026802EB0112D2F826
:1006D000BC211A71026802EB0112D2F8BC214FEA68
:1006E00012225A71026802EB0112D2F8BC214FEAC1
:1006F00012429A71026802EB0112D2F8BC214FEA51
:100700001262DA7100680CBF00F10C0100F11001F7
:10071000002020220B681A430A60B0BD00F12401BA
:1007200001204FF480220B681A430A60B0BD00BF5D
:1007300000F1240101204FF400120B681A430A60F3
:10074000B0BD00002DE9F04F81B004460068466955
:10075000D0F804908768D0F80CB0D0F810A0D0F88A
:100760001880F10704D1002530071DD424E000BF14
:10077000F90710D00121BA07816009D4780700F188
:10078000AF80380700F1B680204600F0A5FA02E0FD
:10079000204600F0A3FA0025F80500F18780F80351
:1007A00000F1B180300707D51BF0100004D020689D
:1007B00045F400751021C160700708D51BF00800D2
:1007C00005D020680821C160204600F019FAB00762
:1007D00006D52068C068800702D0204600F012FAD3
:1007E000700607D51AF0100004D0206845F4806523
:1007F00010210161B00608D51AF0080005D0206864
:1008000008210161204600F0FFF9F00606D52068B6
:100810000069800702D0204600F0F8F9B00308D53F
:1008200019F0100005D0206810214160204600F02A
:1008300023FAF00308D519F0080005D02068082134
:100840004160204600F054FA300440F19B805FEA9A
:10085000497040F1948006F4807008EA1020284323
:100860005FEA8871014648BF41F00201B20558BFF6
:1008700001465FEA48700D4648BF45F00405700523
:1008800058BF0D46300540F17A8018F0700000F036
:1008900076801038000905286CD8DFE800F0036581
:1008A0005D61596945F0080564E000BF20684FF4B8
:1008B0008071BA0581600BD4780515D438051DD434
:1008C000204600F00DFAF8037FF56CAF1BE000BF87
:1008D000204600F007FAF8037FF564AF13E000BF8D
:1008E0004FF4006558E700BF05F50055F8037FF5A4
:1008F00059AF08E04FF480554EE700BF05F580453D
:10090000F8037FF54FAF20684FF48031BA03816060
:100910000AD4780310D4380314D4204600F0E4F944
:1009200030073FF541AF47E7204600F0DFF93007D9
:100930003FF53AAF40E700BF05F5004530073FF50A
:1009400033AF39E705F5803530073FF52DAF33E795
:1009500045F080050EE000BF45F020050AE000BF2D
:1009600045F0400506E000BF45F0100502E000BF7D
:1009700045F480752068816921F0700181612068EB
:100980000421416055B1606A40EA05012046616278
:1009900001B0BDE8F04FFFF73BBE00BF01B0BDE8BE
:1009A000F08F0000002804BF01207047B0B5044656
:1009B00090F8200010B9204600F06EF82068016819
:1009C00041F00101016000F087FA054620684168A6
:1009D000C90705D100F080FA401B0B28F6D310E0C0
:1009E000016821F00201016000F076FA054600BFBF
:1009F0002068416889070DD500F06EFA401B0B286E
:100A0000F6D3606A052140F400306062012084F86A
:100A10002010B0BD217E0268012922F0800208BFAB
:100A200080320260617E0268012922F0400208BF24
:100A300040320260A17E0268012922F0200208BF34
:100A400020320260E17E0268012922F0100218BF04
:100A500010320260217F0268012922F0080208BFDB
:100A600008320260617F0268012922F0040208BF97
:100A700004320260D4E901C2D4E9033561691A4342
:100A80002A431143ACF101021143C161002001214D
:100A9000606284F82010B0BDB0B586B0006846F63C
:100AA0000002C4F2000200219042CDE90411CDE918
:100AB0000211019150D046F20041C4F20001884277
:100AC00040F09B8040F27C01C2F200010A6843F6CC
:100AD0004000C4F20200531C0B6052B90021009187
:100AE000016841F000710160016801F0007100913E
:100AF00000990021009150F8102C42F0080240F8B3
:100B0000102C50F8100C022200F008000090009801
:100B10000320019004900920059040F20040C4F2A7
:100B20000200CDE9022100F5006001A900F0F6F80D
:100B300013200021002200F051FA132000F03CFAAB
:100B400014200021002200F049FA142000F034FAA9
:100B50001624152541E000BF43F64000C4F2020010
:100B60000091016841F080610160016801F08061DD
:100B70000091009940F27C01C2F200010A68531C06
:100B80000B6052B900210091016841F000710160D1
:100B9000016801F00071009100990021009150F866
:100BA000102C42F0020240F8102C50F8100C00F00B
:100BB000020000900098602001900220CDE902011F
:100BC000032004900920059040F20040C4F2020086
:100BD00001A900F0A3F84124402528460021002265
:100BE00000F0FCF9284600F0E7F920460021002239
:100BF00000F0F4F9204600F0DFF906B0B0BD0000C7
:100C000070470000704700007047000070B588B062
:100C100040F2700640F2A805C2F20006C2F20005DA
:100C20000446331D01AA28460121FFF7F3FCAC421C
:100C300002D008B070BD00BF40F2A800C2F20000B0
:100C40000221FFF75DFCB088B17941F60044C4F29F
:100C500002047080317020464FF4806100F02EF95C
:100C600020464FF4006100F029F920464FF48051EE
:100C700000F024F908B070BD70470000B0B504461C
:100C800090F8200001281DD1022084F8200020685F
:100C9000016821F00101016000F01EF9054600BF66
:100CA00020684068C00713D000F016F9401B0B28DD
:100CB000F6D3606A40F400306062052084F82000BA
:100CC0000120B0BD606A40F4002060620120B0BD28
:100CD00000206062B0BD0000704700007047000057
:100CE0007047000070470000704700007047000028
:100CF00070470000B0B5044600F0EEF8054640F23B
:100D00000000C2F200000078611C18BF044400BF5C
:100D100000F0E2F8401BA042FAD3B0BD2DE9F04F3D
:100D200083B000F1200200F13E4741F600450092F9
:100D300007F1FF77C4F2020508224FEAB726A8425E
:100D400008BF072200254FF000084FF00009072ECA
:100D500038BF4FEAB72201920AE000BF09F101094A
:100D600008F10208B9F1100F05F1040500F0A280A6
:100D70000F68012202FA09FE17EA0E0AEED0D1F836
:100D800004C003220CF003077E1E02FA08F4012EB1
:100D90006FEA040B12D88468CE6804EA0B0406FAE2
:100DA00008F634438460446824EA0E06CCF3001449
:100DB00004FA09F42643466004E000BF032F01D182
:100DC00003271EE0C6688C6806EA0B0604FA08F4DE
:100DD0002643022FC66014D16FF00302009E02EA80
:100DE000590756F807C005F01C040F220B69A240F2
:100DF0002CEA0202A3401A43F251D1F804C00CF0CD
:100E00000307026807FA08F302EA0B021A431CF40C
:100E1000403F0260A2D0002243F644030292C4F293
:100E200002031A6843F6004442F480421A601A68CA
:100E3000C4F2010402F480420292029A29F00302F1
:100E40004FF6084C2244CFF6FF7C52F80C3005F0E8
:100E50000C070F26BE40B343019E06FA07F73B433B
:100E600042F80C30A2684B6842EA0A0743F60C4C81
:100E7000DE0258BF22EA0A07A760C4F2010CDCF8C0
:100E800000209E0242EA0A0758BF22EA0A07CCF86D
:100E9000007062689E0342EA0A0758BF22EA0A0706
:100EA00067602268DB0342EA0A0758BF22EA0A07A2
:100EB000276053E703B0BDE8F08F0000426902EA03
:100EC0000103914341EA034181617047002A08BF51
:100ED000090481617047000040F22810C2F200004E
:100EE0000068704740F2000040F22811C2F2000092
:100EF000C2F2000100780A681044086070470000E0
:100F000080B543F60040C4F20200016841F400716C
:100F10000160016841F480610160016841F4807101
:100F20000160032000F086F80F2000F005F800F0C3
:100F300027F8002080BD000070B540F20006C2F224
:100F4000000640F208013278C2F200014FF47A73D1
:100F50000968B3FBF2F20446B1FBF2F1084600F077
:100F600027FD0F2C4FF0010508D838B94FF0FF309E
:100F700021460022002500F031F87460284670BD3B
:100F800082B0002043F640010190C4F202014A6899
:100F900042F480424A604A6802F480420192019A17
:100FA0000090086840F080500860086800F08050A9
:100FB0000090009802B07047002848BF704700F0CA
:100FC0001F01012202FA01F11C2202EAD0004EF2B6
:100FD0000012CEF2000281507047000010B54EF6AC
:100FE0000C5CCEF2000CDCF80030C3F3022E8EF065
:100FF0000704042C28BF0424BEF103034FF0FF3E76
:101000000EFA04F438BF0023A14399400EFA03F30B
:101010009A43114300F00F0200F160430901043AC2
:1010200003F564436244002848BF02F10C031970C1
:1010300010BD00004EF60C51CEF200010A684FF6CA
:10104000FF031A4060F30A2242F0806040F0FD7016
:1010500008607047002804BF012070472DE9F04167
:1010600043F60808C4F202080446D8F8F8030D460F
:1010700000F00700884207D288F8F853D8F8F80340
:1010800000F00700A84277D12068810717D54107F3
:1010900005D5D8F8001041F4E051C8F80010010758
:1010A00005D5D8F8001041F46041C8F80010D8F810
:1010B0000010A26821F0F0011143C8F80010C00729
:1010C00040D1D8F8F80300F00700A84207D988F803
:1010D000F853D8F8F80300F00700A8424CD1206874
:1010E000410707D5D8F80010E26821F4E051114318
:1010F000C8F80010000708D5D8F80000216920F4CE
:10110000604040EAC100C8F8000000F055F8D8F887
:10111000001042F2F802C1F30311C0F60002515C64
:1011200040F2080220FA01F140F20400C2F200008D
:101130000068C2F200021160FFF7FEFE0020BDE869
:10114000F08100BF6068811E022907D258F8081C90
:1011500089015CBF0120BDE8F08111E0012807D1C1
:1011600058F8081C89035CBF0120BDE8F08107E046
:1011700058F8081C890703D40120BDE8F08100BF9E
:10118000D8F8001021F003010843C8F80000FFF769
:10119000A3FE064641F28837D8F80000616800F0E7
:1011A0000C00B0EB810F8CD0FFF796FE801BB8428D
:1011B000F2D90320BDE8F08110B543F60404C4F26F
:1011C0000204606800F00C0008280BD0042819BF46
:1011D00042F20040C0F2F40041F60030C0F2B70025
:1011E00010BD00BF206821682368490241F6003124
:1011F000C0F2B70100F03F02C3F388105CBF42F2B7
:101200000041C0F2F401A1FB00010023FFF742F806
:1012100021680222C1F3014102EB4101B0FBF1F070
:1012200010BD0000002804BF012070472DE9F041E7
:1012300082B00446007843F60006C007C4F20206F6
:101240000CD0B06800F00C00042840F081803068B9
:10125000800303D56068002800F06881207880074B
:101260001BD5B06810F00C0F09D0B06800F00C006E
:10127000082840F087807068400200F18380306861
:10128000800703D5E068012840F05081306821696B
:1012900020F0F80040EAC10030602078000713D445
:1012A000207840072AD4A569002D00F03A81B06863
:1012B00000F00C00082840F0A580012D40F00E81C0
:1012C000012002B0BDE8F0816069002800F0828052
:1012D0000020C4F247200121C0F8801EFFF7FCFD6A
:1012E000054600BF706F8007DAD4FFF7F5FD401B9D
:1012F0000228F7D9032002B0BDE8F081306C5FEA24
:10130000C0080AD400200190306C40F08050306456
:10131000306C00F080500190019847F20007C4F251
:1013200000073868C00547D4386840F480703860DA
:10133000FFF7D2FD054600BF3868C0053CD4FFF773
:10134000CBFD401B0228F7D9032002B0BDE8F08195
:10135000B06800F00C00082803D1706840023FF527
:1013600076AF61683068B1F5803F07D0B1F5A02F46
:1013700040F09A8040F480203060306840F4803043
:1013800030609AE0E068002840F20000C4F2472094
:101390005CD001210160FFF79FFD054630688007A2
:1013A0003FF574AFFFF798FD401B0228F6D90320E4
:1013B00002B0BDE8F08100BFA168306F012905D0FF
:1013C000052955D140F004003067306F40F001002E
:1013D000306756E00020C4F247200021C0F8801E8C
:1013E000FFF77AFD054600BF706F80077FF558AFA5
:1013F000FFF772FD401B0228F6D9032002B0BDE8BA
:10140000F08100BF0027C4F2472700203866FFF7AD
:1014100063FD022D05460DD13068800140F18A80C0
:10142000FFF75AFD401B02284FF00300F4D902B029
:10143000BDE8F0813068800173D5FFF74DFD401B9A
:1014400002284FF00300F5D9F1E700BF0021016049
:10145000FFF742FD054600BF306880077FF51DAFEE
:10146000FFF73AFD401B02284FF00300F4D9DEE7F6
:1014700020F001003067306F002920F00400306751
:101480007AD0FFF729FD054641F28837306F800793
:1014900000F18480FFF720FD401BB842F6D90320FD
:1014A00002B0BDE8F08100BF20F4803030603068C9
:1014B000002920F4802030607AD0FFF70DFD05462A
:1014C000306880033FF5CAAEFFF706FD401B642875
:1014D000F6D9032002B0BDE8F08100BF7068E16971
:1014E00000F480028A4221D1216A00F03F028A4240
:1014F0001CD147F6C071626A0140B1EB821F15D161
:10150000A16A4FF6FF73C903994300F44032A1F575
:1015100080318A420AD1E16A00F07060B0EB016F5D
:1015200004D1002002B0BDE8F08100BF012002B06C
:10153000BDE8F08104F11C052FCD084340EA82107C
:10154000D9034FF6FF729143A1F5803140EA05605F
:101550000843706001203866FFF7BEFC044600BFF8
:1015600030688001DDD4FFF7B7FC001B02284FF084
:101570000300F5D95BE700BFFFF7AEFC054641F27B
:10158000883700BF306F800708D5FFF7A5FC401BE8
:10159000B8424FF00300F5D949E700BFB8F1000F9A
:1015A0003FF581AE306C20F0805030647BE600BFA8
:1015B000FFF792FC054600BF306880037FF54EAE12
:1015C000FFF78AFC401B64284FF00300F4D92EE794
:1015D00090F851007047000070B528B1416A29B1F8
:1015E00000210161142106E0012070BD4168B1F5C0
:1015F000827F02D01C21002242500026866290F891
:10160000511029B980F85060054600F03DF8284691
:10161000022180F8511090E82E0002F482720C68CA
:1016200003F4044324F040040C601A4405F40063FE
:1016300005691A4405F0020345691A4405F00103DF
:101640008569C4691A4405F400731A4404F0380328
:10165000046A1A4404F08003846A1A4304F40053B1
:101660001A430A60436A042202EA154203F0100397
:101670001A444A60CA6922F40062CA6101214665BF
:1016800080F85110304670BD2DE9F04387B043F229
:1016900000050068C4F201050026A8420696CDE9BF
:1016A00004660396029603D007B0BDE8F08300BF3E
:1016B00043F630000196C4F20200416902AC41F4E5
:1016C0008051416141694FF0020801F4805101915C
:1016D0000199019601684FF0030941F00201016090
:1016E0000168052701F00201019101990196016845
:1016F00041F0010101600068214600F00100019005
:1017000001981820029005F55440CDE90386CDF8E4
:1017100014900697FFF702FB8020CDE9020805F53B
:1017200050402146CDE904690697FFF7F7FA07B064
:10173000BDE8F0832DE9F04184B01D4616460F4602
:101740000446FFF7C9FB94F8511001290ED18046D9
:10175000002F4FF0010018BF002E03D104B0BDE8E8
:10176000F08100BF94F85000012803D1022004B09A
:10177000BDE8F081012084F850000320002184F8A6
:10178000510061652763A686E686A163A187E1878C
:10179000A0682164B0F5004F2068616407D101683A
:1017A00021F040010160016841F48041016001685D
:1017B000490603D4016841F0400101606168731E6D
:1017C000E268B1FA81F1B3FA83F349095B09B2F532
:1017D000006F41EA030139D131B137F8021BC16012
:1017E0002763E08E0138E086E08E002870D0681C08
:1017F0000BD11AE0216B31F8022BC2602163E08E1D
:101800000138E086E08E002862D020688168890770
:10181000F0D4FFF761FBA0EB0800A842F2D338E058
:10182000FFF75AFBE08E002852D0206881688907B4
:10183000F6D5216B31F8022BC2602163E08E0138AE
:10184000E086E08E0028F0D142E000BF39B139785F
:101850000173206B01302063E08E0138E086E08E5A
:10186000B0B3681C0BD123E0216B09780173206BA6
:1018700001302063E08E0138E086E08E40B32068BE
:1018800081688907F0D4FFF727FBA0EB0800A84286
:10189000F3D3012084F85100002084F85000032085
:1018A00004B0BDE8F08100BFFFF716FBE08E78B111
:1018B000206881688907F7D5216B09780173206B4F
:1018C00001302063E08E0138E086E08E0028EFD101
:1018D0002046022101222B46CDF8008000F076F947
:1018E000E0B1606D40F02000606520206065A06878
:1018F00038B9002002902068C16802918068029087
:101900000298012084F85100002084F85000606D96
:10191000002818BF012004B0BDE8F08140F20800A3
:10192000C2F20000006849F68171C1F25E61A0FB5D
:101930000101480D4FF47A71484303906068B0F597
:10194000827F0BD12046802100222B46CDF80080DB
:1019500000F03CF90028C4D1C9E700BF0398002873
:10196000C5D0039801380390206880680006BED572
:1019700003980028BBD00398013803902068806842
:101980000006B4D503980028B1D00398013803901D
:10199000206880680006AAD503980028A7D003987D
:1019A00001380390206880680006D7D49FE70000C4
:1019B000411E0020B0EB116F1CBF012070474EF29A
:1019C0001002CEF2000251604EF62351CEF2000119
:1019D000F0230B700721906011607047FEE7000054
:1019E00080B540F2800046F20041C2F20000C4F22D
:1019F000000100234FF4802C062280E80E00C0E98D
:101A0000033CC0E905338383FEF7CCFF002808BF01
:101A100080BDBDE88040FEF76FBD000080B540F29C
:101A2000A80046F60001C2F20000C4F2000106223E
:101A3000002380E80E0000F10C014FF4003C4FF44D
:101A4000001E81E8085083618383FEF7ABFF002806
:101A500008BF80BDBDE88040FEF74EBD2DE9F04FC8
:101A600087B0002443F630000694CDE90444CDE964
:101A700002440194C4F20200016840F2000841F0FF
:101A8000020101600168C4F2020801F00201019143
:101A900001990194016808F5E05541F001010160E8
:101AA0000168012201F0010101910199019401688D
:101AB0004FF0010941F008010160016801F00801DF
:101AC000019101990194016841F080010160016870
:101AD00001F08001019101990194016841F0200118
:101AE000016000684FF4E05100F02000019001987F
:101AF0002846FFF7EBF94046102101224FF0100B6A
:101B0000FFF7E4F908F58066304601210122FFF76E
:101B1000DDF940200290032002AF4FF0020A069048
:101B200008F5A0503946CDE903A40594FFF7F6F86F
:101B30004FF4E050CDE9020928463946CDE9044A80
:101B4000FFF7ECF840463946CDE902B9CDE9044A41
:101B5000FFF7E4F830463946CDE90299CDE9044A69
:101B6000FFF7DCF807B0BDE8F08F0000B0B540F239
:101B7000D00043F20001C2F20000C4F201014FF4B0
:101B80008272002380E80E0000F10C014FF0020C7D
:101B90004FF0010E4FF40074182581E808500A2117
:101BA000C0E90645C0E90833C0E90A31FFF714FD72
:101BB000002808BFB0BDBDE8B040FEF79DBC0000E6
:101BC000FEE70000FEE70000704700002DE9F0434B
:101BD00081B0089C984615460E468146FFF77CF971
:101BE000201A00EB0804FFF777F940F20801C2F26F
:101BF00000010968C1F3CB3161430091D9F80010AD
:101C00008A683240921BB2FA82F25209AA423DD04F
:101C1000074618F1010031D0FFF75EF9C01BA04262
:101C200038D2009800990028A1F101010091D9F85B
:101C30000010896808BF044601EA0600801BB0FA5C
:101C400080F04009A842E7D120E000BF886830401A
:101C5000801BB0FA80F04009A84217D08868304055
:101C6000801BB0FA80F04009A8420FD0886830404D
:101C7000801BB0FA80F04009A84207D08868304045
:101C8000801BB0FA80F04009A842DFD1002001B0EB
:101C9000BDE8F083D9E900014268B1F5827F22F006
:101CA000E00242600BD1D9F80810B1F5004F02D024
:101CB000B1F5806F03D1016821F040010160D9F8CE
:101CC0002810B1F5005F07D1016821F400510160CF
:101CD000016841F400510160012089F851000020A1
:101CE00089F85000032001B0BDE8F0837047000080
:101CF000FFF7F8B870B592B006AC20463021FEF779
:101D000041FB002543F640000595CDE90355CDE99B
:101D100001550095C4F202000168022641F080518D
:101D20000160006800F080500090009847F20000C9
:101D30000095C4F20000016841F480410160006830
:101D400000F4804000900098012006904FF480300D
:101D500007904FF480000D9006200E90A820CDE94A
:101D60000F060420119020460C96FFF75BFA18B17D
:101D700072B600BFFEE700BF0F20CDE901064FF4A9
:101D8000A05004904FF48050059001A805210395C0
:101D9000FFF760F910B172B6FEE700BF12B070BD78
:101DA0004EF68850CEF20000016841F470010160E7
:101DB00070470000FEE7000070B582B00024C4F256
:101DC00002040D460646204610210022FFF77EF849
:101DD00006F07F0040F2D006C2F200068DF8070040
:101DE0000DF10701304601224FF47A73FFF7A2FC90
:101DF0003046FFF7EDFB0328FAD08DF8075040F28C
:101E0000D005C2F200050DF10701284601224FF46A
:101E10007A73FFF78FFC00BF2846FFF7D9FB032832
:101E2000FAD00120FEF766FF204610210122FFF7BD
:101E30004DF802B070BD000070B582B040F20044B1
:101E4000C4F202040D460646204601210022FFF797
:101E50003DF806F07F0040F2D006C2F200068DF891
:101E600007000DF10701304601224FF47A73FFF7A6
:101E700061FC00BF3046FFF7ABFB0328FAD08DF8BA
:101E8000075040F2D005C2F200050DF107012846C7
:101E900001224FF47A73FFF74DFC00BF2846FFF78D
:101EA00097FB0328FAD00120FEF724FF20460121EA
:101EB0000122FFF70BF802B070BD00002DE9F041E0
:101EC00094B040F28004C2F200042046FEF7D6FE31
:101ED0000DF12808012600270E25204641461296BE
:101EE000CDE91076CDE90A77CDE90C77CDE90E671B
:101EF0001395FEF71DFB20464146CDE91076CDE94E
:101F00000A77CDE90C77CDE90E66CDE91265FEF7CB
:101F10000FFB0220CDE90E60204641461296CDE926
:101F20001076CDE90A77CDE90C771395FEF700FB23
:101F30000320CDE90E60204641461296CDE9107689
:101F4000CDE90A77CDE90C771395FEF7F1FA042075
:101F5000CDE90E60204641461296CDE91076CDE9D6
:101F60000A77CDE90C771395FEF7E2FA0520CDE963
:101F70000E60204641461296CDE91076CDE90A77EB
:101F8000CDE90C771395FEF7D3FA0620CDE90E6064
:101F9000204641461296CDE91076CDE90A77CDE983
:101FA0000C771395FEF7C4FA0720CDE90E602046A2
:101FB00041461296CDE91076CDE90A77CDE90C7746
:101FC0001395FEF7B5FA0820CDE90E60204641468C
:101FD0001296CDE91076CDE90A77CDE90C77139505
:101FE000FEF7A6FA0920CDE90E602046414612967A
:101FF000CDE91076CDE90A77CDE90C771395FEF798
:1020000097FA0A20CDE90E60204641461296CDE9A6
:102010001076CDE90A77CDE90C771395FEF788FAAB
:102020000B20CDE90E60204641461296CDE9107690
:10203000CDE90A77CDE90C771395FEF779FA0C20F4
:10204000CDE90E60204641461296CDE91076CDE9E5
:102050000A77CDE90C771395FEF76AFA0D20CDE9E2
:102060000E60204641461296CDE91076CDE90A77FA
:10207000CDE90C771395FEF75BFA20461021FEF7A9
:102080003FFA40F2A804C2F200042046FEF7F6FD33
:1020900069462046CDE90676CDE90077CDE902779D
:1020A000CDE90465CDE90865FEF742FA2046102126
:1020B000FEF726FA14B0BDE8F0810000FEF720FF1D
:1020C000FFF718FEFFF7CAFCFFF750FDFFF788FC8B
:1020D000FFF7A4FCFEF7BAF9FFF7F0FEFEE7F1EE1A
:1020E000100A4FF6FF71C0F2C03120EA010040F043
:1020F0004070E1EE100A7047000000000000000090
:102100000102030406070809282100080000002036
:1021100010000000EC010008382100081000002029
:10212000200700000C020008010000001000000061
:082130000024F400000000008F
:040000050800018965
:00000001FF
