:020000040800F2
:10000000E00800207902000823210008AF1F000843
:10001000212100086F040008A92800080000000042
:100020000000000000000000000000006123000844
:100030006F050008000000005F230008632300082C
:10004000930200089302000893020008930200083C
:10005000930200089302000893020008930200082C
:10006000930200089302000893020008930200081C
:10007000930200089302000893020008930200080C
:1000800093020008930200089302000893020008FC
:10009000710400089302000893020008930200080C
:1000A00093020008930200089302000893020008DC
:1000B0009302000893020008252400089302000818
:1000C00093020008930200089302000893020008BC
:1000D00093020008A1280008930200089302000878
:1000E000930200089302000893020008930200089C
:1000F000930200089302000893020008930200088C
:10010000930200089302000893020008930200087B
:10011000930200089302000893020008930200086B
:1001200093020008930200081105000893020008DA
:10013000930200089302000893020008930200084B
:10014000930200087D04000893020008930200084F
:10015000930200089302000893020008930200082B
:10016000930200089302000893020008930200081B
:1001700093020008930200089302000800000000A8
:1001800093020008930200089302000893020008FB
:1001900093020008930200089302000893020008EB
:1001A00000000000000000009302000800F002F8C8
:1001B00000F052F814A696E8000CB244B344DA45B5
:1001C00001D100F049F8BAE80F000FA696E8300018
:1001D000A5EB040504EB0607AAEB0704A7F101074A
:1001E0004FEA15154FEA3414A4F10104AC4201D3CF
:1001F00000F032F813F0010F18BFFB1A43F00103AF
:1002000000F001F8DBE71847C0280000E0280000F4
:10021000103A24BF78C878C1FAD8520724BF30C832
:1002200030C144BF04680C60704700007047000094
:100230000023002400250026103A28BF78C1FBD8EF
:10024000520728BF30C148BF0B6070471FB502F08E
:1002500022FC1FBD10B510BD00F0D4F81146FFF709
:10026000F5FF02F08BFB00F0F2F803B4FFF7F2FFAA
:1002700003BC00F0F5F80000094880470948004732
:10028000FEE7FEE7FEE7FEE7FEE7FEE7FEE7FEE746
:10029000FEE7FEE704480549054A064B70470000A3
:1002A00015240008AD010008E0020020E00800204D
:1002B000E0040020E004002053EA020C00F0698012
:1002C0002DE9F04B4FF00006002B1FBFB3FA83F56A
:1002D00003FA05F424FA05F65E4012BF1643B2FA9B
:1002E00082F502FA05F4C5F120051EBF22FA05FCCD
:1002F00044EA0C04203556EA044C4FEA144418BF73
:10030000641C4FF000084FF00009904271EB030CA1
:1003100039D3002919BFB1FA81F701FA07F6B0FA0B
:1003200080F700FA07F6C7F120071EBF20FA07FC86
:1003300046EA0C062037B6FBF4FCA7EB0507103F96
:1003400007F01F0BCBF120062CFA06F60CFA0BFB7C
:1003500044BFB3460026202FA4BF5E464FF0000BDB
:100360005BEA060C08BF4FF0010B19EB0B0948EBD9
:100370000608ABFB027C06FB02CC0BFB03CCC01BCC
:1003800071EB0C01C1E70B46024641464846BDE809
:10039000F08B13B5084318BF4FF0FF300146AFF3A1
:1003A0000080BDE81C4070474FF0000200B51346C6
:1003B00094469646203922BFA0E80C50A0E80C5085
:1003C000B1F12001BFF4F7AF090728BFA0E80C5036
:1003D00048BF0CC05DF804EB890028BF40F8042B2F
:1003E00008BF704748BF20F8022B11F0804F18BF9C
:1003F00000F8012B704770477047704700487047FE
:10040000A00000207546FFF7F9FFAE4605006946DB
:10041000534620F00700854618B020B5FFF73AFF95
:10042000BDE820404FF000064FF000074FF00008F5
:100430004FF0000BAC46ACE8C009ACE8C009ACE832
:10044000C009ACE8C00921F007018D46704710B51E
:100450000446AFF300802046BDE81040FFF705BF1B
:1004600001491820ABBEFEE7260002007047FEE7F8
:10047000014800F0A1B900BF80010020114800F040
:100480009BB900BF7CB50E4C08250026E17060705A
:10049000090A000AE37162711B0A120AC4E90466C0
:1004A000A561A17020704FF4007021462271A371E4
:1004B000224641F8080F034801AB00F06EF87CBDFE
:1004C00000010020A80100202DE9FC410F4D044649
:1004D0000E1D0027E846082F0BD007EB8700E25FD0
:1004E000315E284602F092FA28F8070024350237D8
:1004F000F1E7BDF90000BDF90210BDF90420BDF916
:10050000063002B0BDE8F041FFF7BCBF0C00002090
:10051000014800F033BC00BFD0010020026840F267
:10052000FF3122EA010102F0F802103A5F2A88BF87
:10053000043181651823B2FBF3F202A39A5CC26511
:10054000084670470006101600061016B0B504687D
:10055000806825684028084625F48025256063606A
:1005600008BF1046A06008BF0A46E260B0BD7047F1
:1005700072B6FEE790F82020013A012A04D80068FC
:1005800000F11402002004E000F1240201204FF4E5
:100590008021136819431160704770B590F820608E
:1005A0000468013EA568012E0FD815F0E05F12D057
:1005B000C5F30160012585401D608B688BB14D68D6
:1005C000CE6846EAC5052B430FE000F12403012065
:1005D0004FF4802120E000F1240301204FF40011AA
:1005E0001AE00B68CD6845EA4353050104F5C07471
:1005F000635104EB00130C69184640F8044F097D61
:10060000012903D1016841F4807101605068012122
:10061000D8601068986000201A681143196070BD96
:1006200090F82020013A012A28D8F0B52D48026818
:1006300042F001020260026822F47C5202604C69BE
:10064000CD694A6A036843EA02220123026004F08A
:100650001F0203FA02F2C3699343C361D343012D1E
:100660000ED005BBC5681D40C56000EBC405CE6853
:100670008F8847EA06462E640D460DE001F025BE40
:10068000C5681543C56000EBC4050E688F8847EA4E
:1006900006462E6401F10C058E682D8800EBC4041B
:1006A00045EA0645656444688F690E69096A44EA4B
:1006B0000205002F08BF04EA03054560002E4469C7
:1006C00044EA020508BF04EA03050129456102D195
:1006D000C1691143C161016821F00101016000207D
:1006E000F0BD00BF00660040704770B590F8204034
:1006F000013C012C03D8046839B1256906E000F1FA
:10070000240101204FF4802252E0E568AD0745D076
:100710000D0104F5D876745914F00404946006EBC6
:100720000114755919BFED0855606D0D15602568E8
:1007300005F00205D560254655F8046F36075ABF07
:100740002E6806F00F06082616612E68C6F30726E7
:1007500096612D682D0C5561A2681A7001F011FD8B
:10076000120A5A7001F00DFD120C9A7001F009FD89
:10077000120EDA7001F0E4FC1A7101F0E1FC120AC9
:100780005A7101F0DDFC120C9A7101F0D9FC120EC5
:10079000DA71006841B100F1100107E000F12401B5
:1007A00001204FF4001203E000F10C010020202290
:1007B0000B681A430A6070BD2DE9F84F04460068C3
:1007C0004669D0F804908768D0F80CB0D0F810A033
:1007D000D0F81880F10701D1002545E0F9070FD0C6
:1007E00001218160B80708D4780720D4380700F1C8
:1007F000B880204600F06BFA02E0204600F068FA6C
:100800000025F80518D520684FF480718160B8057F
:1008100009D478050ED438054EBF05F5804520462D
:1008200000F057FA08E0204600F054FA04E04FF4D4
:100830000065E6E705F50055F80315D520684FF487
:1008400080318160B80309D478030BD438034EBFDC
:1008500005F58035204600F03EFA05E0204600F020
:100860003BFA01E005F50045300748BF5FEACB6081
:100870004FD4700748BF5FEA0B7050D4B00706D55D
:100880002068C068800702D0204600F077F9700623
:1008900048BF5FEACA6049D4B00648BF5FEA0A7041
:1008A0004AD4F00606D520680069800702D02046A9
:1008B00000F0BAF9B00348BF5FEAC96043D4F0035F
:1008C00048BF5FEA097045D4300463D55FEA4970D8
:1008D0005DD508EA1620F20508F0010100F00200DB
:1008E00048BF0844720508F0040148BF08440543A6
:1008F00030054CD518F0700049D010380009052893
:1009000040D8DFE800F0033A3437313D45F00805C0
:1009100038E02068102145F40075C160A9E720681F
:100920000821C160204600F027F9A7E720681021C0
:1009300045F480650161AFE7206808210161204628
:1009400000F070F9ADE7206810214160204600F00A
:1009500097F9B4E7206808214160204600F0BDF90E
:10096000B2E74FF480554CE745F080050AE045F0CA
:10097000200507E045F0400504E045F0100501E0E2
:1009800045F480752068816921F0700181612068DB
:10099000042141603DB1606A284360622046BDE8A1
:1009A000F84FFFF7A1BEBDE8F88FA0B170B50446BF
:1009B00090F8200010B9204600F064F801F03FFCE8
:1009C000054620684168C90707D100F00FFC401BAD
:1009D0000B28F6D311E001207047016821F00201D5
:1009E000016000F003FC05462068416889070BD5CB
:1009F00000F0FCFB401B0B28F6D3606A052140F495
:100A00000030606201203AE0217E026822F080021C
:100A1000012908BF80320260617E026822F0400234
:100A2000012908BF40320260A17E026822F0200244
:100A3000012908BF20320260E17E026822F0100224
:100A4000012918BF10320260217F026822F00802DB
:100A5000012908BF08320260617F026822F00402A7
:100A6000012908BF04320260261D6ECE1A432A43B4
:100A7000013932431143C16100200121606284F8D1
:100A8000201070BDB0B586B0044601A81421FFF750
:100A90008BFC20683349884224D0334988425ED198
:100AA000334801684A1C0260304851B90021009166
:100AB000016941F000710161016901F0007100916B
:100AC0000099002114240091016841F0080101609F
:100AD0000321006800F0080000900098254800F508
:100AE000006028E000212148214B0091026942F07A
:100AF0008062026102691C68651C02F080621D60F0
:100B00000092009A4CB90091026942F000720261B1
:100B1000026902F000720092009A0091412401687B
:100B200041F0020101604FF44051006800F0020002
:100B3000009000980F480922059203220492002297
:100B400003920222CDE9011201A900F083FA2046A6
:100B50000021002200F0BAFB204600F0A7FB06B0FF
:100B6000B0BD00BF00680040006400403038024063
:100B70007C010020000402407047000010B588B0DE
:100B8000244C234801AA00212346FFF7AEFD01981B
:100B900040F22311884227D040F20B21884214D022
:100BA000B0F5007F24D120881C4900BA000C0880D1
:100BB000608800BA000C4880A08800BA000C8880C9
:100BC000E08800BA000CC88020E01348018021882A
:100BD00009BA090C4180618809BA090C8180A18891
:100BE00009BA090C018111E020680C4988600DE008
:100BF0000B490880208800BA000C4880608800BA41
:100C0000000C8880A08800BA000C088108B010BDD4
:100C100080010020D4020020C00200203401002006
:100C2000CA0200207047000080B58AB0114803AAAC
:100C300001AB0121FFF759FD0F48039900EB01407B
:100C4000021402EBA0300D4A22F81010BDF8041077
:100C500002EB400009BA090C4180BDF8061009BA40
:100C6000090C8180BDF8081009BA090C01810AB08D
:100C700080BD00BFA80100200000FFFD5201002040
:100C80007047B0B5044690F82000012816D1022024
:100C900084F820002068016821F00101016000F063
:100CA000A5FA054620684068C0070DD000F09EFAFE
:100CB000401B0B28F6D301F0F1FA03E0606A40F420
:100CC000002060620120B0BD00206062B0BD7047AE
:100CD00070477047704770477047704770B5866DB2
:100CE000044600F083FA054694F83500022821D125
:100CF0002068216C026822F016020260426922F02C
:100D00008002426109B9A16C19B1016821F00801A2
:100D1000016001F03CFA20680068C0070ED000F0C6
:100D200065FA401B0628F6D320206065032084F86E
:100D300035000CE080206065012008E0E06D3F2177
:100D400001FA00F0B060012084F835000020002195
:100D500084F8341070BD90F83510022909D10521AE
:100D600080F835100068724601F011FA96460020AE
:100D7000704780214165012070470000F8B50446A6
:100D80000020544A08210090D4E91660156837689D
:100D9000814039420CD0226813685B0708D513687C
:100DA00023F004031360B160616D41F001016165DE
:100DB00001218140394208D022685269120604D5C7
:100DC000B160616D41F002016165042181403942E9
:100DD00008D022681268920704D5B160616D41F0B5
:100DE0000401616510218140394217D020680268F2
:100DF000120713D5B16002680168520306D4C90511
:100E000006D4016821F00801016001E0080301D463
:100E1000216C00E0A16C09B120468847E16D2020DB
:100E200000FA01F23A4233D020680368DB062FD57E
:100E3000B26094F835300268052B15D122F0160205
:100E40000260426922F080024261226C0AB9A26CFF
:100E50001AB1026822F0080202603F208840B060A8
:100E600001F07AF9216D2FE00168520308D4C90519
:100E70000AD4016821F01001016001F06DF903E06E
:100E8000080301D4616C00E0E16B09B1204688479A
:100E9000606DF0B1606DC00715D005214FF416509C
:100EA00084F83510B5FBF0F021680A6822F00102E1
:100EB0000A60009A01328242009202D80A68D20780
:100EC000F7D101F049F9E16C19B12046BDE8F840CD
:100ED0000847F8BD080000202DE9F041044600F065
:100EE00085F9ACB10546022084F8350001F0B3F96C
:100EF000206801F04CF921680868C0070BD000F0A9
:100F000075F9401B0528F6D90325202603205BE050
:100F10000120BDE8F081086804F1040C2D4A9CE82A
:100F2000E81100EA020ED4E9072043EA0E032B433E
:100F300033433B4343EA08031A43636A104340EADE
:100F40000C02042B03D1D4E90B05284302430A60A9
:100F5000042B486920F0070040EA030228D1D4E9B5
:100F60000A733A4323B3BCF5005F08D0BCF1000F0D
:100F700014D1022F15D0012F0AD0002F10E0032F1B
:100F800016D8012540260120DFE807F01E0B1E02BF
:100F9000A3F1C070B0FA80F0400904E0032F03D33E
:100FA00006D1C3F3006018B10125402601200BE0F3
:100FB00020464A61FFF7B2FAE16D3F220026012583
:100FC00002FA01F181600020666584F83550BDE8C1
:100FD000F08100BF3F8010F0B0B501F067F927D075
:100FE0000120A56D84F8340094F8350001281DD146
:100FF000022084F83500002060652046FFF7A6FA3D
:10100000E26D3F232068216C03FA02F2AA600268B5
:1010100042F01602026019B1016841F00801016056
:10102000016841F0010101600020B0BD01F013F939
:101030000220B0BDB0B5044600F0D8F805468D4892
:10104000611C007818BF044400F0D0F8401BA04297
:10105000FAD3B0BD2DE9FE4F5E4A0A244FF0010BD2
:101060004FF0000C90425C4A08BF092402444FEA4A
:10107000B223092B38BF4FEAB22400F120020194B9
:10108000009200250022102A08BFBDE8FE8F0C68E0
:101090000BFA02FA14EA0A0900F09780D1F804E08A
:1010A000032303FA0CF40EF00308E643A8F101044D
:1010B000012C12D88468D1F80CB00BFA0CF734402C
:1010C0004FF0010B3C438460CEF30014476894401A
:1010D00027EA0A073C43446005E0B8F1030F02D158
:1010E0004FF0030823E0C4688F68344007FA0CF718
:1010F0003C43B8F1020FC46019D105F01C040F2362
:10110000A84603FA04F76FF0030303EA520E009BAC
:101110001D4653F80E30BB430F6907FA04F423430E
:1011200045F80E304546D1F804E00EF00308046897
:1011300008FA0CF3344023431EF4403F036044D0CC
:101140000023284C254EA8460293236843F480438D
:10115000236023680F2403F48043029305F00C03FB
:1011600022F00305029F35449C401F4FBE46EF59B5
:1011700027EA0404019F07FA03F3234345F80E30DE
:10118000B3684D6843EA0904EF0258BF23EA090433
:10119000134BB460AF029E461B6843EA090458BF74
:1011A00023EA0904CEF80040AF03736843EA090458
:1011B00058BF23EA09047460ED033368454643EAE7
:1011C000090458BF23EA090434600CF1020C043509
:1011D000013258E7002402400000FEBF003C0140FD
:1011E0000C3C01404438024008FCFFFF0548006801
:1011F000704700BF1F48034900780A681044086020
:10120000704700BFDC02002080B50B48016841F444
:1012100000710160016841F480610160016841F47E
:1012200080710160032000F077F80F2000F006F8CD
:1012300000F022F8002080BD003C024070B50D4E49
:1012400004464FF47A713078B1FBF0F0A449096894
:10125000B1FBF0F000F00EFB01250F2C08D838B9D7
:101260004FF0FF3021460022002500F02FF8746077
:10127000284670BD0000002082B000204549019042
:101280004A6842F480424A604A6802F4804201920D
:10129000019A0090086840F080500860086800F0EB
:1012A00080500090009802B0704700BF002809D419
:1012B0001C21012201EAD00100F01F0002FA00F017
:1012C000014A8850704700BF00E100E0F0B5184BBC
:1012D0004FF0FF361C68C4F30224E51E84F00704B7
:1012E00038BF002506FA05F7BA43042C28BF0424AA
:1012F00006FA04F4A14300F00F04A940043C114392
:10130000044A234409010244002848BF03F10C02A7
:101310001170F0BD00E400E005494FF6FF030A68D4
:101320001A4060F30A22034810430860704700BF68
:101330000CED00E00000FA057CB50020164E174DBC
:1013400001901448016841F080510160006800F08C
:1013500080500190019801203060FFF747FF04465C
:101360002868C00305D4FFF741FF00F0FCFEF7D961
:101370000EE001207060FFF739FF04462868800303
:1013800044BF00207CBDFFF731FF00F0ECFEF5D933
:1013900003207CBD4038024040000E4204700040F3
:1013A000002852D02DE9F041404B04468846D3F83E
:1013B000000400F00F00884204D283F8008400F09B
:1013C000C5FE4BD12068810711D5410703D5996827
:1013D00041F4E0519960010703D5996841F46041F7
:1013E0009960A1689A6822F0F00211439960C007E1
:1013F0002DD100F0ABFE04D983F8008400F0A6FEE6
:101400002CD12068410705D5E1689A6822F4E052A2
:1014100011439960000706D52069996821F460415D
:1014200041EAC00098601C4600F060F8A168204ABC
:10143000C1F30311515CC840294908601D48006888
:10144000FFF7FCFE0020BDE8F081012070476068D6
:10145000811E022905D21968890107D40120BDE83F
:10146000F08101281DD119688903F7D599681D46B7
:1014700021F0030108439860FFF7B8FE064641F2E9
:1014800088376068A9682B4601F00C01B1EB800F2A
:10149000AFD0FFF7ABFE801BB842F2D90320BDE806
:1014A000F08119688907D9D5E0E700BF003802400C
:1014B000B02A00080400002009480A490A4A0068C6
:1014C0000968C1F38221515CC8407047044805494E
:1014D000054A00680968C1F34231515CC840704751
:1014E0000800002008380240C02A000810B5134C3C
:1014F000606800F00C00082804D0042814BF1048CD
:10150000104810BD226820680023400202F03F020C
:101510000C485CBF42F20040C0F2F4002168C1F305
:101520008811A0FB0101FEF7C7FE21680222C1F36A
:10153000014102EB4101B0FBF1F010BD0438024063
:101540000024F400001BB700002864D02DE9FC4102
:1015500004460078C44EC0070CD0B06800F00C0000
:10156000042840F090803068800303D5606800282C
:1015700000F0A1802078800719D5B06810F00C0F1A
:1015800007D000F063FE40F099807068400200F1DF
:1015900095803068800703D5E068012840F08B8093
:1015A0002069316821F0F80141EAC00030602078FC
:1015B000000732D42078400742D4A76947B300F02F
:1015C00045FE40F0AD80012F75D0E169706800F4F0
:1015D00080028A426FD1216A00F03F028A426AD1BA
:1015E00047F6C071626A0140B1EB821F63D1A16A04
:1015F0004FF6FF72C903914300F44032A1F58031E8
:101600008A4258D1E16A00F07060B0EB016F52D1AC
:101610000020BDE8FC8101207047606900286ED081
:1016200092480121C0F8801EFFF7E0FD0546706F6B
:101630008007BFD4FFF7DAFD401B0228F7D9C9E0C5
:10164000306C5FEAC0080AD400200190306C40F092
:1016500080503064306C00F0805001900198844FCD
:101660003868C0053DD4386840F480703860FFF7B2
:10167000BDFD05463868C00533D4FFF7B7FD401BF4
:101680000228F7D9A6E000F0E1FD03D1706840021E
:101690003FF569AF30686168B1F5803F07D0B1F5BB
:1016A000A02F40F0828040F480203060306840F409
:1016B0008030306082E00120BDE8FC81E1686B4849
:1016C00000294BD001210160FFF790FD05463068ED
:1016D00080073FF565AFFFF789FD401B0228F6D96B
:1016E00078E0306FA168012905D0052946D140F086
:1016F00004003067306F40F00100306747E05B481E
:101700000021C0F8801EFFF771FD0546706F80074D
:101710007FF550AFFFF76AFD401B0228F6D959E06C
:101720005249002088460866FFF760FD0546022FF3
:1017300009D13068800150D5FFF758FD411B0320C7
:101740000229F6D965E7306880017FF561AFFFF7C0
:101750004DFD411B03200229F5D95AE70021016004
:10176000FFF744FD0546306880077FF520AFFFF79F
:101770003DFD411B03200229F5D94AE720F0010075
:1017800000293067306F20F00400306745D0FFF744
:101790002DFD054641F28837306F80074CD4FFF7A6
:1017A00025FD401BB842F7D914E020F48030002911
:1017B0003060306820F48020306046D0FFF716FD9E
:1017C0000546306880033FF5D5AEFFF70FFD401B9F
:1017D0006428F6D90320BDE8FC811C341FCC0843E3
:1017E000D90340EA82104FF6FF72914340EA046049
:1017F000A1F58031084370600120C8F86000FFF750
:10180000F5FC0446306880013FF502AFFFF7EEFCBF
:10181000011B03200229F5D9FBE6FFF7E7FC05468B
:1018200041F28837306F800706D5FFF7DFFC411B98
:101830000320B942F6D9ECE6B8F1000F3FF5BDAE92
:10184000306C20F080503064B7E6FFF7CFFC0546DF
:10185000306880037FF58EAEFFF7C8FC411B032084
:101860006429F5D9D5E600BF0038024000004742A0
:1018700000700040411E0020B0EB116F1CBF012022
:101880007047044AF023516003490B7007219060B0
:101890001160704710E000E023ED00E070477047F2
:1018A00090F83C300222012B2FD010B580F83D205B
:1018B00002680B68546824F070041C439368B2F10A
:1018C000804F546014D0424CA24211D0C14CA2426D
:1018D0000ED0404CA2420BD03F4CA24208D03F4C0D
:1018E000A24205D03E4CA24202D03E4CA24204D1BC
:1018F000496823F08003194391600022012180F898
:101900003C2080F83D10BDE810401046704700BFF5
:1019100058B110B500F0F0FC03D100F0BAFC00F0B3
:1019200007F800F00FFD00F037BC01207047000001
:101930000068A849884218BF7047E0B5002000221F
:1019400001900948016841F004010160002100682C
:1019500000F00400019001981E20FFF7B7FC1E2044
:10196000BDE88C40FFF7A2BC4038024090F83D1023
:1019700001291CBF01207047022180F83D1000683A
:10198000C168B0F1804F41F00101C16014D010492D
:10199000884211D08F4988420ED00E4988420BD020
:1019A0000D49884208D00D49884205D00C4988422B
:1019B00002D00C49884204D1724600F018FC9646C9
:1019C00003D0724600F028FC96460020704700BF06
:1019D00000040040000C00400018004000000140DE
:1019E000004001400004014010B500F07FFC54D0DD
:1019F00084F83D0001204FF6777384F83C0020689E
:101A000082689A4382600A68C2B1102A16D0202ADE
:101A100014D0302A12D0402A33D0502A28D0602A3D
:101A200013D0B2F5005F1CD0B2F5805F32D0702ABF
:101A30001CD100F021FC41F077012AE0816821F0FF
:101A40007001114341F0070123E04B68CA68194651
:101A500000F073FD2068816841F0670121F01001FA
:101A600017E000F009FC41F4804112E0012012E08F
:101A700000F055FC2068816841F0570121F02001F9
:101A800007E000F04CFC2068816841F0470121F03C
:101A900030018160002000F03BFC10BD704770B544
:101AA00004460068C5680669B10710D5A9070ED5B8
:101AB0006FF002010161012121778069800702D066
:101AC00000F01FFC01E000F0F6FB0020207770071B
:101AD00012D5680710D520686FF00401016102215A
:101AE0002177806910F4407F02D000F00AFC01E009
:101AF00000F0E1FB00202077300711D528070FD533
:101B000020686FF00801016104212177C069800716
:101B100002D000F0F6FB01E000F0CDFB00202077C2
:101B2000F00612D5E80610D520686FF010010161AB
:101B300008212177C06910F4407F02D000F0E1FB5A
:101B400001E000F0B8FB00202077F00708D0E8079C
:101B500006D020686FF001010161204600F026F8F0
:101B6000300608D5280606D520686FF0800101618F
:101B70002046FFF793FE700608D5680606D5206854
:101B80006FF040010161204600F028F8B00601D551
:101B9000A80600D470BD20686FF0200101612046C6
:101BA000BDE87040FFF77BBE704770470068094989
:101BB000884200D07047084841880131418089B28D
:101BC000B1F57A7FF6D300214180017801310170AF
:101BD000704700BF000800403001002070477CB50E
:101BE00000F01FFB1AD10125C9B1C2B12046002661
:101BF0002563666300F012FE206B01280FD1019669
:101C0000206800F003FB206850E8030F216840F0D3
:101C1000100000F079FBF6D1002500E002252846EF
:101C20007CBD000070B51549154D08784A788B7851
:101C3000CC7862F30A20D2082880487963F34A12EC
:101C40006A800A79C0F30116AE7286092E725608B0
:101C500060F3CA16A0000B4C40EA9310EE8062F3CA
:101C60008A201222A8802046FFF7B9FFE06B0068A7
:101C7000016821F00801016070BD00BF4001002033
:101C8000340100207802002070470000F8B50446B7
:101C900000680268C168466915074FEA82633FD051
:101CA00001F4907706F00106BF193DD0D70705D0A3
:101CB000CF0503D5676C47F001076764570704D564
:101CC0001EB1676C47F002076764920704D51EB126
:101CD000626C42F004026264002D07D501F020021C
:101CE000921903D0626C42F008026264626C002AAE
:101CF00000F0E280002B05D5890603D5204600F0D0
:101D0000CEFC20684069616C00F0400001F00801E1
:101D1000401847D12046FFF7B7FF00206064CBE0B2
:101D2000002B01D58B0653D4236B012B03D1D30693
:101D300001D5CB0651D4130601D50B0611D452069A
:101D400040F1BA80490640F1B780C16821F04001F6
:101D5000C160202084F841002046BDE8F84000F032
:101D600025B994F84110212940F0A680A168B1F569
:101D7000805F03D12169002900F09F80216A4A1CFD
:101D8000226209784160E18C0139E184090440F064
:101D90009380C16821F08001C160C16841F04001B9
:101DA000C160F8BD00F065FA00F045FA4DD500F0CD
:101DB000DEF9FCD1E06B002847D044490165FEF70D
:101DC000CAFF002878D0E06B016DBDE8F8400847F5
:101DD0002046BDE8F84000F062BC00210091016897
:101DE00000914168009100994069400632D4E08D2D
:101DF000A18DE28D002A5FD081425DD0081A216852
:101E000051E8031F226821F4907142E80313002B6C
:101E1000F5D1216851E8051F226821F0010142E84F
:101E20000513002BF5D1202184F8421000212163F5
:101E3000216851E8031F226821F0100142E80313D2
:101E4000002BF5D10221616330E02046BDE8F84067
:101E5000FFF71ABFE06B016849688AB262B3A38DCD
:101E60009A4229D2E185C069B0F5807F19D02068F7
:101E700050E8030F216820F4807000F045FAF6D195
:101E800000F0EDF9FCD100F072F9FCD1202084F8CB
:101E900042000020206300F096F9FCD1E06BFEF7D1
:101EA0001DFF02206063A08DE18D401A81B22046A3
:101EB000BDE8F840FFF7B6BEF8BD216A31F8022B45
:101EC0006FF35F22216242605DE700BF5F2500087B
:101ED00090B110B5044690F8410008B900F039FA05
:101EE00000F0F9F92068016921F49041016141692C
:101EF00021F02A0100F018BA0120704770B586B0B1
:101F0000044601A81421FEF74FFA21688348814254
:101F100043D10026594900F5744000964A6942F0C1
:101F200010024A614A6902F010020092009A00967B
:101F30000A6842F002020A60096801F00201009199
:101F4000072105910321CDE9036102210291C021FE
:101F50000191009901A9FFF77DF8114D114A4FF445
:101F600080604FF00061C5E90021286105F114008F
:101F70001421C5E90266FEF717FA2846FEF7ACFF02
:101F800008B1FEF7F5FA252000210022AC63E563D5
:101F9000FFF79CF92520FFF789F906B070BD00BF57
:101FA000D001002040640240704770477047FEE750
:101FB00010B50548054C00F0B5F818B1BDE8104063
:101FC000FEF7D6BA10BD00BF8001002000640040BB
:101FD00010B50548054C00F0A5F818B1BDE8104053
:101FE000FEF7C6BA10BD00BFA8010020006800407F
:101FF000E0B50020002201902048016841F48001F2
:1020000001600021006800F48000019001983A20EE
:10201000FFF75CF93A20BDE88C40FFF747B900BFF5
:1020200081B0002115480091026842F0010202606F
:10203000026802F001020092009A0091026842F0E8
:1020400002020260026802F002020092009A00910D
:10205000026842F008020260026802F00802009280
:10206000009A0091016841F080010160006800F071
:1020700080000090009801B0704700BF30380240E7
:1020800010B586B0E9488021144C44F24F6340F209
:10209000E73281610021C0E90043C0E90212016119
:1020A0000591CDE90311CDE90011FFF731FC08B12D
:1020B000FEF75EFA4FF480500290DC4802A9FFF769
:1020C00093FC08B1FEF754FAD8486946FFF7E8FBDD
:1020D00008B1FEF74DFA06B010BD00BF0008004081
:1020E00070B50C480C4D0D4E00214FF480540C225D
:1020F0004FF48063C0E90065C0E90241C0E90432E1
:10210000C0E90611FFF7E4FE18B1BDE87040FEF724
:102110002FBA70BD78020020A08601000010014097
:10212000FEE7FEE700214FF4C0220523C0E900438B
:10213000C0E90211C0E9042181618183FEF735BC49
:10214000026802EB0112D2F8BC217047D3F80004F8
:1021500000F00F0040457047002084F83400012053
:1021600084F835007047001BB0F57A7F704720680F
:1021700050E8050F216820F0400041E80502002AE0
:102180007047026802EB0112D2F8B821704701686B
:1021900021F0010101607047012084F8460084F8B5
:1021A0003E0084F83F0084F8400084F8410084F841
:1021B000420084F8430084F8440084F8450084F821
:1021C0003D00002010BD206850E8030F216820F07A
:1021D000100041E80302002A7047016851E8051F1A
:1021E000026821F0010142E80513002B7047816865
:1021F00001F0070106297047016851E8031F0268D2
:1022000021F0100142E80313002B7047016801918F
:102210004068019001987047016841F00101016038
:102220007047044690F8420020287047206850E824
:10223000050F216870472068406940067047206894
:10224000016841F001010160FEF7D0BFB06800F005
:102250000C0008287047002084F83400704720687C
:1022600050E8050F216820F0010041E80502002A2E
:102270007047204600F0E4B9D1E90123C9681A4348
:1022800042EA0121826822F47F4211438160816821
:102290007047002084F83C0020467047606A40F494
:1022A00000306062052084F820007047044690F8F2
:1022B0003400012870474DF808ED2046FFF774FC04
:1022C00020465DF808EBFFF770BC416A41F48021BD
:1022D000416201207047242084F841002068C168D1
:1022E00021F40051C160204600F036BA90F83C203D
:1022F00004460220012A7047044690F83D00002859
:1023000070472046FFF7CABB41E80302002A704726
:10231000002184F83C10012184F83D1070474B687F
:10232000CA68194600F0F8B84161C16841F400512B
:10233000C16000202021606484F8411084F84210BC
:10234000606310BD0220211D84F83D00206800F06C
:102350006FB8002084F840002046FFF7CFBD7047DB
:102360007047FEF747BF000010B592B006AC3021B1
:102370002046FEF719F801A81421FEF715F80020F1
:10238000224900900A6842F080520A60096801F010
:1023900080510091009900901D490A6842F4404222
:1023A0000A60B422096801F44041009104210F92AF
:1023B0000822119102210E92CDE90C1010201091EB
:1023C00006910A900120099000982046FFF7BCF87A
:1023D00008B172B6FEE7FEF7AFFF08B172B6FEE7CE
:1023E0004FF48050052105904FF4A0500490002038
:1023F0000390022002900F20019001A8FEF7D0FF69
:1024000008B172B6FEE712B010BD00BF40380240FE
:10241000007000400248016841F47001016070479B
:1024200088ED00E00148FFF73ABB00BF3002002012
:1024300070B52E4A0368904234D0B0F1804F0BD073
:102440002B4CA04208D02B4CA04205D02A4CA042D5
:1024500002D02A4CA04203D14C6823F070032343DE
:10246000B0F1804F22D0224CA0421FD0214CA0427C
:102470001CD0224CA04219D0214CA04216D0214C95
:10248000A04213D0204CA04210D01B4CA0420DD033
:102490001E4CA0420AD01E4CA04207D01D4CA042A8
:1024A00004D007E04C6823F070032343CC6823F486
:1024B000407323434E6923F080030C688D683343D7
:1024C00090420360C562846203D002F5806290424C
:1024D00001D109690163012141610169C90703D083
:1024E000016921F00101016170BD00BF00000140E0
:1024F000000400400008004000040140000C0040BF
:1025000000180040001C0040002000400040014036
:10251000004801400044014010B5036A046A24F0F9
:1025200001040462846924F0F00444EA0212826126
:1025300023F00A021143016210BD10B5036A046A58
:1025400024F010040462846924F4704444EA0232E2
:10255000826123F0A00242EA0111016210BD806B8A
:102560000021C185C184FFF78FBB10B5846B206843
:10257000416994F84120212A08D111F0800105D049
:102580000020E084204600F07CF82068406994F840
:102590004210222906D110F0400003D00020E0852F
:1025A000FFF767FE606C40F0100060642046BDE8F5
:1025B0001040FFF769BB0168806B0968C90529D421
:1025C0000021C185016851E8031F026821F4807170
:1025D00042E80313002BF5D14DF808EDFFF7FDFDA0
:1025E0005DF808EBF8D1016851E8051F026821F099
:1025F000400142E80513002BF5D1202180F842105C
:10260000016B012906D14DF808EDFFF7F5FD5DF8E6
:1026100008EBF8D100214163016B012918BFFFF7D6
:10262000C3BC818DFFF7FEBA806B01214163016B52
:10263000012918BFFFF7B9BC818D4908FFF7F2BA2D
:10264000016851E8031F026821F4907142E8031306
:10265000002BF5D14DF808EDFFF7BFFD5DF808EB55
:10266000F8D1016B012906D14DF808EDFFF7C4FD43
:102670005DF808EBF8D1202180F8421000210163B9
:102680007047016851E8031F026821F0C00142E869
:102690000313002BF5D1202180F84110704790F8EA
:1026A0004210222920D183680246B3F5805F08D109
:1026B00052F8281F52F8183C002B45D003685B687D
:1026C00009E052F8281F13B90369002BF6D00368FC
:1026D0005B6803F07F030B70116801311160C18DDD
:1026E0000139C185090400D070470168CA6822F029
:1026F0002002CA60CA6822F48072CA604A6922F065
:1027000001024A61202180F8421000214163026BDE
:10271000012A18BFFFF748BC81B001634DF808EDEE
:10272000FFF76AFD5DF808EBF8D101680A68D20688
:1027300006D5002200920A6800924968009100992B
:10274000818D01B0FFF76EBA026852686FF35F22A5
:1027500021F8022B8162C2E7B0B50446006804F19B
:1027600008030ECB056925F4405519432A4349F265
:102770000C650261C26863691943E369AA4319439E
:102780001143C1604169A26921F440711143416163
:10279000204940F48060884202D1FEF797FE01E0B4
:1027A000FEF78AFEE269192163681B4DA0FB010157
:1027B000B2F5004F16D15A00DB0FFDF77DFD642105
:1027C00005F18053B0FBF1F202FB0300322303EB6F
:1027D000C000B0FBF1F04FF4F87101EA400100F0E5
:1027E000070011E09A009B0FFDF766FD642132237C
:1027F000B0FBF1F202FB050003EB0010B0FBF1F0BF
:1028000000F0F00100F00F0001EB02110844216814
:102810008860B0BD001401409CFFFF0FF8B513465F
:10282000002504461B4E0A461C4F45648385816281
:10283000222084F84200E06B2168C0E91365164E3F
:102840000431C0E90F76FEF7C7FB009520680168E8
:102850000091406800900098206940B1206850E8DD
:10286000030F216840F48070FFF74EFDF6D1FFF7AB
:10287000DDFC40F0010041E80502002AF7D1FFF736
:10288000D5FC40F0400041E80502002AF7D10020C5
:10289000F8BD00BF6B25000829260008B7250008F1
:1028A0005848FFF7F3B900BFFEE700002DE9F043F9
:1028B00095B0DFF844814046FEF7E3F90026012792
:1028C0004FF00E090BAD00240E2C0FD040462946C8
:1028D000CDE91167CDE90B66CDE90D66CDE9137938
:1028E000CDE90F64FDF79CFE0134EDE7424802217B
:1028F000FDF740FE414C2046FEF7C3F900210120C0
:102900000791CDE90111CDE903110E21089009903D
:10291000CDE905010A9101A92046FDF781FE204677
:102920001021FDF727FE15B0BDE8F08370B5114CFE
:10293000114EA0F58060A1EB1145A1F580630C4A12
:10294000054404EB1144C1EB114196F900609080FD
:10295000538001441480714375431181E1185581FE
:102960000B18401A734370439381D08070BD00BF31
:102970002001002000FCFFFF9C000020FEF744FC2B
:10298000FFF7F2FCFFF74CFBFFF732FBFFF720FBF2
:10299000FFF7A6FBFFF774FBFFF70AFB15486FF084
:1029A000010201680A61FEF7E1FF1348FEF769F9C9
:1029B000FFF77CFF1148FEF764F9114E114C12220B
:1029C00006F110012046FFF70AF9E06B0E4D06F103
:1029D00022040068016821F008010160321D07CA65
:1029E000FFF7A4FF28462146FDF76EFD0220FEF703
:1029F00021FBF3E73002002080010020A801002025
:102A0000300100207802002026010020B0B5511AC4
:102A1000B0F91820B0F9103090ED012A90ED001AAD
:102A2000B0F90C50018209B200EE101A03EE102A20
:102A30004382B8EEC00AB8EEC33A02EE003A21EE85
:102A4000000ABDEEC32A12EE104ABDEEC00A10EE17
:102A5000102AB8EEC00AA542048380ED050A02DB05
:102A60006D42AC4201DA2C460583C91A90ED021A78
:102A700000EE101AB8EEC00A21EE000ABDEEC00A40
:102A800010EE101AB8EEC00A511A80ED070A214460
:102A9000018408B2B0BDF1EE100A4FF6FF71C0F22A
:102AA000C03120EA010040F04070E1EE100A7047AA
:102AB00000000000000000000102030406070809EE
:102AC0000000000001020304E82A000800000020C2
:102AD000A000000010020008882B0008A0000020C1
:102AE0004008000030020008010000001000000053
:102AF0000024F4000000A0409A99193E0000000054
:102B00000010005000000000000000000000000065
:102B100000000000000000000000A0409A99193E4B
:102B20000000000000100050000000000000000045
:102B30000000000000000000000000000000A040B5
:102B40009A99193E0000000000100050000000009B
:102B50000000000000000000000000000000000075
:102B60000000A0409A99193E00000000001000509B
:102B70000000000000000000000000000000000055
:082B800000000000030000004A
:04000005080001AD41
:00000001FF
