:020000040800F2
:10000000E808002079020008853E0008453C000809
:10001000813E000871040008094A00080000000041
:10002000000000000000000000000000F93E000891
:100030002D07000800000000F53E0008513F0008B1
:10004000930200089302000893020008930200083C
:10005000930200089302000893020008930200082C
:10006000930200089302000893020008930200081C
:10007000930200089302000893020008930200080C
:1000800093020008930200089302000893020008FC
:100090007504000893020008930200089302000808
:1000A00093020008930200089302000893020008DC
:1000B00093020008930200083540000893020008EC
:1000C00093020008930200089302000893020008BC
:1000D00093020008F94900089302000893020008FF
:1000E000930200089302000893020008930200089C
:1000F000930200089302000893020008930200088C
:10010000930200089302000893020008930200087B
:10011000930200089302000893020008930200086B
:100120009302000893020008850500089302000866
:10013000930200089302000893020008930200084B
:100140009302000885040008930200089302000847
:10015000930200089302000893020008930200082B
:10016000930200089302000893020008930200081B
:1001700093020008930200089302000800000000A8
:1001800093020008930200089302000893020008FB
:1001900093020008930200089302000893020008EB
:1001A00000000000000000009302000800F002F8C8
:1001B00000F052F814A696E8000CB244B344DA45B5
:1001C00001D100F049F8BAE80F000FA696E8300018
:1001D000A5EB040504EB0607AAEB0704A7F101074A
:1001E0004FEA15154FEA3414A4F10104AC4201D3CF
:1001F00000F032F813F0010F18BFFB1A43F00103AF
:1002000000F001F8DBE71847344D0000544D0000C2
:10021000103A24BF78C878C1FAD8520724BF30C832
:1002200030C144BF04680C60704700007047000094
:100230000023002400250026103A28BF78C1FBD8EF
:10024000520728BF30C148BF0B6070471FB504F08C
:1002500057FE1FBD10B510BD00F0D4F81146FFF7D2
:10026000F5FF04F029FD00F0F2F803B4FFF7F2FF08
:1002700003BC00F0F5F80000094880470948004732
:10028000FEE7FEE7FEE7FEE7FEE7FEE7FEE7FEE746
:10029000FEE7FEE704480549054A064B70470000A3
:1002A00021400008AD010008E8020020E808002015
:1002B000E8040020E804002053EA020C00F0698002
:1002C0002DE9F04B4FF00006002B1FBFB3FA83F56A
:1002D00003FA05F424FA05F65E4012BF1643B2FA9B
:1002E00082F502FA05F4C5F120051EBF22FA05FCCD
:1002F00044EA0C04203556EA044C4FEA144418BF73
:10030000641C4FF000084FF00009904271EB030CA1
:1003100039D3002919BFB1FA81F701FA07F6B0FA0B
:1003200080F700FA07F6C7F120071EBF20FA07FC86
:1003300046EA0C062037B6FBF4FCA7EB0507103F96
:1003400007F01F0BCBF120062CFA06F60CFA0BFB7C
:1003500044BFB3460026202FA4BF5E464FF0000BDB
:100360005BEA060C08BF4FF0010B19EB0B0948EBD9
:100370000608ABFB027C06FB02CC0BFB03CCC01BCC
:1003800071EB0C01C1E70B46024641464846BDE809
:10039000F08B13B5084318BF4FF0FF300146AFF3A1
:1003A0000080BDE81C4070474FF0000200B51346C6
:1003B00094469646203922BFA0E80C50A0E80C5085
:1003C000B1F12001BFF4F7AF090728BFA0E80C5036
:1003D00048BF0CC05DF804EB890028BF40F8042B2F
:1003E00008BF704748BF20F8022B11F0804F18BF9C
:1003F00000F8012B704770477047704700487047FE
:10040000A80000207546FFF7F9FFAE4605006946D3
:10041000534620F00700854618B020B5FFF73AFF95
:10042000BDE820404FF000064FF000074FF00008F5
:100430004FF0000BAC46ACE8C009ACE8C009ACE832
:10044000C009ACE8C00921F007018D46704710B51E
:100450000446AFF300802046BDE81040FFF705BF1B
:1004600001491820ABBEFEE72600020070470000DD
:10047000FFE7FEE780B540F24C10C2F2000000F04A
:1004800011FC80BD80B540F27410C2F2000000F093
:1004900009FC80BD80B584B0ADF80E00ADF80C103D
:1004A000ADF80A20ADF8083040F22411C2F2000184
:1004B0004FF40070086000208860C8600820086160
:1004C0009DF80F0040F21A12C2F2000210709DF85F
:1004D0000E0050709DF80D0090709DF80C00D070CB
:1004E0009DF80B0010719DF80A0050719DF80900ED
:1004F00090719DF80800D07140F27410C2F20000B3
:1005000001AB00F043F904B080BD000080B586B0B7
:10051000059004910020ADF80600FFE7BDF8060045
:10052000032822DCFFE7BDF8063003EBC30140F2ED
:100530000400C2F2000000EB8100049903EB830287
:1005400001EB4201B1F90410059A32F9132004F0CD
:100550003FFCBDF8062002A921F81200FFE7BDF814
:1005600006000130ADF80600D8E7BDF90800BDF976
:100570000A10BDF90C20BDF90E30FFF78BFF06B055
:1005800080BD000080B540F29C10C2F2000001F076
:1005900011F980BD82B001900198007810384AF6B8
:1005A000AB21CAF6AA21A0FB011000090090009916
:1005B00044F63270C0F60000405C0199C8650098AE
:1005C000042807D3FFE701990868042262F30900B1
:1005D000886506E00199086840F2FF32904388651B
:1005E000FFE70198806D02B07047000086B005906B
:1005F00000208DF813000598806A039005988069A3
:1006000010BBFFE70398029003281BD80299DFE88C
:1006100001F0020D0218059890F82F00C00720B1D4
:10062000FFE701208DF81300FFE70CE00598C06A92
:10063000B0F1C07F04D1FFE701208DF81300FFE780
:1006400001E000E0FFE745E005988069B0F5005F54
:1006500025D1FFE70398019003281ED80199DFE810
:1006600001F00206021101208DF8130016E0059832
:1006700090F82F00C00720B1FFE701208DF813008C
:10068000FFE70BE00598C06AB0F1C07F04D1FFE737
:1006900001208DF81300FFE700E0FFE719E0039861
:1006A0000090032804D3FFE70098032804D00EE04D
:1006B00001208DF813000BE0059890F82F00C0077B
:1006C00020B1FFE701208DF81300FFE700E0FFE70E
:1006D000FFE7FFE79DF8130006B0704784B0039072
:1006E00002910192009303980168086820F4802029
:1006F000086000980399096848600398806840285A
:1007000009D1FFE701980399096888600298039965
:100710000968C86008E00298039909688860019830
:1007200003990968C860FFE704B07047704700008C
:1007300072B6FFE7FEE7000084B0029001910298D4
:1007400090F820008DF803009DF80300012805D0E3
:10075000FFE79DF8030002280AD1FFE7019A0298FB
:10076000016848691043486100208DF80F0008E0D7
:100770000299486A40F48020486201208DF80F00F9
:10078000FFE79DF80F0004B07047000088B00690A6
:10079000059104920393069890F820008DF80700C5
:1007A00006980068806800900598806808B9FFE79F
:1007B00000E0FFE79DF80700012806D0FFE79DF85D
:1007C0000700022840F08080FFE79DF80300400703
:1007D00000280CD4FFE79DF803000007002806D48A
:1007E000FFE79DF80300C006002864D5FFE70098E6
:1007F000C0F30160029002990120884003990860CB
:100800000598806868B9FFE705980168C06840EA04
:10081000415006990968029A01EB0211C1F8800162
:100820000EE005994A688868C96840EAC200084332
:1008300006990968029A01EB0211C1F88001FFE7ED
:100840000598006906990968029A01EB0211C1F83E
:1008500084010598007D01280CD1FFE70698006807
:10086000029900EB0111D1F8840140F48070C1F8C5
:100870008401FFE70498406806990968029A01EB31
:100880000211C1F88C010498006806990968029A5F
:1008900001EB0211C1F8880106980068029900EB8B
:1008A0000111D1F8800140F00100C1F88001002061
:1008B0008DF81F0011E00699486A40F40010486264
:1008C00001208DF81F0008E00699486A40F4802056
:1008D000486201208DF81F00FFE79DF81F0008B057
:1008E0007047000086B0049003910498006801905E
:1008F000049890F820008DF803009DF8030001286B
:1009000006D0FFE79DF80300022840F0B080FFE723
:1009100046F20040C4F2000001900199D1F80002B3
:1009200040F00100C1F800020199D1F8000220F462
:100930007C50C1F800020398426A0199D1F8000284
:1009400040EA0220C1F800020398406900F01F014C
:10095000012088400290029A0199D1F81C0290432C
:10096000C1F81C020398C069F0B9FFE7029A019927
:10097000D1F80C029043C1F80C02039A9088D16818
:10098000526940EA0140019901EBC201C1F84002FD
:10099000039A10889168526940EA0140019901EB7D
:1009A000C201C1F84402FFE70398C06901281ED1C3
:1009B000FFE7029A0199D1F80C021043C1F80C022A
:1009C000039A90881168526940EA0140019901EB4D
:1009D000C201C1F84002039A90899168526940EAC5
:1009E0000140019901EBC201C1F84402FFE70398FD
:1009F000806940B9FFE7029A0199D1F80402904357
:100A0000C1F8040207E0029A0199D1F804021043E8
:100A1000C1F80402FFE70398006940B9FFE7029AB2
:100A20000199D1F814029043C1F8140207E0029A28
:100A30000199D1F814021043C1F81402FFE703989A
:100A4000006A012808D1FFE7029A0199D1F81C0237
:100A50001043C1F81C02FFE70199D1F8000220F011
:100A60000100C1F8000200208DF8170008E0049989
:100A7000486A40F48020486201208DF81700FFE7A3
:100A80009DF8170006B0704781B0009001B0704724
:100A900086B00490039102920193049890F820008C
:100AA0008DF803009DF80300012806D0FFE79DF8AC
:100AB0000300022840F0E880FFE7039880B9FFE7D1
:100AC00004980068C068800748B9FFE70499486A3D
:100AD00040F40010486201208DF81700DDE00FE0BF
:100AE000049800680069800748B9FFE70499486ADC
:100AF00040F40010486201208DF81700CDE0FFE7B8
:100B000004980068039900EB0110D0F8B00100F0E0
:100B10000400029988600298806858B9FFE7049839
:100B20000068039900EB0110D0F8B001400D029964
:100B300008600AE004980068039900EB0110D0F8FF
:100B4000B001C00802994860FFE704980068039963
:100B500000EB0110D0F8B00100F002000299C8606B
:100B600004980068039900EB0110D0F8B40100F07C
:100B70000F00082804D3FFE70299082008610BE062
:100B800004980068039900EB0110D0F8B40100F05C
:100B90000F0002990861FFE704980068039900EBD1
:100BA0000110D0F8B40180B2000A0299886104985B
:100BB0000068039900EB0110D0F8B401000C029911
:100BC000486104980068039900EB0110D0F8B8015F
:100BD0000199087004980068039900EB0110D0F89F
:100BE000B801000A0199487004980068039900EB65
:100BF0000110D0F8B801000C0199887004980068C1
:100C0000039900EB0110D0F8B801000E0199C870EB
:100C100004980068039900EB0110D0F8BC01019919
:100C2000087104980068039900EB0110D0F8BC012A
:100C3000000A0199487104980068039900EB0110BB
:100C4000D0F8BC01000C01998871049800680399E0
:100C500000EB0110D0F8BC01000E0199C871039897
:100C600038B9FFE704980168C86840F02000C86000
:100C700006E004980168086940F020000861FFE779
:100C800000208DF8170008E00499486A40F480209D
:100C9000486201208DF81700FFE79DF8170006B0A5
:100CA0007047000080B58AB009900020089009982C
:100CB00000684069079009980068406806900998A4
:100CC00000688068059009980068C06804900998D9
:100CD00000680069039009980068806902909DF897
:100CE0001C00C007002800F09480FFE79DF8140066
:100CF000C00758B3FFE709980168012088609DF894
:100D000014008007002804D5FFE7099800F0A2FC32
:100D10001BE09DF814004007002805D5FFE7089860
:100D200040F4006008900FE09DF8140000070028D0
:100D300005D5FFE7089840F48050089003E0099833
:100D400000F084FCFFE7FFE7FFE7FFE79DF81500F1
:100D5000C00760B3FFE7099801684FF480708860AE
:100D60009DF815008007002804D5FFE7099800F0DA
:100D700079FC1BE09DF815004007002805D5FFE72A
:100D8000089840F4005008900FE09DF81500000707
:100D9000002805D5FFE7089840F48040089003E05C
:100DA000099800F05BFCFFE7FFE7FFE7FFE79DF82E
:100DB0001600C00760B3FFE7099801684FF4803060
:100DC00088609DF816008007002804D5FFE7099881
:100DD00000F050FC1BE09DF816004007002805D5E8
:100DE000FFE7089840F4004008900FE09DF81600D7
:100DF0000007002805D5FFE7089840F480300890E8
:100E000003E0099800F032FCFFE7FFE7FFE7FFE7A8
:100E1000FFE79DF81C000007002810D5FFE79DF8AC
:100E20001000C006002809D5FFE7089840F40070BC
:100E30000890099801681020C860FFE7FFE79DF857
:100E40001C00400700280FD5FFE79DF810000007A1
:100E5000002808D5FFE7099801680820C8600998AC
:100E600000F0CEFAFFE7FFE79DF81C00800700289E
:100E70000BD5FFE709980068C068800720B1FFE73D
:100E8000099800F0C1FAFFE7FFE79DF81C00400653
:100E9000002810D5FFE79DF80C00C006002809D5F2
:100EA000FFE7089840F480600890099801681020D6
:100EB0000861FFE7FFE79DF81C00800600280FD5BA
:100EC000FFE79DF80C000007002808D5FFE7099808
:100ED000016808200861099800F024FBFFE7FFE79C
:100EE0009DF81C00C00600280BD5FFE70998006894
:100EF0000069800720B1FFE7099800F017FBFFE7C2
:100F0000FFE79DF81E00800700280FD5FFE79DF83A
:100F10001800C006002808D5FFE7099801681020CE
:100F20004860099800F048FBFFE7FFE79DF81E00C6
:100F3000C00778B1FFE79DF818000007002808D522
:100F4000FFE70998016808204860099800F096FBBF
:100F5000FFE7FFE79DF81D000006002840F18D80A7
:100F6000FFE79DF818004007002840F18180FFE767
:100F70009DF81D00C00750B1FFE79DF80800C007AD
:100F800028B1FFE7089840F001000890FFE79DF8BE
:100F90001D00800700280BD5FFE79DF8080080079B
:100FA000002805D5FFE7089840F002000890FFE709
:100FB0009DF81D00400700280BD5FFE79DF80800AD
:100FC0004007002805D5FFE7089840F00400089086
:100FD000FFE79DF81D000007002848D5FFE79DF8B2
:100FE000080010F0700F42D0FFE7029800F0700088
:100FF00001460191102814D0FFE70198202815D050
:10100000FFE70198302816D0FFE70198402817D055
:10101000FFE70198502818D0FFE70198602819D001
:101020001DE0089840F00800089019E0089840F08A
:101030001000089014E0089840F0200008900FE09D
:10104000089840F0400008900AE0089840F08000BE
:10105000089005E0089840F48070089000E0FFE7F1
:1010600009980168886920F070008861FFE7FFE750
:101070000998016804204860FFE7089848B1FFE735
:10108000089A0999486A104348620998FFF7FCFCDE
:10109000FFE70AB080BD000080B584B002900298DE
:1010A00020B9FFE701208DF80F00E0E0029890F8EA
:1010B000200020B9FFE7029800F0DEF8FFE7029871
:1010C0000168086840F00100086001F037F80190FD
:1010D000FFE7029800684068C007A8B9FFE701F081
:1010E0002DF80199401A0B280DD3FFE70299486AA1
:1010F00040F4003048620299052081F82000012068
:101100008DF80F00B3E0E4E702980168086820F06A
:101110000200086001F012F80190FFE702980068F1
:1011200040688007002815D5FFE701F007F801990E
:10113000401A0B280DD3FFE70299486A40F40030AB
:1011400048620299052081F8200001208DF80F00E7
:101150008DE0E3E70298007E012807D1FFE70298BF
:101160000168086840F08000086006E002980168A5
:10117000086820F080000860FFE70298407E0128A0
:1011800007D1FFE702980168086840F04000086056
:1011900006E002980168086820F040000860FFE758
:1011A0000298807E012807D1FFE70298016808684D
:1011B00040F02000086006E002980168086820F00E
:1011C00020000860FFE70298C07E012807D1FFE7F2
:1011D00002980168086820F01000086006E0029894
:1011E0000168086840F010000860FFE70298007F7F
:1011F000012807D1FFE702980168086840F008005D
:10120000086006E002980168086820F0080008609D
:10121000FFE70298407F012807D1FFE702980168A5
:10122000086840F00400086006E002980168086859
:1012300020F004000860FFE7029B19685A6898686C
:10124000D3F80CC040EA0C00D3F810C040EA0C0000
:101250005B691843013A1043C86102990020486253
:10126000029A012182F820108DF80F00FFE79DF807
:101270000F0004B080BD000080B590B00F9000203A
:101280000E900D900C900B900A900F98006846F20B
:101290000041C4F20001884249D1FFE740F2081042
:1012A000C2F200000168013101600068012812D11A
:1012B000FFE7FFE70020099043F64000C4F2020078
:1012C000016841F000710160006800F00070099051
:1012D0000998FFE7FFE7FFE70020089043F630009A
:1012E000C4F20200016841F008010160006800F0EA
:1012F000080008900898FFE703200A9002210B914C
:10130000002103910C910D9009200E9040F60040B1
:10131000C4F202000AA900F019FD039A14200490F7
:10132000114600F0A3FF049800F096FF65E00F98C7
:10133000006846F60001C4F2000188425CD1FFE774
:10134000FFE70020079043F64000C4F20200016866
:1013500041F080610160006800F0806007900798AC
:10136000FFE740F20810C2F200000168013101609D
:101370000068012812D1FFE7FFE70020069043F63E
:101380004000C4F20200016841F000710160006891
:1013900000F0007006900698FFE7FFE7FFE70020E7
:1013A000059043F63000C4F20200016841F00201EA
:1013B0000160006800F0020005900598FFE74FF417
:1013C00040500A9002200B90002001900C900320C6
:1013D0000D9009200E9040F20040C4F202000AA9CC
:1013E00000F0B4FC019A41200290114600F03EFF4B
:1013F000029800F031FFFFE7FFE710B080BD00006A
:1014000081B0009001B0704780B58AB0099040F279
:101410004C10C2F2000040F2C823C2F200030021C7
:1014200002AAFFF735FB0298B0F5927F1ED1FFE7C5
:1014300040F2C820C2F2000001900278417841EAEF
:10144000022240F20C11C2F200010A808378C278B5
:1014500042EA03224A800379427942EA03228A80DF
:101460008279C07940EA0220C88059E0029840F2AF
:101470002311884211D1FFE740F2C820C2F20000D8
:10148000027840F20C11C2F200010A7242784A72EC
:1014900082788A72C078C87241E0029840F20B21CB
:1014A00088421AD1FFE7029840F2B421C2F200014B
:1014B000088040F2C820C2F200000378427842EA75
:1014C00003224A808378C27842EA03228A80027922
:1014D000407940EA0220088120E0029840F207218A
:1014E00088421AD1FFE7029840F2BE21C2F2000101
:1014F000088040F2C820C2F200000378427842EA35
:1015000003224A808378C27842EA03228A800279E1
:10151000407940EA02200881FFE7FFE7FFE7FFE7A5
:101520000AB080BD81B0009001B0704780B58CB02A
:101530000B9040F27410C2F20000012104AA02AB29
:10154000FFF7A6FA0498A0F20120ADF8060004986F
:10155000BDF9061001EB810240F28C21C2F20001BC
:1015600021F812009DF808209DF8090040EA0220A9
:10157000BDF9062002EB820201EB420250809DF889
:101580000A209DF80B0040EA0220BDF9062002EB7C
:10159000820201EB420290809DF80C209DF80D0024
:1015A00040EA0220BDF9062002EB820201EB420173
:1015B00008810CB080BD000081B0009001B0704780
:1015C00080B584B00290029890F8200001282FD1B5
:1015D000FFE70299022081F820000298016808685C
:1015E00020F00100086000F0A9FD0190FFE70298DB
:1015F00000684068C007A8B1FFE700F09FFD0199AF
:10160000401A0B280DD3FFE70299486A40F40030D6
:1016100048620299052081F8200001208DF80F0012
:101620000FE0E4E70299002048628DF80F0008E01F
:101630000299486A40F40020486201208DF80F00AA
:10164000FFE79DF80F0004B080BD000081B000905E
:1016500001B0704781B0009001B0704781B0009038
:1016600001B0704781B0009001B0704781B0009028
:1016700001B0704781B0009001B0704781B0009018
:1016800001B0704780B584B002900298806D0190DF
:1016900000F054FD0090029890F8350002280DD01B
:1016A000FFE7029980204865FFE70299002081F852
:1016B0003400FFE701208DF80F0055E00298016823
:1016C000086820F01600086002980168486920F058
:1016D000800048610298006C20B9FFE70298806C96
:1016E00038B1FFE702980168086820F00800086038
:1016F000FFE702980168086820F001000860FFE732
:10170000029800680068C007C8B1FFE700F016FD46
:101710000099401A062811D3FFE702992020486556
:101720000299032081F83500FFE70299002081F833
:101730003400FFE703208DF80F0015E0E0E7029882
:10174000C16D3F208840019988600299012081F88D
:101750003500FFE70299002081F83400FFE7FFE73A
:1017600000208DF80F00FFE79DF80F0004B080BD4A
:1017700082B00090009890F83500022807D0FFE76B
:1017800000998020486501208DF807000EE000993F
:10179000052081F8350000980168086820F00100F4
:1017A0000860FFE700208DF80700FFE79DF80700BD
:1017B00002B0704780B586B005900020039040F2DB
:1017C0000000C2F20000006848F2B511C1F64E31C7
:1017D000A0FB0110800A02900598806D019001988D
:1017E0000068049004980599C96DC8400007002856
:1017F0001AD5FFE70598006800684007002812D551
:10180000FFE705980168086820F004000860059863
:10181000C16D08208840019988600599486D40F0A5
:1018200001004865FFE7FFE704980599C96DC840C6
:10183000C007A0B1FFE705980068406900060028CE
:101840000CD5FFE70598C16D01208840019988609B
:101850000599486D40F002004865FFE7FFE70498EE
:101860000599C96DC8404007002814D5FFE70598C1
:1018700000680068800700280CD5FFE70598C16D57
:1018800004208840019988600599486D40F0040063
:101890004865FFE7FFE704980599C96DC840C00691
:1018A000002847D5FFE70598006800680007002872
:1018B0003FD5FFE70598C16D1020884001998860E9
:1018C000059800680068400300281AD5FFE70598CE
:1018D000006800680003002809D4FFE70598006C41
:1018E00020B1FFE70598016C8847FFE708E00598FD
:1018F000806C20B1FFE70598816C8847FFE7FFE720
:1019000016E0059800680068C005002807D4FFE7C6
:1019100005980168086820F008000860FFE705984E
:10192000006C20B1FFE70598016C8847FFE7FFE7EF
:10193000FFE7FFE704980599C96DC84080060028B5
:1019400040F18D80FFE7059800680068C006002818
:1019500040F18480FFE70598C16D202088400199FF
:101960008860059890F83500052834D1FFE7059880
:101970000168086820F01600086005980168486949
:1019800020F0800048610598006C20B9FFE70598B9
:10199000806C38B1FFE705980168086820F00800FE
:1019A0000860FFE70598C16D3F2088400199886075
:1019B0000599012081F83500FFE70599002081F89D
:1019C0003400FFE70598006D20B1FFE70598016D31
:1019D0008847FFE77BE0059800680068400300281F
:1019E0001AD5FFE70598006800680003002809D4AD
:1019F000FFE70598406C20B1FFE70598416C8847E8
:101A0000FFE708E00598C06B20B1FFE70598C16BC0
:101A10008847FFE7FFE720E0059800680068C005F9
:101A2000002811D4FFE705980168086820F010002D
:101A300008600599012081F83500FFE7059900202D
:101A400081F83400FFE7FFE70598C06B20B1FFE79E
:101A50000598C16B8847FFE7FFE7FFE7FFE70598B9
:101A6000406DA0B3FFE70598406DC00730B3FFE7B6
:101A70000599052081F8350005980168086820F06F
:101A800001000860FFE70398013003900299884243
:101A900001D9FFE707E0FFE7059800680068C00785
:101AA0000028F0D1FFE70599012081F83500FFE714
:101AB0000599002081F83400FFE7FFE70598C06C26
:101AC00020B1FFE70598C16C8847FFE7FFE706B044
:101AD00080BD000080B586B004900020039000F027
:101AE0002DFB0290049820B9FFE701208DF8170024
:101AF000A3E00498406A08B1FFE7FFE704990220D9
:101B000081F83500FFE70499002081F83400FFE7F1
:101B100004980168086820F001000860FFE7049855
:101B200000680068C00790B1FFE700F007FB02996A
:101B3000401A06280AD3FFE7049920204865049933
:101B4000032081F835008DF8170076E0E7E7049868
:101B5000006800680390039848F23F01CFF210013B
:101B600008400390049900914868D1F808C0CB68F8
:101B70000A6940EA0C00184310434A6910438A6915
:101B80001043CA691043096A01430398084303904C
:101B90000498406A042808D1FFE70499C86A096BD1
:101BA0000143039808430390FFE7039804990968E9
:101BB00008600498006840690390039820F00700CB
:101BC00003900498416A0398084303900498406A7C
:101BD00004281AD1FFE70498816A03980843039008
:101BE0000498C06A80B1FFE70498FEF7FFFC50B18B
:101BF000FFE70499402048650499012081F83500E9
:101C00008DF8170019E0FFE7FFE7039804990968CA
:101C100048610498FEF7BEFC01900498C16D3F2016
:101C2000884001998860049900204865049A012140
:101C300082F835108DF81700FFE79DF8170006B001
:101C400080BD000080B588B0069005910492039392
:101C500000208DF80B000698806D0190FFE7069834
:101C600090F83400012804D1FFE702208DF81F000E
:101C700045E00699012081F83400FFE7FFE7069868
:101C800090F8350001282BD1FFE70699022081F852
:101C9000350006990020486506980599049A039B2B
:101CA000FEF71CFD0698C16D3F20884001998860B1
:101CB00006980168086840F0160008600698006CF5
:101CC00038B1FFE706980168086840F0080008602E
:101CD000FFE706980168086840F00100086009E025
:101CE000FFE70699002081F83400FFE702208DF815
:101CF0000B00FFE79DF80B008DF81F00FFE79DF834
:101D00001F0008B080BD000080B584B0039000F0D3
:101D100015FA0290039801900198013048B1FFE74D
:101D200040F29E00C2F20000017801980844019040
:101D3000FFE7FFE700F002FA0299401A0199884292
:101D400001D2FFE7F6E704B080BD000090B00F902D
:101D50000E9100200C900B900A900D90FFE70D98CB
:101D60000F2800F2E881FFE70D99012088400C90D0
:101D70000E9800680C9908400B900B980C998842BB
:101D800040F0D481FFE70E98406800F0030001287E
:101D900007D0FFE70E98406800F0030002282FD11B
:101DA000FFE70F9880680A900D984100032000FA21
:101DB00001F10A9888430A900E98C0680D9949006D
:101DC00000FA01F10A9808430A900A980F9988606E
:101DD0000F9840680A900D99012000FA01F10A98C5
:101DE00088430A900E984068C0F300100D9900FADD
:101DF00001F10A9808430A900A980F994860FFE792
:101E00000E98406800F00300032818D0FFE70F98F1
:101E1000C0680A900D984100032000FA01F10A9869
:101E200088430A900E9880680D99490000FA01F1E4
:101E30000A9808430A900A980F99C860FFE70E981D
:101E4000406800F00300022826D1FFE70F980D99A3
:101E50006FF0030202EA51010844006A0A900D98EB
:101E600000F0070081000F2000FA01F10A98884372
:101E70000A900E9800690D9901F00701890000FA97
:101E800001F10A9808430A900A980F990D9B02EAFB
:101E9000530211440862FFE70F9800680A900D98FA
:101EA0004100032000FA01F10A9888430A900E9835
:101EB000406800F003000D99490000FA01F10A980A
:101EC00008430A900A980F9908600E988079800755
:101ED000002800F02A81FFE7FFE70020099043F681
:101EE0004400C4F20200016841F4804101600068CE
:101EF00000F4804009900998FFE70D9820F0030056
:101F000043F60801C4F2010140580A900D9800F010
:101F1000030081000F2000FA01F10A9888430A901B
:101F20000F980021C4F20201884203D1FFE700208C
:101F300008907AE00F9840F20041C4F20201884212
:101F400003D1FFE7012007906CE00F9840F60001F5
:101F5000C4F20201884203D1FFE7022006905EE04E
:101F60000F9840F60041C4F20201884203D1FFE716
:101F70000320059050E00F9841F20001C4F20201E5
:101F8000884203D1FFE70420049042E00F9841F219
:101F90000041C4F20201884203D1FFE7052003900B
:101FA00034E00F9841F60001C4F20201884203D1E7
:101FB000FFE70620029026E00F9841F60041C4F2A8
:101FC0000201884203D1FFE70720019018E00F9833
:101FD00042F20001C4F20201884203D1FFE7082067
:101FE00000900AE00F9942F20042C4F202020A2075
:101FF000914208BF09200090FFE700980190FFE799
:1020000001980290FFE702980390FFE7039804907D
:10201000FFE704980590FFE705980690FFE706980C
:102020000790FFE707980890FFE70898C0B20D995E
:1020300001F00301890000FA01F10A9808430A90AF
:102040000A980D9921F0030143F60802C4F2010237
:10205000885043F60840C4F2010000680A900B99CA
:102060000A9888430A900E988079C006002805D502
:10207000FFE70B990A9808430A90FFE70A9843F68E
:102080000841C4F20101086043F60C40C4F20100AB
:1020900000680A900B990A9888430A900E988079F4
:1020A0008006002805D5FFE70B990A9808430A9097
:1020B000FFE70A9843F60C41C4F20101086043F6B9
:1020C0000440C4F2010000680A900B990A98884302
:1020D0000A900E9880798007002805D5FFE70B99B4
:1020E0000A9808430A90FFE70A9843F60441C4F2AD
:1020F0000101086043F60040C4F2010000680A9044
:102100000B990A9888430A900E988079C00728B1E5
:10211000FFE70B990A9808430A90FFE70A9843F6ED
:102120000041C4F201010860FFE7FFE7FFE70D98F7
:1021300001300D9013E610B07047000040F2E4202B
:10214000C2F200000068704740F29E00C2F2000038
:10215000027840F2E421C2F20001086810440860ED
:102160007047000080B543F60041C4F202010868E0
:1021700040F400700860086840F4806008600868F7
:1021800040F480700860032000F08AF80F2000F00F
:1021900005F800F03BF8002080BD000080B582B05B
:1021A000009040F20000C2F20000006840F29E0180
:1021B000C2F200010A784FF47A71B1FBF2F1B0FB80
:1021C000F1F000F005FE20B1FFE701208DF80700D7
:1021D00018E000980F280DD8FFE700994FF0FF3066
:1021E000002200F043F8009840F2A001C2F2000182
:1021F000086003E001208DF8070003E000208DF85F
:102200000700FFE79DF8070002B080BD82B0FFE73E
:102210000020019043F64400C4F20200016841F43A
:1022200080410160006800F4804001900198FFE760
:10223000FFE70020009043F64000C4F2020001686E
:1022400041F080510160006800F0805000900098DB
:10225000FFE702B07047000080B582B08DF807003C
:102260009DF9070002F0D2FB02B080BD80B586B0B8
:102270008DF81700049103920020029002F0DEFB1B
:1022800002909DF91700019002980499039A01F0B9
:10229000FBFD0146019802F0D9FB06B080BD0000AD
:1022A00080B582B00190019802F0F2FB02B080BDCF
:1022B00080B584B000200290FFE70020019043F633
:1022C0004000C4F20200016841F0805101600068E2
:1022D00000F0805001900198FFE74021C4F20E21E8
:1022E00001200860FFF72AFF0290FFE747F2040091
:1022F000C4F20000006800F48030B0F5803F0DD0DB
:10230000FFE7FFF71BFF0299401AB0F57A7F04D967
:10231000FFE703208DF80F0025E0E7E74421C4F232
:102320000E2101200860FFF709FF0290FFE747F246
:102330000400C4F20000006800F40030B0F5003F73
:102340000DD0FFE7FFF7FAFE0299401AB0F57A7F49
:1023500004D9FFE703208DF80F0004E0E7E7002031
:102360008DF80F00FFE79DF80F0004B080BD00005E
:1023700080B584B002900191029820B9FFE7012056
:102380008DF80F0021E1019843F60041C4F20201EB
:10239000096801F00F01884212D9FFE7019943F65D
:1023A0000040C4F202000170006800F00F000199C3
:1023B000884204D0FFE701208DF80F0005E1FFE718
:1023C00002980078800700282AD5FFE70298007855
:1023D0004007002809D5FFE743F60801C4F20201CF
:1023E000086840F4E0500860FFE7029800780007B2
:1023F000002809D5FFE743F60801C4F20201086886
:1024000040F460400860FFE743F60801C4F20201AF
:10241000086820F0F000029A926810430860FFE715
:1024200002980078C00700286ED0FFE70298406845
:10243000012811D1FFE743F60000C4F20200006852
:1024400000F400310020B0EB514F04D1FFE7012030
:102450008DF80F00B9E02CE002984068022805D002
:10246000FFE702984068032811D1FFE743F6000018
:10247000C4F20200006800F000710020B0EB516F60
:1024800004D1FFE701208DF80F009EE010E043F635
:102490000000C4F20200006800F002010020B0EB6E
:1024A000510F04D1FFE701208DF80F008DE0FFE709
:1024B000FFE743F60801C4F20201086820F00300B8
:1024C000029A526810430860FFF738FE0090FFE759
:1024D00043F60800C4F20200006800F00C00029904
:1024E0004968B0EB810F0ED0FFE7FFF727FE009998
:1024F000401A41F28931884204D3FFE703208DF866
:102500000F0062E0E4E7FFE7019843F60041C4F200
:102510000201096801F00F01884212D2FFE7019918
:1025200043F60040C4F202000170006800F00F00A2
:102530000199884204D0FFE701208DF80F0044E0A4
:10254000FFE702980078400700280CD5FFE743F624
:102550000801C4F20201086820F4E050029AD2682F
:1025600010430860FFE702980078000700280DD5A7
:10257000FFE743F60801C4F20201086820F4604056
:10258000029A126940EAC2000860FFE700F04CF8C6
:1025900043F60801C4F202010968C9B20A0944F607
:1025A0001A71C0F60001895CC84040F20001C2F215
:1025B0000001086040F2A000C2F200000068FFF7CE
:1025C000EDFD00208DF80F00FFE79DF80F0004B02F
:1025D00080BD000040F20000C2F2000000687047B9
:1025E00080B5FFF7F7FF43F60801C4F2020109685E
:1025F000C1F3822244F62A71C0F60001895CC8400A
:1026000080BD000080B5FFF7E5FF43F60801C4F286
:102610000201096889B24A0B44F62A71C0F600012A
:10262000895CC84080BD000080B586B00020059060
:1026300004900390029043F60800C4F20200006880
:1026400000F00C000146019140B1FFE70198042819
:102650000AD0FFE7019808280CD04FE042F2004072
:10266000C0F2F40002904FE041F60030C0F2B70033
:10267000029049E043F60400C4F20200016801F050
:102680003F01059100684002002813D5FFE743F69B
:102690000400C4F202000068C0F3881041F6003163
:1026A000C0F2B701A0FB0101059A0023FDF704FE6B
:1026B000049012E043F60400C4F202000068C0F384
:1026C000881042F20041C0F2F401A0FB0101059A1A
:1026D0000023FDF7F1FD0490FFE743F60400C4F288
:1026E0000200006800F44031022000EBD13003907A
:1026F00004980399B0FBF1F0029005E042F200402B
:10270000C0F2F4000290FFE7029806B080BD00001E
:1027100080B586B00490049820B9FFE701208DF8B9
:10272000170050E304980078C007002800F0A58047
:10273000FFE743F60800C4F20200006800F00C0056
:10274000042813D0FFE743F60800C4F20200006833
:1027500000F00C0008281ED1FFE743F60400C4F285
:10276000020000684002002815D5FFE743F600008C
:10277000C4F20200006800F400310020B0EB514FB9
:1027800008D0FFE70498406820B9FFE701208DF8E2
:10279000170018E370E0FFE704984068B0F5803F49
:1027A00009D1FFE743F60001C4F20201086840F4D2
:1027B0008030086020E004984068B0F5A02F0DD16B
:1027C000FFE743F60001C4F20201086840F48020EC
:1027D0000860086840F4803008600CE043F60001AF
:1027E000C4F20201086820F480300860086820F410
:1027F00080200860FFE7FFE7FFE704984068E8B142
:10280000FFE7FFF79BFC0390FFE743F60000C4F2ED
:102810000200006800F400310020B0EB514F0CD1F1
:10282000FFE7FFF78BFC0399401A652804D3FFE705
:1028300003208DF81700C6E2E7E71CE0FFF77EFCF7
:102840000390FFE743F60000C4F20200006800F4C2
:1028500000310020B0EB514F0CD0FFE7FFF76EFCCA
:102860000399401A652804D3FFE703208DF8170069
:10287000A9E2E7E7FFE7FFE7FFE7049800788007B2
:10288000002840F19680FFE743F60800C4F20200FA
:10289000006810F00C0F13D0FFE743F60800C4F2F5
:1028A0000200006800F00C0008282CD1FFE743F676
:1028B0000400C4F2020000684002002823D4FFE7AD
:1028C00043F60000C4F20200006800F0020100209C
:1028D000B0EB510F09D0FFE70498C068012804D07D
:1028E000FFE701208DF817006DE243F60001C4F206
:1028F0000201086820F0F800049A126940EAC20058
:102900000860FFE754E00498C06870B3FFE7002157
:10291000C4F2472101200860FFF710FC0390FFE795
:1029200043F60000C4F20200006800F0020100203B
:10293000B0EB510F0CD1FFE7FFF700FC0399401AF1
:10294000032804D3FFE703208DF817003BE2E7E7F5
:1029500043F60001C4F20201086820F0F800049A6E
:10296000126940EAC200086021E00021C4F2472158
:1029700000200860FFF7E2FB0390FFE743F600004A
:10298000C4F20200006800F002010020B0EB510F19
:102990000CD0FFE7FFF7D2FB0399401A032804D3BA
:1029A000FFE703208DF817000DE2E7E7FFE7FFE7F9
:1029B000FFE704980078000700284BD5FFE704984C
:1029C000406918B3FFE740F68061C4F24721012057
:1029D0000860FFF7B3FB0390FFE743F67400C4F20F
:1029E0000200006800F002010020B0EB510F0CD192
:1029F000FFE7FFF7A3FB0399401A032804D3FFE77F
:102A000003208DF81700DEE1E7E722E040F6806161
:102A1000C4F2472100200860FFF790FB0390FFE716
:102A200043F67400C4F20200006800F002010020C6
:102A3000B0EB510F0CD0FFE7FFF780FB0399401A72
:102A4000032804D3FFE703208DF81700BBE1E7E775
:102A5000FFE7FFE7049800784007002840F1CE80A8
:102A6000FFE700208DF8070043F64000C4F20200A3
:102A70000068C000002815D4FFE7FFE700200090A1
:102A800043F64000C4F20200016841F08051016049
:102A9000006800F0805000900098FFE701208DF85A
:102AA0000700FFE747F20000C4F200000068C0051D
:102AB000002822D4FFE747F20001C4F200010868B1
:102AC00040F480700860FFF739FB0390FFE747F29E
:102AD0000000C4F200000068C00500280CD4FFE725
:102AE000FFF72CFB0399401A032804D3FFE70320C8
:102AF0008DF8170067E1EAE7FFE7FFE704988068D1
:102B0000012809D1FFE743F67001C4F20201086809
:102B100040F0010008601FE00498806805280DD18E
:102B2000FFE743F67001C4F20201086840F00400B8
:102B30000860086840F0010008600CE043F670018E
:102B4000C4F20201086820F001000860086820F063
:102B500004000860FFE7FFE7FFE704988068F8B12A
:102B6000FFE7FFF7EBFA0390FFE743F67000C4F2CC
:102B70000200006800F002010020B0EB510F0ED1FE
:102B8000FFE7FFF7DBFA0399401A41F289318842E7
:102B900004D3FFE703208DF8170014E1E5E71EE0FA
:102BA000FFF7CCFA0390FFE743F67000C4F202008F
:102BB000006800F002010020B0EB510F0ED0FFE7DB
:102BC000FFF7BCFA0399401A41F28931884204D3D5
:102BD000FFE703208DF81700F5E0E5E7FFE79DF834
:102BE0000700012809D1FFE743F64001C4F20201C2
:102BF000086820F080500860FFE7FFE704988069CC
:102C0000002800F0DC80FFE743F60800C4F2020071
:102C1000006800F00C00082800F08580FFE70498A9
:102C2000806902285CD1FFE76021C4F247210020BF
:102C30000860FFF783FA0390FFE743F60000C4F251
:102C40000200006800F000710020B0EB516F0CD062
:102C5000FFE7FFF773FA0399401A032804D3FFE74D
:102C600003208DF81700AEE0E7E70499C869D1F8B2
:102C700020C04B6A8A6A40EA0C0040EA8310D20303
:102C80004FF6FF739A43A2F580321043C96A40EAB7
:102C9000016043F60401C4F2020108606021C4F23D
:102CA000472101200860FFF749FA0390FFE743F648
:102CB0000000C4F20200006800F000710020B0EBD8
:102CC000516F0CD1FFE7FFF739FA0399401A032837
:102CD00004D3FFE703208DF8170074E0E7E721E055
:102CE0006021C4F2472100200860FFF727FA039013
:102CF000FFE743F60000C4F20200006800F0007134
:102D00000020B0EB516F0CD0FFE7FFF717FA0399E3
:102D1000401A032804D3FFE703208DF8170052E080
:102D2000E7E7FFE74AE004988069012804D1FFE75C
:102D300001208DF8170046E043F60400C4F20200BB
:102D40000068029004988069012831D0FFE702985A
:102D500000F480000499C969884229D1FFE70298EC
:102D600000F03F000499096A884221D1FFE70298E8
:102D700047F6C07108400499496AB0EB811F17D12A
:102D8000FFE7029800F440300499896AC9034FF6BE
:102D9000FF729143A1F58031884209D1FFE7029883
:102DA00000F070600499C96AB0EB016F04D0FFE7CE
:102DB00001208DF8170006E0FFE7FFE7FFE700209E
:102DC0008DF81700FFE79DF8170006B080BD0000E2
:102DD00080B582B00190019801F090F802B080BDFA
:102DE00081B0009001B0704781B0009001B0704791
:102DF00085B003900291FFE7039890F83C0001280A
:102E000004D1FFE702208DF813007EE00399012032
:102E100081F83C00FFE7FFE70399022081F83D00BD
:102E200003980068406801900398006880680090EB
:102E3000019820F070000190029801680198084301
:102E4000019001980399096848600398006800217F
:102E5000C4F2010188423CD0FFE703980068B0F15A
:102E6000804F36D0FFE70398006840F20041C4F27B
:102E7000000188422DD0FFE70398006840F600016A
:102E8000C4F20001884224D0FFE70398006840F6AE
:102E90000041C4F2000188421BD0FFE7039800689C
:102EA00040F20041C4F20101884212D0FFE70398CA
:102EB000006844F20001C4F20101884209D0FFE732
:102EC0000398006841F60001C4F2000188420ED167
:102ED000FFE7009820F08000009002984168009879
:102EE000084300900098039909688860FFE70399F8
:102EF000012081F83D00FFE70399002081F83C00A4
:102F0000FFE700208DF81300FFE79DF8130005B0E0
:102F10007047000080B582B00090009820B9FFE7AC
:102F200001208DF807003FE0009890F83D0040B97F
:102F3000FFE70099002081F83C00009800F038F885
:102F4000FFE70099022081F83D00009951F8040B39
:102F500001F078F80099012081F84600FFE7009918
:102F6000012081F83E00009981F83F00009981F826
:102F70004000009981F84100FFE7FFE70099012038
:102F800081F84200009981F84300009981F84400DB
:102F9000009981F84500FFE70099012081F83D0084
:102FA00000208DF80700FFE79DF8070002B080BD04
:102FB00080B584B003900398006840F60001C4F225
:102FC000000188421BD1FFE7FFE70020029043F693
:102FD0004000C4F20200016841F004010160006891
:102FE00000F0040002900298FFE71E2001900022EA
:102FF0001146FFF73BF90198FFF72EF9FFE704B000
:1030000080BD000083B00190019890F83D00012838
:1030100004D0FFE701208DF80B006AE0019902203F
:1030200081F83D0001980168C86840F00100C8605F
:10303000019800680021C4F2010188423CD0FFE7FA
:1030400001980068B0F1804F36D0FFE70198006822
:1030500040F20041C4F2000188422DD0FFE7019800
:10306000006840F60001C4F20001884224D0FFE766
:103070000198006840F60041C4F2000188421BD06C
:10308000FFE70198006840F20041C4F20101884264
:1030900012D0FFE70198006844F20001C4F2010178
:1030A000884209D0FFE70198006841F60001C4F2A8
:1030B0000001884212D1FFE701980068806800F0A3
:1030C000070000900098062807D0FFE701980168E4
:1030D000086840F001000860FFE706E00198016819
:1030E000086840F001000860FFE700208DF80B0041
:1030F000FFE79DF80B0003B07047000080B586B075
:103100000490039100208DF80B00FFE7049890F8DD
:103110003C00012804D1FFE702208DF81700ABE046
:103120000499012081F83C00FFE7FFE704990220A1
:1031300081F83D000498006880680190019820F0B3
:1031400077000190019820F47F4001900198049944
:1031500009688860039800680090002872D0FFE733
:10316000009810286ED0FFE7009820286AD0FFE76B
:103170000098302866D0FFE70098402855D0FFE738
:103180000098502837D0FFE70098602840D0FFE72C
:10319000009870280BD0FFE70098B0F5805F05D04D
:1031A000FFE70098B0F5005F16D052E055E00498B4
:1031B0000068039B5A689968DB6801F01BF8049863
:1031C000006880680190019840F0770001900198B4
:1031D00004990968886040E004980068039B5A6875
:1031E0009968DB6801F006F804980168886840F483
:1031F0008040886031E004980068039A5168D26882
:1032000001F028F804980068502101F00DF824E03E
:1032100004980068039A5168D26801F043F8049852
:103220000068602101F000F817E004980068039A34
:103230005168D26801F00EF804980068402100F04F
:10324000F3FF0AE0049800680399096800F0ECFFB6
:1032500003E001208DF80B00FFE70499012081F8BD
:103260003D00FFE70499002081F83C00FFE79DF84E
:103270000B008DF81700FFE79DF8170006B080BD22
:1032800081B0009001B0704780B584B0039003987E
:103290000068C068029003980068006901909DF87A
:1032A00004008007002824D5FFE79DF80800800768
:1032B00000281DD5FFE7039801686FF00200086140
:1032C000039901200877039800688069800720B17E
:1032D000FFE70398FFF7D4FF06E0039800F0E2F859
:1032E000039800F0E3F8FFE7039900200877FFE771
:1032F000FFE79DF804004007002825D5FFE79DF86B
:103300000800400700281ED5FFE7039801686FF00A
:103310000400086103990220087703980068806917
:1033200010F4407F04D0FFE70398FFF7A9FF06E001
:10333000039800F0B7F8039800F0B8F8FFE7039996
:1033400000200877FFE7FFE79DF80400000700284A
:1033500024D5FFE79DF80800000700281DD5FFE7EA
:10336000039801686FF0080008610399042008774A
:1033700003980068C069800720B1FFE70398FFF752
:103380007FFF06E0039800F08DF8039800F08EF8B8
:10339000FFE7039900200877FFE7FFE79DF80400A7
:1033A000C006002825D5FFE79DF80800C0060028C4
:1033B0001ED5FFE7039801686FF0100008610399BC
:1033C0000820087703980068C06910F4407F04D093
:1033D000FFE70398FFF754FF06E0039800F062F858
:1033E000039800F063F8FFE7039900200877FFE7F0
:1033F000FFE79DF80400C00778B1FFE79DF80800DB
:10340000C00748B1FFE7039801686FF00100086149
:10341000039800F04FF8FFE7FFE79DF8040000066F
:10342000002810D5FFE79DF808000006002809D500
:10343000FFE7039801686FF0800008610398FFF7C9
:10344000CFFCFFE7FFE79DF804004006002810D5F9
:10345000FFE79DF808004006002809D5FFE703981C
:1034600001686FF040000861039800F04BF8FFE737
:10347000FFE79DF804008006002810D5FFE79DF8BF
:1034800008008006002809D5FFE7039801686FF05F
:10349000200008610398FFF7A7FCFFE7FFE704B0EF
:1034A00080BD000081B0009001B0704781B00090F5
:1034B00001B0704781B000900098006840F60001AC
:1034C000C4F2000188421BD1FFE740F21810C2F29B
:1034D00000000188013101800088B0F57A7F0EDBA1
:1034E000FFE740F21811C2F200010020088040F20C
:1034F000E221C2F20001087801300870FFE7FFE71F
:1035000001B0704781B0009001B0704780B586B0BF
:1035100004900391ADF80A20049890F84200202806
:103520004DD1FFE7039820B1FFE7BDF80A0020B9AD
:10353000FFE701208DF8170045E00499012008639A
:1035400004990020486304980399BDF80A2001F00B
:1035500083F98DF809009DF8090058BBFFE704982E
:10356000006B012821D1FFE7FFE7002001900498BC
:103570000068006801900498006840680190019814
:10358000FFE7FFE7FFE70498006850E8030F40F00B
:1035900010000090FFE700990498026842E80310C9
:1035A0000028F0D1FFE7FFE703E001208DF80900D4
:1035B000FFE7FFE79DF809008DF8170003E0022000
:1035C0008DF81700FFE79DF8170006B080BD0000DA
:1035D00080B584B00390ADF80A1040F2D021C2F259
:1035E000000108784A7840EA02206FF3DF2040F2B9
:1035F0000C12C2F20002108048788B78C00840EAB2
:1036000043106FF3DF205080887891F803C00B7966
:10361000800940EA8C0040EA83206FF3DF2090802D
:1036200008794B79400840EAC3106FF3DF20D0805F
:103630004879800910724879C0F30110907240F205
:103640004420C2F2000001901222FFF75FFF0198B0
:10365000C06B0168086820F00800086004B080BDF5
:1036600081B0009001B0704780B592B01190119870
:1036700000680068109011980068C0680F90119859
:10368000006840690E9000200D900C90109800F09A
:103690000F000D900D9888B9FFE79DF84000800657
:1036A00000280AD5FFE79DF83C008006002804D5D5
:1036B000FFE7119800F07CFFEAE1FFE70D98002892
:1036C00000F0C280FFE79DF83800C00738B9FFE777
:1036D000BDF83C0010F4907F00F0B680FFE79DF845
:1036E0004000C00758B1FFE79DF83D00C00730B16A
:1036F000FFE71199486C40F001004864FFE79DF82E
:103700004000400700280BD5FFE79DF83800C007B0
:1037100030B1FFE71199486C40F002004864FFE7C0
:103720009DF84000800700280BD5FFE79DF8380082
:10373000C00730B1FFE71199486C40F004004864BD
:10374000FFE79DF840000007002811D5FFE79DF82E
:103750003C008006002805D4FFE79DF83800C0072C
:1037600030B1FFE71199486C40F008004864FFE76A
:103770001198406C002866D0FFE79DF84000800655
:1037800000280AD5FFE79DF83C008006002804D5F4
:10379000FFE7119800F00CFFFFE7119800684069FF
:1037A000C0F380100C901198406C0007002804D4DE
:1037B000FFE70C9800283ED0FFE7119800F07EFE4E
:1037C000119800684069400600282FD5FFE7FFE701
:1037D000FFE71198006850E8050F20F040000B90BB
:1037E000FFE70B991198026842E805100028F0D114
:1037F000FFE7FFE71198C06B98B1FFE71198C16B25
:1038000044F2F920C0F6000008651198C06BFDF77E
:10381000AFFF28B1FFE71198C06B016D8847FFE744
:1038200003E01198FFF71CFFFFE703E01198FFF793
:1038300017FFFFE706E01198FFF712FF119900202C
:103840004864FFE7FFE723E11198006B012840F08F
:10385000FF80FFE79DF84000C006002840F1F88097
:10386000FFE79DF83C00C006002840F1F180FFE72B
:10387000FFE700200A901198006800680A901198EC
:10388000006840680A900A98FFE71198006840694C
:103890004006002840F18280FFE71198C06B006865
:1038A0004068ADF82600BDF82600002875D0FFE777
:1038B000BDF826001199898D88426EDAFFE7BDF8C0
:1038C00026001199C8851198C06BC069B0F5807F3A
:1038D00058D0FFE7FFE7FFE71198006850E8030FB3
:1038E00020F480700890FFE708991198026842E878
:1038F00003100028F0D1FFE7FFE7FFE7FFE711988B
:10390000006850E8050F20F001000790FFE70799D5
:103910001198026842E805100028F0D1FFE7FFE7A0
:10392000FFE7FFE71198006850E8050F20F040001E
:103930000690FFE706991198026842E805100028F2
:10394000F0D1FFE7FFE71199202081F8420011999B
:1039500000200863FFE7FFE71198006850E8030FB5
:1039600020F010000590FFE705991198026842E8E1
:1039700003100028F0D1FFE7FFE71198C06BFDF7B7
:1039800081FEFFE71199022048631198818DC28D55
:10399000891A89B2FFF71CFEFFE779E01199888D3B
:1039A000C98D401AADF812001198C08D00284ED074
:1039B000FFE7BDF81200002849D0FFE7FFE7FFE767
:1039C0001198006850E8030F20F490700390FFE70F
:1039D00003991198026842E803100028F0D1FFE72C
:1039E000FFE7FFE7FFE71198006850E8050F20F0B8
:1039F00001000290FFE702991198026842E8051061
:103A00000028F0D1FFE7FFE71199202081F842005C
:103A1000119900200863FFE7FFE71198006850E85C
:103A2000030F20F010000190FFE701991198026840
:103A300042E803100028F0D1FFE7FFE711990220C8
:103A400048631198BDF81210FFF7C2FDFFE71FE0B1
:103A50009DF84000000600280AD5FFE79DF83C00CD
:103A60000006002804D5FFE7119800F07BFF0FE067
:103A70009DF84000400600280AD5FFE79DF83C006D
:103A80004006002804D5FFE7119800F061FDFFE72C
:103A900012B080BD80B582B00090009820B9FFE7D9
:103AA00001208DF8070040E00098806908B1FFE729
:103AB00000E0FFE7009890F8410040B9FFE7009967
:103AC000002081F84000009800F034F8FFE70099EA
:103AD000242081F8410000980168C86820F4005053
:103AE000C860009800F01AFE00980168086920F488
:103AF0009040086100980168486920F02A004861F8
:103B000000980168C86840F40050C860009900201F
:103B10004864009A202182F84110009A82F84210ED
:103B2000009948638DF80700FFE79DF8070002B091
:103B300080BD000080B58CB00B9000200A900990E9
:103B40000890079006900B98006841F20001C4F2BB
:103B50000101884267D1FFE7FFE70020059043F6A7
:103B60004400C4F20200016841F0100101600068E5
:103B700000F0100005900598FFE7FFE70020049093
:103B800043F63000C4F20200016841F00201016016
:103B9000006800F0020004900498FFE7C02006903F
:103BA000022007900020029008900320099007202F
:103BB0000A9040F20040C4F2020006A9FEF7C6F8DF
:103BC000029940F29C10C2F20000039046F240427B
:103BD000C4F2020202604FF0006242608160C16084
:103BE0004FF48062026141618161C16101624162A1
:103BF000FDF770FF18B1FFE7FCF79AFDFFE7FFE75D
:103C00000B9840F29C11C2F20001C1630B988863CB
:103C1000FFE72520019000221146FEF727FB0198BF
:103C2000FEF71AFBFFE70CB080BD000081B00090EA
:103C300001B0704781B0009001B0704781B0009032
:103C400001B07047FFE7FEE780B582B040F24C104C
:103C5000C2F20000009046F20041C4F2000101608F
:103C600005214160002101918160C1604FF4C022B3
:103C700002614161017641768176C17601774177B3
:103C8000FDF70AFA18B1FFE7FCF752FDFFE702B0B3
:103C900080BD000080B582B040F27410C2F2000016
:103CA000009046F60001C4F2000101600521416068
:103CB000002101918160C1604FF4C0220261416125
:103CC0000176012242768176C17601774177FDF750
:103CD000E3F918B1FFE7FCF72BFDFFE702B080BD69
:103CE00080B582B0FFE70020019043F63000C4F2B7
:103CF0000200016841F480010160006800F4800066
:103D000001900198FFE73A20009000221146FEF74B
:103D1000ADFA0098FEF7A0FA02B080BD84B0FFE7CC
:103D20000020039043F63000C4F20200016841F025
:103D300001010160006800F0010003900398FFE7B3
:103D4000FFE70020029043F63000C4F20200016851
:103D500041F002010160006800F002000290029848
:103D6000FFE7FFE70020019043F63000C4F20200B5
:103D7000016841F008010160006800F0080001904E
:103D80000198FFE7FFE70020009043F63000C4F2FF
:103D90000200016841F080010160006800F08000CD
:103DA00000900098FFE704B07047000080B588B02D
:103DB00000210191079106910591049103910291CF
:103DC00040F2FC10C2F2000040F60002C4F2000211
:103DD000026044F24F624260816040F2E732C260AA
:103DE000016180218161FFF795F818B1FFE7FCF7C9
:103DF0009FFCFFE74FF48050049040F2FC10C2F2A9
:103E0000000004A9FFF77AF918B1FFE7FCF790FC6E
:103E1000FFE700200290039040F2FC10C2F2000085
:103E200002A9FEF7E5FF18B1FFE7FCF781FCFFE709
:103E300008B080BD80B582B040F24420C2F20000DC
:103E4000019041F20001C4F20101016048F2A06159
:103E5000C0F2010141604FF4805181600021C160D6
:103E60004FF4806202610C2242618161C161FFF7FF
:103E700011FE18B1FFE7FCF75BFCFFE702B080BD65
:103E8000FFE7FEE7FFE7FEE788B00790069105929F
:103E9000079800F0070004900498C0F10700052877
:103EA00003D3FFE70420019004E00498C0F1070069
:103EB0000190FFE70198039004980430062803D886
:103EC000FFE70020009003E0049803380090FFE72C
:103ED0000098029006980399012202FA01F1013933
:103EE0000840029B984005999A40013A11400843C6
:103EF00008B07047704700007047000080B582B07E
:103F0000009000980138B0F1807F03D3FFE70120D3
:103F1000019019E0009801384EF21401CEF2000130
:103F200008604FF0FF300F2100F090FD4EF21801B5
:103F3000CEF20001002008604EF21002CEF2000224
:103F4000072111600190FFE7019802B080BD0000D9
:103F500080B5FEF7F9F880BD80B594B008A830218F
:103F6000FCF722FA00200790069005900490039039
:103F7000FFE70020029043F64000C4F2020001680F
:103F800041F080510160006800F08050029002987A
:103F9000FFE7FFE70020019047F20000C4F20000B5
:103FA000016841F440410160006800F44040019024
:103FB0000198FFE70220089001210B9110210C913C
:103FC0000E9000210F9108211091B42111911290AF
:103FD0000420139008A8FEF79BFB18B1FFE7FCF73D
:103FE000A7FBFFE7FEF764F918B1FFE7FCF7A0FBBA
:103FF000FFE70F20039002200490002005904FF46B
:10400000A05006904FF48050079003A80521FEF7BA
:10401000AFF918B1FFE7FCF78BFBFFE714B080BDE9
:104020004EF68851CEF20001086840F47000086036
:104030007047000080B540F2FC10C2F20000FFF7AC
:1040400023F980BD83B0029001910298006800902E
:1040500002980021C4F20101884225D0FFE70298AE
:10406000B0F1804F20D0FFE7029840F20041C4F247
:104070000001884218D0FFE7029840F60001C4F220
:104080000001884210D0FFE7029840F60041C4F2D8
:104090000001884208D0FFE7029840F20041C4F2D4
:1040A000010188420AD1FFE7009820F070000090DB
:1040B00001984168009808430090FFE702980021AA
:1040C000C4F20101884255D0FFE70298B0F1804F59
:1040D00050D0FFE7029840F20041C4F2000188424C
:1040E00048D0FFE7029840F60001C4F20001884280
:1040F00040D0FFE7029840F60041C4F20001884238
:1041000038D0FFE7029840F20041C4F20101884232
:1041100030D0FFE7029844F20001C4F20101884266
:1041200028D0FFE7029844F20041C4F2010188421E
:1041300020D0FFE7029844F60001C4F20101884252
:1041400018D0FFE7029841F60001C4F2000188424E
:1041500010D0FFE7029841F60041C4F20001884206
:1041600008D0FFE7029842F20001C4F20001884241
:104170000AD1FFE7009820F4407000900198C168D0
:10418000009808430090FFE7009820F08000019914
:104190004969084300900098029908600198806876
:1041A0000299C86201980068029988620298002109
:1041B000C4F20101884208D0FFE7029840F20041B2
:1041C000C4F20101884205D1FFE701980069029914
:1041D0000863FFE702990120486102980069C0075F
:1041E00030B1FFE70299086920F001000861FFE79C
:1041F00003B0704785B00490039102920193049834
:1042000080680090009820F47F4000900398029905
:10421000019A41EA02210143009808430090009866
:104220000499886005B0704783B0029001910298AC
:1042300080680090009820F070000090019800992C
:10424000084340F00700009000980299886003B08E
:104250007047000085B00490039102920498006AB0
:1042600000900499086A20F00100086204988069AF
:104270000190019820F0F00001900299019840EA25
:1042800001100190009820F00A0000900399009816
:104290000843009001980499886100980499086285
:1042A00005B0704785B00490039102920498006AAB
:1042B00000900499086A20F0100008620498806950
:1042C0000190019820F4704001900299019840EA11
:1042D00001300190009820F0A00000900399009810
:1042E00040EA0110009001980499886100980499AF
:1042F000086205B07047000080B582B00190019857
:10430000806B009000990020C8850099C8840098AF
:10431000FFF7A6F902B080BD80B584B003900020FD
:1043200002900398806B0190019800684069C0B2C8
:10433000C0090290019890F8410021280AD1FFE7B6
:10434000029838B1FFE701990020C884019800F075
:1043500013F9FFE7019800684069C0F380100290EC
:10436000019890F8420022280AD1FFE7029838B15C
:10437000FFE701990020C885019800F09FF8FFE74A
:104380000199486C40F0100048640198FFF768F903
:1043900004B080BD80B586B005900598806B049010
:1043A000059800680068C00500285AD4FFE7049902
:1043B0000020C885FFE7FFE70498006850E8030F76
:1043C00020F480700390FFE703990498026842E8A4
:1043D00003100028F0D1FFE7FFE7FFE7FFE70498AD
:1043E000006850E8050F20F001000290FFE70299F5
:1043F0000498026842E805100028F0D1FFE7FFE7C3
:10440000FFE7FFE70498006850E8050F20F0400040
:104410000190FFE701990498026842E8051000281E
:10442000F0D1FFE7FFE70499202081F842000498CB
:10443000006B012814D1FFE7FFE7FFE7049800684D
:1044400050E8030F20F010000090FFE70099049857
:10445000026842E803100028F0D1FFE7FFE7FFE71A
:10446000FFE70499002048630498006B012805D1F8
:10447000FFE70498818DFFF7ABF803E00498FFF79E
:10448000D5FBFFE706B080BD80B582B001900198F2
:10449000806B00900099012048630098006B012810
:1044A00006D1FFE70098818D4908FFF791F803E0F6
:1044B0000098FFF7BFFBFFE702B080BD84B0039018
:1044C000FFE7FFE70398006850E8030F20F49070BF
:1044D0000290FFE702990398026842E8031000285F
:1044E000F0D1FFE7FFE7FFE7FFE70398006850E838
:1044F000050F20F001000190FFE701990398026881
:1045000042E805100028F0D1FFE7FFE70398006BB1
:10451000012814D1FFE7FFE7FFE70398006850E8A0
:10452000030F20F010000090FFE700990398026845
:1045300042E803100028F0D1FFE7FFE7FFE7039907
:10454000202081F8420003990020086304B07047DE
:1045500080B582B0019001980168C86820F04000E1
:10456000C8600199202081F841000198FFF766FB9F
:10457000002002B080BD000082B00190FFE7FFE79D
:104580000198006850E8030F20F0C0000090FFE79A
:1045900000990198026842E803100028F0D1FFE773
:1045A000FFE70199202081F8410002B07047000028
:1045B00080B586B00490049890F84200222840F01C
:1045C000A480FFE704988068B0F5805F15D1FFE70D
:1045D0000498006988B9FFE7002003900498806A76
:1045E00002900498006840686FF35F200299088089
:1045F0000499886A0230886225E00498806A0390F2
:104600000020029004988068B0F5805F08D0FFE732
:104610000498806850B9FFE70498006930B9FFE753
:104620000498006840680399087007E004980068DF
:10463000406800F07F0003990870FFE70499886ADA
:1046400001308862FFE70499C88D0138C8850004ED
:10465000002856D1FFE704980168C86820F02000C0
:10466000C86004980168C86820F48070C860049825
:104670000168486920F0010048610499202081F810
:1046800042000499002048630498006B012830D14F
:10469000FFE7049900200863FFE7FFE7049800683C
:1046A00050E8030F20F010000190FFE701990498F3
:1046B000026842E803100028F0D1FFE7FFE7049802
:1046C00000680068C00600280ED5FFE7FFE700205D
:1046D00000900498006800680090049800684068A2
:1046E00000900098FFE7FFE70498818DFEF770FFC8
:1046F00003E00498FFF79AFAFFE700208DF817000F
:1047000007E000208DF8170003E002208DF8170065
:10471000FFE79DF8170006B080BD000080B586B0A9
:10472000059005980068006920F44050059A1168CA
:10473000D26810430861059988680B694A69C9699C
:10474000184310430843049005980068C06849F274
:104750000C6188430499084305990968C860059865
:104760000068406920F44070059A1168926910430E
:1047700048610598006841F20001C4F201018842D5
:1047800009D0FFE70598006841F20041C4F2010139
:10479000884204D1FFE7FDF735FF039003E0FDF702
:1047A0001FFF0390FFE70598C069B0F5004F29D1BE
:1047B000FFE703981921A0FB0101059A13680293F2
:1047C00053685A00DB0FFBF777FD0299864648F2E3
:1047D0001F53C5F2EB13AEFB0320420910014FF04B
:1047E000640C02FB1CEC322202EBCC02A2FB033273
:1047F000F82303EA521300EB4300C2F342121044C1
:10480000886026E003981921A0FB0101059A13682E
:10481000019353689A009B0FFBF74EFD0199844664
:1048200048F21F52C5F2EB12ACFB02304309642080
:1048300003FB10CC322000EB0C10A0FB0202F02096
:1048400000EA521000EB0310C2F3431210448860D8
:10485000FFE706B080BD000080B588B007900691E4
:10486000ADF81620069807998862BDF816000799DA
:104870008885079900204864079A222182F842100F
:104880000799CA6B44F29531C0F60001D1630799CC
:10489000CA6B44F28941C0F6000111640799CA6BE2
:1048A00044F21931C0F60001D1640799C96B08655B
:1048B00006A8049007980168C06B0431049A126836
:1048C000BDF81630FDF7BEF9FFE70020039007980A
:1048D0000068006803900798006840680390039898
:1048E000FFE707980069A0B1FFE7FFE7FFE7079838
:1048F000006850E8030F40F480700290FFE70299CF
:104900000798026842E803100028F0D1FFE7FFE7AC
:10491000FFE7FFE7FFE70798006850E8050F40F062
:1049200001000190FFE701990798026842E805102D
:104930000028F0D1FFE7FFE7FFE7FFE707980068EF
:1049400050E8050F40F040000090FFE700990798FD
:10495000026842E805100028F0D1FFE7FFE70020D9
:1049600008B080BD83B00190019890F841002128E3
:104970003AD1FFE701988068B0F5805F13D1FFE777
:104980000198006978B9FFE70198006A00900098E3
:1049900000886FF35F200199096848600199086AEF
:1049A0000230086208E0019A106A411C1162007826
:1049B000019909684860FFE70199C88C0138C884EB
:1049C000000468B9FFE701980168C86820F080001A
:1049D000C86001980168C86840F04000C860FFE7FF
:1049E00000208DF80B0003E002208DF80B00FFE79C
:1049F0009DF80B0003B0704780B540F24420C2F22E
:104A00000000FEF731FE80BDFFE7FEE781B08DF8C4
:104A100003009DF9030000280ED4FFE79DF9031061
:104A200001F01F02012090404A094EF20011CEF21F
:104A3000000141F82200FFE701B070474EF60C502C
:104A4000CEF200000068C0F30220704782B08DF8FB
:104A5000070000919DF9070000280AD4FFE700989D
:104A600000019DF907104EF20042CEF20002885478
:104A70000BE0009800019DF8071001F00F014EF6C1
:104A80001452CEF200028854FFE702B070470000D3
:104A900083B00290029800F0070000904EF60C518F
:104AA000CEF200010868019001984FF6FF02104015
:104AB00001900198009A40EA02200022C0F2FA52C6
:104AC000104301900198086003B0704780B596B01C
:104AD00040F24C10C2F20000FCF772FD00208DF88D
:104AE0002F00FFE79DF82F000D281DDCFFE70121B7
:104AF00014910020129013910C900D900E900F9035
:104B00009DF82F10119110900E20159040F24C102E
:104B1000C2F200000CA9FBF7E5FEFFE79DF82F00AD
:104B200001308DF82F00DDE740F24C10C2F200009A
:104B30000221FBF701FE40F27410C2F20000009067
:104B4000FCF73EFD0098012209920021079108928E
:104B500001910291039104910E21069105920A910F
:104B600001A9FBF7BFFE00981021FBF7E5FD16B089
:104B700080BD0000F0B585B0049203910290012041
:104B8000ADF80600ADF80400ADF80200BDF80E0067
:104B9000A0F5806040F24611C2F200010880BDF825
:104BA0000C00A0F5806040F24411C2F200010880C0
:104BB0009DF8120001280AD1FFE7BDF80800A0F512
:104BC000806040F24811C2F200010880FFE79DF8C2
:104BD0001200032807D1FFE740F24811C2F200019A
:104BE00000200880FFE740F29400C2F2000090F934
:104BF00000104942BDF8062040F2461CC2F2000CEB
:104C0000BCF800305B4202FB03FEBDF8042040F21A
:104C10004414C2F20004238802FB13E240F248135A
:104C2000C2F20003B3F800E0A2EB0E024A4340F2E6
:104C30003C11C2F200010A8090F900205242BDF8F6
:104C400006E0BCF800500EFB05F6BDF804E0258830
:104C50000EFB156E1D88AEEB050E02FB0EF24A80B0
:104C600090F900205242BDF806E0CEF1000EBCF8EB
:104C70000050BDF8046027887E430EFB056E1D883A
:104C8000AEEB050E02FB0EF28A8090F90000404266
:104C9000BDF806205242BCF800C0CCF1000CBDF8B3
:104CA00004E024880EFB04FE02FB0CE21B88D21AEF
:104CB0005043C88005B0F0BD80B584B0002003909B
:104CC000FDF750FAFFF748F9FFF728F8FFF708F863
:104CD000FEF7E0FFFFF7AEF8FFF768F8FEF7B4FF66
:104CE00040F2FC10C2F2000002686FF00101116195
:104CF000FEF788F940F24C10C2F20000FCF760FCAD
:104D0000FFF7E4FE40F27410C2F20000FCF758FC1A
:104D100040F24420C2F20000029040F2D021C2F2E0
:104D200000011222FEF7F2FB0298C06B01680868CE
:104D300020F008000860FFE740F20C12C2F2000207
:104D40000192106851689268FFF714FF0198807A09
:104D5000022807D1FFE70023184619461A46FBF739
:104D600099FBFFE740F20C10C2F20000807A0328A2
:104D700017D1FFE740F23C10C2F20000018840F278
:104D80009602C2F200021180418851808188918090
:104D9000C188D18040F28C21C2F20001FBF7B6FB42
:104DA000FFE740F20C10C2F20000807A01280BD11C
:104DB000FFE740F23C10C2F2000040F28C21C2F248
:104DC0000001FBF7A3FBFFE70220FCF79DFFB3E721
:104DD00085B00490ADF80E10ADF80C200499088A47
:104DE0004882BDF80C00BDF80E10401A04990882E4
:104DF0000498008AADF80A000498408AADF80800CB
:104E0000049890ED000AB0F9100001EE100AB8EE17
:104E1000C11A20EE010ABDEEC00A10EE100AADF86C
:104E20000600BDF9060000EE100AB8EEC00A0498AC
:104E300080ED050A049991ED010AB1F9100001EE27
:104E4000100AB8EEC12AB1F9180001EE100AB8EE46
:104E5000C11A20EE020A30EE010ABDEEC00A10EEC1
:104E6000100A08830498008BADF804000498B0F988
:104E70000C10B0F91800884204DDFFE70499888916
:104E800008830EE00498B0F90C10B0F918004942FC
:104E9000884205DAFFE70499888940420883FFE7E2
:104EA000FFE7049991ED020AB1F91000B1F912106F
:104EB000401A01EE100AB8EEC11A20EE010ABDEE4A
:104EC000C00A10EE100AADF80200BDF9020000EEB3
:104ED000100AB8EEC00A049880ED070ABDF8060073
:104EE000BDF80210401A0499098B0844ADF800007F
:104EF000BDF8000004990884BDF9000005B07047B2
:104F0000F1EE100A4FF6FF71C0F2C03120EA010045
:104F100040F04070E1EE100A704700000000000011
:104F20000000010203040607080900000000010256
:104F3000030400061016000610160000604F00085B
:104F400000000020A800000010020008085000081F
:104F5000A800002040080000300200080000000007
:104F60000024F4000000A0409A99193E00000000BF
:104F700000100050000000000000000000000000D1
:104F800000000000000000000000A0409A99193EB7
:104F900000000000001000500000000000000000B1
:104FA0000000000000000000000000000000A04021
:104FB0009A99193E00000000001000500000000007
:104FC00000000000000000000000000000000000E1
:104FD0000000A0409A99193E000000000010005007
:104FE00000000000000000000000000000000000C1
:104FF000000000000300D007D007D007D007010051
:08500000100000000000000098
:04000005080001AD41
:00000001FF
