:020000040800F2
:10000000E009002055020008CD2D0008AD2B0008A6
:10001000C92D00084D040008DD3400080000000070
:10002000000000000000000000000000D52D0008C6
:10003000FD05000800000000D12D0008D92D0008A2
:100040006F0200086F0200086F0200086F020008CC
:100050006F0200086F0200086F0200086F020008BC
:100060006F0200086F0200086F0200086F020008AC
:10007000F10500086F0200086F0200086F02000817
:100080006F0200086F0200086F0200086F0200088C
:10009000510400086F0200086F0200086F02000898
:1000A0006F0200086F0200086F0200086F0200086C
:1000B000992E00086F0200086F0200086F02000806
:1000C0006F0200086F0200086F0200086F0200084C
:1000D0006F0200086F0200086F020008D1340008A8
:1000E0006F0200086F0200086F0200086F0200082C
:1000F0006F0200086F0200086F0200086F0200081C
:100100006F0200086F0200086F0200086F0200080B
:100110006F0200086F0200086F0200086F020008FB
:100120006F0200086F0200086F0200086F020008EB
:100130006F0200086F0200086F0200086F020008DB
:100140006F0200085D0400086F0200086F020008DB
:100150006F0200086F0200086F0200086F020008BB
:100160006F0200086F0200086F0200086F020008AB
:100170006F0200086F0200086F0200080000000014
:100180006F0200086F02000800F002F800F052F859
:1001900014A696E8000CB244B344DA4501D100F04D
:1001A00049F8BAE80F000FA696E83000A5EB040561
:1001B00004EB0607AAEB0704A7F101074FEA1515A0
:1001C0004FEA3414A4F10104AC4201D300F032F838
:1001D00013F0010F18BFFB1A43F0010300F001F800
:1001E000DBE71847C83E0000E83E0000103A24BF95
:1001F00078C878C1FAD8520724BF30C830C144BF8C
:1002000004680C6070470000704700000023002461
:1002100000250026103A28BF78C1FBD8520728BF16
:1002200030C148BF0B6070471FB503F01CFF1FBDF6
:1002300010B510BD00F0D4F81146FFF7F5FF03F03C
:10024000D9FA00F0F2F803B4FFF7F2FF03BC00F0B4
:10025000F5F800000948804709480047FEE7FEE737
:10026000FEE7FEE7FEE7FEE7FEE7FEE7FEE7FEE766
:1002700004480549054A064B70470000852E0008D2
:1002800089010008E0030020E0090020E0050020CB
:10029000E005002053EA020C00F069802DE9F04BE4
:1002A0004FF00006002B1FBFB3FA83F503FA05F4E5
:1002B00024FA05F65E4012BF1643B2FA82F502FA3E
:1002C00005F4C5F120051EBF22FA05FC44EA0C0422
:1002D000203556EA044C4FEA144418BF641C4FF012
:1002E00000084FF00009904271EB030C39D300294C
:1002F00019BFB1FA81F701FA07F6B0FA80F700FAF0
:1003000007F6C7F120071EBF20FA07FC46EA0C06D5
:100310002037B6FBF4FCA7EB0507103F07F01F0BD7
:10032000CBF120062CFA06F60CFA0BFB44BFB346C1
:100330000026202FA4BF5E464FF0000B5BEA060CA0
:1003400008BF4FF0010B19EB0B0948EB0608ABFB9C
:10035000027C06FB02CC0BFB03CCC01B71EB0C0137
:10036000C1E70B46024641464846BDE8F08B13B54F
:10037000084318BF4FF0FF300146AFF30080BDE8DF
:100380001C4070474FF0000200B513469446964655
:10039000203922BFA0E80C50A0E80C50B1F1200198
:1003A000BFF4F7AF090728BFA0E80C5048BF0CC046
:1003B0005DF804EB890028BF40F8042B08BF7047A4
:1003C00048BF20F8022B11F0804F18BF00F8012B16
:1003D000704770477047704700487047F000002032
:1003E0007546FFF7F9FFAE4605006946534620F013
:1003F0000700854618B020B5FFF73AFFBDE820405A
:100400004FF000064FF000074FF000084FF0000BD0
:10041000AC46ACE8C009ACE8C009ACE8C009ACE83F
:10042000C00921F007018D46704710B50446AFF3AF
:1004300000802046BDE81040FFF705BF01491820A5
:10044000ABBEFEE72600020070470000FEE700009A
:1004500040F29C20C2F2000000F04ABA40F2C420F0
:10046000C2F2000000F044BAB0B582B0A0EB214364
:1004700014460246B3F5805F4FEA214002DD00F5E5
:10048000005005E013F5805FB4BFA0F50050080CE4
:1004900040F2C005C2F2000501B2284603F030FA6E
:1004A000024621B2284603F02BFA40F25421C2F250
:1004B000000140F2FE2241F8182F08230B6140F2A0
:1004C000BC130022C2F20003C1E90222020A83F82F
:1004D000250040F29C2083F8242003F12002C2F280
:1004E000000001AB00F0A8F802B0B0BD2DE9F0416A
:1004F00082B040F230080F46B1F90410B0F9002084
:10050000C2F200080646404603F0FAF9B7F90E10A9
:10051000B6F90220044608F1240003F0F1F9B7F916
:100520001810B6F90420054608F1480003F0E8F970
:10053000B7F92210B6F90620064608F16C0003F060
:10054000DFF940F2BC11C2F200014FF4007241F831
:10055000582F00220823C1E902220B61230A0A4610
:1005600002F8483D2B0A01F8463C330A01F8443CA6
:10057000030A01F8410C40F2C42001F8423CC2F2E7
:10058000000001AB01F8474C01F8455C01F8436CF1
:1005900000F052F802B0BDE8F081000080B582B0F2
:1005A000034640F20C0011B2C2F200001A4603F0FA
:1005B000A7F940F25421C2F20001082340F2FF12D1
:1005C0000B6140F2BC130A600022C2F20003C1E9D1
:1005D0000222020A587740F29C201A7703F118028F
:1005E000C2F2000001AB00F027F802B080BD0000AD
:1005F00040F2EC20C2F2000000F0F2BC70470000B4
:1006000072B600BFFEE7000090F82020013A012AF0
:1006100008D8006800F11402002013681943116023
:10062000704700BF00F1240201204FF480211368BD
:10063000194311607047000010B590F820E0D0F821
:1006400000C0AEF1010EBEF1010FDCF808E011D8D8
:100650001EF0E05F18D0CEF301640120A0401860C6
:100660008B68DBB1D1F804E0C86840EACE0040EA0C
:10067000030E17E000F1240301204FF480211A68D3
:100680001143196010BD00BF00F1240301204FF495
:1006900000111A681143196010BD00BF0868CB68CB
:1006A00043EA405E0CF5C07000EB0413240140F8EF
:1006B00004E00C69184640F8044F097D012903D174
:1006C000016841F48071016050680121D8601068B0
:1006D000986000201A681143196010BD90F820201E
:1006E000013A012A30D8B0B546F20060C4F20000E9
:1006F000026842F001020260026822F47C52026049
:10070000D1F814E0CC694A6A0368012C43EA02225A
:1007100002600EF01F024FF0010303FA02F2C369F8
:100720006FEA020C23EA0203C36113D02CBBC36837
:1007300003EA0C03C360CB688C8844EA034300EBF4
:10074000CE0423640B4611E0416A41F480214162EA
:1007500001207047C3681343C3600B688C8844EA68
:10076000034300EBCE04236401F10C038C681B8867
:1007700043EA044300EBCE04636443688D6943EAB3
:100780000204D1F810E0096A002D08BF03EA0C0446
:1007900044604369BEF1000F43EA020408BF03EA64
:1007A0000C040129446102D1C1691143C16101688E
:1007B00021F0010101600020B0BD00007047000081
:1007C000B0B590F82040013C012C7DD8D0F800C095
:1007D00000290CBFDCF80C40DCF81040A4077DD0E9
:1007E0000CF5D8754FEA011C55F80C4014F00404C0
:1007F000946055F80CE005EB011C19BF4FEADE05CB
:1008000055604FEA5E551560DCF80050E64605F08D
:100810000205D5605EF8044F24075ABFDEF8004099
:1008200004F00F0408241461DEF800400029C4F32A
:1008300007249461DEF800504FEA15455561DCF855
:1008400008201A70026802EB0112D2F8B8214FEAB0
:1008500012225A70026802EB0112D2F8B8214FEA54
:1008600012429A70026802EB0112D2F8B8214FEAE4
:100870001262DA70026802EB0112D2F8BC211A711E
:10088000026802EB0112D2F8BC214FEA12225A711F
:10089000026802EB0112D2F8BC214FEA12429A71AF
:1008A000026802EB0112D2F8BC214FEA1262DA713F
:1008B00000680CBF00F10C0100F1100100202022A3
:1008C0000B681A430A60B0BD00F1240101204FF407
:1008D00080220B681A430A60B0BD00BF00F12401FA
:1008E00001204FF400120B681A430A60B0BD0000EB
:1008F0002DE9F04F81B0044600684669D0F80490B5
:100900008768D0F80CB0D0F810A0D0F81880F107A4
:1009100004D1002530071DD424E000BFF90710D012
:100920000121BA07816009D4780700F1AF80380748
:1009300000F1B680204600F0EBFA02E0204600F01D
:10094000E9FA0025F80500F18780F80300F1B1808D
:10095000300707D51BF0100004D0206845F400755F
:100960001021C160700708D51BF0080005D0206871
:100970000821C160204600F0F5F9B00706D52068CF
:10098000C068800702D0204600F0EEF9700607D557
:100990001AF0100004D0206845F480651021016130
:1009A000B00608D51AF0080005D0206808210161BA
:1009B000204600F00FFAF00606D52068006980078F
:1009C00002D0204600F008FAB00308D519F0100054
:1009D00005D0206810214160204600F069FAF0033C
:1009E00008D519F0080005D020680821416020468C
:1009F00000F09AFA300440F19B805FEA497040F1C0
:100A0000948006F4807008EA102028435FEA887119
:100A1000014648BF41F00201B20558BF01465FEAF6
:100A200048700D4648BF45F00405700558BF0D4697
:100A3000300540F17A8018F0700000F076801038B0
:100A4000000905286CD8DFE800F003655D6159698D
:100A500045F0080564E000BF20684FF48071BA05D6
:100A600081600BD4780515D438051DD4204600F0DC
:100A700053FAF8037FF56CAF1BE000BF204600F08F
:100A80004DFAF8037FF564AF13E000BF4FF4006543
:100A900058E700BF05F50055F8037FF559AF08E0AA
:100AA0004FF480554EE700BF05F58045F8037FF50C
:100AB0004FAF20684FF48031BA0381600AD47803C5
:100AC00010D4380314D4204600F02AFA30073FF53A
:100AD00041AF47E7204600F025FA30073FF53AAF2F
:100AE00040E700BF05F5004530073FF533AF39E774
:100AF00005F5803530073FF52DAF33E745F080052C
:100B00000EE000BF45F020050AE000BF45F04005BB
:100B100006E000BF45F0100502E000BF45F4807517
:100B20002068816921F070018161206804214160A1
:100B300055B1606A40EA05012046616201B0BDE836
:100B4000F04FFFF73BBE00BF01B0BDE8F08F0000E3
:100B5000002804BF01207047B0B5044690F820007B
:100B600010B9204600F06EF82068016841F00101DC
:100B7000016000F005FD054620684168C90705D100
:100B800000F0FEFC401B0B28F6D310E0016821F0BA
:100B90000201016000F0F4FC054600BF20684168D6
:100BA00089070DD500F0ECFC401B0B28F6D3606ADA
:100BB000052140F400306062012084F82010B0BDAF
:100BC000217E0268012922F0800208BF8032026083
:100BD000617E0268012922F0400208BF40320260B3
:100BE000A17E0268012922F0200208BF20320260A3
:100BF000E17E0268012922F0100218BF1032026063
:100C0000217F0268012922F0080208BF0832026031
:100C1000617F0268012922F0040208BF04320260E9
:100C2000D4E901C2D4E9033561691A432A43114367
:100C3000ACF101021143C16100200121606284F81E
:100C40002010B0BD10B586B0006846F60002C4F2B0
:100C5000000200219042CDE90411CDE90211019179
:100C600034D046F20041C4F20001884277D140F20C
:100C70008421C2F200010A6843F64000C4F2020077
:100C8000531C0B6052B900210091016841F00071C2
:100C90000160016801F0007100910099002100914C
:100CA00050F8101C142441F0080140F8101C50F8B2
:100CB000100C032100F008000090009840F2004062
:100CC000C4F2020000F5006035E000BF43F64000CA
:100CD000C4F202000091016841F080610160016886
:100CE00001F080610091009940F28421C2F200017C
:100CF0000A68531C0B6052B900210091016841F051
:100D000000710160016801F00071009100990021FB
:100D1000009150F8101C412441F0020140F8101CD1
:100D200050F8100C602100F002000090009840F292
:100D30000040C4F2020001910221029100210391BE
:100D4000032104910921059101A900F043FB2046EC
:100D50000021002200F096FC204600F081FC06B045
:100D600010BD00007047000080B58AB040F29C20A2
:100D7000C2F2000003AA01AB0021FFF721FD039896
:100D800040F20B23984209D040F2072398421ED12B
:100D900040F26812C2F2000204E000BF40F25C12AE
:100DA000C2F2000202F1080C111D22F8023BBDF84C
:100DB0000430BDF806001BBA1B0C138000BABDF846
:100DC0000820000C088010BA000CACF800000AB033
:100DD00080BD00007047000010B58AB040F2C4200A
:100DE000C2F2000003AA01AB0121FFF7E9FC03985E
:100DF000B0F58A7F36D19DF807109DF8082040F2A3
:100E000088240901BDF80500C2F200049DF80930EC
:100E100041EA1211618002F00F0100BA43EA012198
:100E2000000CA180BAEE090AF2EE090A1021208016
:100E300002F0B2FD608884ED020A9FED1B0ADFED2F
:100E40001B0A0C2102F0A8FDA08884ED030ABBEE6A
:100E5000020AF3EE020A0C2102F09EFD84ED040A60
:100E60000AB010BD0021CFF6FF5101EB00410A147A
:100E700002EBA13140F29212C2F2000222F81100FC
:100E8000BDF8040002EB410100BABDF80620000CD9
:100E9000488010BABDF80820000C888010BA000CF9
:100EA00008810AB010BD00BF000034C20000344207
:100EB00070470000B0B5044690F8200001281DD10D
:100EC000022084F820002068016821F001010160FF
:100ED00000F056FB054600BF20684068C00713D0ED
:100EE00000F04EFB401B0B28F6D3606A40F4003044
:100EF0006062052084F820000120B0BD606A40F4E3
:100F0000002060620120B0BD00206062B0BD000022
:100F100070470000704700007047000070470000F5
:100F200070470000704700007047000070B5866D84
:100F3000044600F025FB94F83510022928D1054617
:100F40002068216C026822F016020260426922F0D9
:100F50008002426109B9A16C19B1016821F0080150
:100F60000160016821F00101016000BF2068006894
:100F7000C00715D000F004FB401B0628F6D3202044
:100F80006065032084F83500002184F8341070BDBA
:100F9000802060650120002184F8341070BD00BFFE
:100FA000E06D3F2101FA00F0B060012084F83500C7
:100FB0000020002184F8341070BD000090F8351036
:100FC000022909D1052180F835100068016821F057
:100FD00001010160002070478021416501207047B8
:100FE000F0B581B00021009140F20801C2F2000189
:100FF0000B68D0E9166148F2B51537680822C1F6CA
:101000004E358A403A42A3FB05350CD003681C6874
:10101000640708D51C6824F004041C60B260426DAB
:1010200042F00102426501228A403A4208D0036838
:101030005B691B0604D5B260426D42F00202426554
:1010400004228A403A4208D003681B689B0704D5F3
:10105000B260426D42F00402426510228A403A4278
:1010600019D001680B681B0715D5B2600B680A68B8
:101070005B0309D4D20509D40A6822F008020A6089
:10108000016C29B907E000BF110341D4016C11B113
:10109000044688472046C26D202101FA02F33B42F4
:1010A00043D001680F68FF063FD5B36090F83570F4
:1010B0000B68052F1CD123F016030B604B6923F03E
:1010C00080034B61036C0BB9836C1BB10B6823F07D
:1010D00008030B603F219140B160012180F8351079
:1010E000016D0022002980F8342054D158E000BF5F
:1010F0000A685B0310D4D20512D40A6822F01002E9
:101100000A60012180F83510002180F8341007E0D2
:10111000816C0029BCD1BEE7110301D4416C00E011
:10112000C16B11B1044688472046416DC1B3416D82
:10113000C9072ED0052180F835100168AA0A0B686E
:1011400023F001030B60009B0133934200931AD8F4
:101150000B68DB0717D0009B01339342009312D832
:101160000B68DB070FD0009B0133934200930AD832
:101170000B68DB0707D0009B01339342009302D832
:101180000B68DB07DFD1012180F83510002180F8E2
:101190003410C16C21B101B0BDE8F040084700BF78
:1011A00001B0F0BD2DE9F041044600F0E9F9ECB1E1
:1011B0000546022084F835000020216884F83400B8
:1011C000086820F00100086021680868C00711D095
:1011D00000F0D6F9401B0528F6D90325202303206B
:1011E000636584F83550BDE8F08100BF0120BDE89B
:1011F000F08100BF086848F23F02CFF21002D4E944
:10120000013500EA020C04F10C0898E8C10143EA38
:101210000C032B431843D4E9072E304338431043C3
:10122000626A40EA0E00042A40EA08031CD1206BDF
:10123000D4E90A2E40EA0E00184308604869BEF15E
:10124000000F20F0030040EA020040F0040C11D02F
:10125000B8F5005F36D0B8F1000F45D1022A46D06C
:10126000012A3BD032B942E00B60486920F0070008
:1012700040EA020C01F0F8004AF6AB221038CAF638
:10128000AA22A0FB02231A0944F2A203C1F814C047
:10129000C0F600039A5C40F2FF335F284FF03F0036
:1012A00021EA030100FA02F088BF0431C4E91612F2
:1012B0008860002301250020636584F83550BDE86F
:1012C000F08100BF032AD5D8012540230120DFE8A3
:1012D00002F0030E030500BF82E700BFAEF1C0704D
:1012E000B0FA80F0400904E0032A04D3C2D1CEF35F
:1012F00000600028BED0012540230120636584F8EA
:101300003550BDE8F081000090F834C0BCF1010F09
:1013100004BF0220704770B54FF0010C80F834C054
:10132000D0F858E090F835C0BCF1010F38D14FF03B
:10133000020C80F835C04FF0000CC0F854C0D0F853
:1013400000C08468056CC06DDCF80060402C26F499
:101350008026CCF80060CCF804300B4604BF13465E
:101360000A463F2101FA00F0CCF80830CCF80C20F6
:10137000CEF80800DCF8000040F01600CCF80000C1
:101380002DB1DCF8000040F00800CCF80000DCF8DB
:10139000000040F00100CCF80000002070BD00BF4C
:1013A000002180F83410022070BD0000B0B5044662
:1013B00000F0E6F8054640F20000C2F200000078B6
:1013C000611C18BF044400BF00F0DAF8401BA042C3
:1013D000FAD3B0BD2DE9F04F83B000F1200200F147
:1013E0003E4741F60045009207F1FF77C4F202053F
:1013F00008224FEAB726A84208BF072200254FF06F
:1014000000084FF00009072E38BF4FEAB7220192BB
:101410000AE000BF09F1010908F10208B9F1100F53
:1014200005F1040500F0A2800F68012202FA09FE0E
:1014300017EA0E0AEED0D1F804C003220CF003071D
:101440007E1E02FA08F4012E6FEA040B12D884689B
:10145000CE6804EA0B0406FA08F634438460446854
:1014600024EA0E06CCF3001404FA09F4264346607D
:1014700004E000BF032F01D103271EE0C6688C687B
:1014800006EA0B0604FA08F42643022FC66014D1BC
:101490006FF00302009E02EA590756F807C005F0F4
:1014A0001C040F220B69A2402CEA0202A3401A433B
:1014B000F251D1F804C00CF00307026807FA08F3F0
:1014C00002EA0B021A431CF4403F0260A2D0002241
:1014D00043F644030292C4F202031A6843F600443E
:1014E00042F480421A601A68C4F2010402F4804295
:1014F0000292029A29F003024FF6084C2244CFF6DA
:10150000FF7C52F80C3005F00C070F26BE40B343A9
:10151000019E06FA07F73B4342F80C30A2684B687D
:1015200042EA0A0743F60C4CDE0258BF22EA0A07D9
:10153000A760C4F2010CDCF800209E0242EA0A0710
:1015400058BF22EA0A07CCF8007062689E0342EA9C
:101550000A0758BF22EA0A0767602268DB0342EAEB
:101560000A0758BF22EA0A07276053E703B0BDE81D
:10157000F08F0000002A08BF090481617047000055
:1015800040F2DC30C2F200000068704740F2000018
:1015900040F2DC31C2F20000C2F2000100780A68B9
:1015A000104408607047000080B543F60040C4F264
:1015B0000200016841F400710160016841F480613A
:1015C0000160016841F480710160032000F086F839
:1015D0000F2000F005F800F027F8002080BD000083
:1015E00070B540F20006C2F2000640F208013278FF
:1015F000C2F200014FF47A730968B3FBF2F20446B9
:10160000B1FBF2F1084600F05FFB0F2C4FF0010533
:1016100008D838B94FF0FF3021460022002500F0ED
:1016200031F87460284670BD82B0002043F6400156
:101630000190C4F202014A6842F480424A604A685A
:1016400002F480420192019A0090086840F08050B4
:101650000860086800F080500090009802B0704761
:10166000002848BF704700F01F01012202FA01F173
:101670001C2202EAD0004EF20012CEF2000281508B
:101680007047000010B54EF60C5CCEF2000CDCF892
:101690000030C3F3022E8EF00704042C28BF04246C
:1016A000BEF103034FF0FF3E0EFA04F438BF0023EF
:1016B000A14399400EFA03F39A43114300F00F023D
:1016C00000F160430901043A03F5644362440028D1
:1016D00048BF02F10C03197010BD00004EF60C510A
:1016E000CEF200010A684FF6FF031A4060F30A22A7
:1016F00042F0806040F0FD7008607047002804BF31
:10170000012070472DE9F04143F60808C4F20208B1
:101710000446D8F8F8030D4600F00700884207D2C7
:1017200088F8F853D8F8F80300F00700A84277D1FA
:101730002068810717D5410705D5D8F8001041F476
:10174000E051C8F80010010705D5D8F8001041F4A1
:101750006041C8F80010D8F80010A26821F0F0012C
:101760001143C8F80010C00740D1D8F8F80300F0C2
:101770000700A84207D988F8F853D8F8F80300F012
:101780000700A8424CD12068410707D5D8F80010BF
:10179000E26821F4E0511143C8F80010000708D5B1
:1017A000D8F80000216920F4604040EAC100C8F880
:1017B000000000F07DF8D8F8001044F28A02C1F36E
:1017C0000311C0F60002515C40F2080220FA01F158
:1017D00040F20400C2F200000068C2F20002116090
:1017E000FFF7FEFE0020BDE8F08100BF6068811EAB
:1017F000022907D258F8081C89015CBF0120BDE806
:10180000F08111E0012807D158F8081C89035CBF5A
:101810000120BDE8F08107E058F8081C890703D4CF
:101820000120BDE8F08100BFD8F8001021F00301CD
:101830000843C8F80000FFF7A3FE064641F28837C8
:10184000D8F80000616800F00C00B0EB810F8CD07C
:10185000FFF796FE801BB842F2D90320BDE8F08165
:1018600040F2080043F60801C2F20000C4F202018F
:101870000068096844F29A02C1F38221C0F60002AE
:10188000515CC8407047000040F2080043F6080170
:10189000C2F20000C4F202010068096844F29A0230
:1018A000C1F34231C0F60002515CC84070470000ED
:1018B00010B543F60404C4F20204606800F00C00A2
:1018C00008280BD0042819BF42F20040C0F2F400EF
:1018D00041F60030C0F2B70010BD00BF206821689B
:1018E0002368490241F60031C0F2B70100F03F021F
:1018F000C3F388105CBF42F20041C0F2F401A1FBC7
:1019000000010023FEF7C6FC21680222C1F3014159
:1019100002EB4101B0FBF1F010BD0000002804BF54
:10192000012070472DE9F04182B00446007843F66B
:101930000006C007C4F202060CD0B06800F00C002C
:10194000042840F081803068800303D56068002857
:1019500000F06881207880071BD5B06810F00C0F6C
:1019600009D0B06800F00C00082840F0878070684B
:10197000400200F183803068800703D5E0680128C9
:1019800040F050813068216920F0F80040EAC10041
:1019900030602078000713D4207840072AD4A56946
:1019A000002D00F03A81B06800F00C00082840F0EB
:1019B000A580012D40F00E81012002B0BDE8F0812C
:1019C0006069002800F082800020C4F247200121D5
:1019D000C0F8801EFFF7D4FD054600BF706F80077A
:1019E000DAD4FFF7CDFD401B0228F7D9032002B05F
:1019F000BDE8F081306C5FEAC0080AD40020019095
:101A0000306C40F080503064306C00F080500190B9
:101A1000019847F20007C4F200073868C00547D4B0
:101A2000386840F480703860FFF7AAFD054600BFB3
:101A30003868C0053CD4FFF7A3FD401B0228F7D946
:101A4000032002B0BDE8F081B06800F00C00082867
:101A500003D1706840023FF576AF61683068B1F538
:101A6000803F07D0B1F5A02F40F09A8040F480204D
:101A70003060306840F4803030609AE0E0680028E0
:101A800040F20000C4F247205CD001210160FFF762
:101A900077FD0546306880073FF574AFFFF770FDAE
:101AA000401B0228F6D9032002B0BDE8F08100BF38
:101AB000A168306F012905D0052955D140F00400F7
:101AC0003067306F40F00100306756E00020C4F20C
:101AD00047200021C0F8801EFFF752FD054600BFD9
:101AE000706F80077FF558AFFFF74AFD401B022853
:101AF000F6D9032002B0BDE8F08100BF0027C4F290
:101B0000472700203866FFF73BFD022D05460DD123
:101B10003068800140F18A80FFF732FD401B0228C7
:101B20004FF00300F4D902B0BDE8F08130688001C5
:101B300073D5FFF725FD401B02284FF00300F5D9B0
:101B4000F1E700BF00210160FFF71AFD054600BF65
:101B5000306880077FF51DAFFFF712FD401B02289C
:101B60004FF00300F4D9DEE720F001003067306F5A
:101B7000002920F0040030677AD0FFF701FD054608
:101B800041F28837306F800700F18480FFF7F8FC5E
:101B9000401BB842F6D9032002B0BDE8F08100BF77
:101BA00020F4803030603068002920F480203060DC
:101BB0007AD0FFF7E5FC0546306880033FF5CAAEF2
:101BC000FFF7DEFC401B6428F6D9032002B0BDE815
:101BD000F08100BF7068E16900F480028A4221D17F
:101BE000216A00F03F028A421CD147F6C071626A46
:101BF0000140B1EB821F15D1A16A4FF6FF73C903F3
:101C0000994300F44032A1F580318A420AD1E16A59
:101C100000F07060B0EB016F04D1002002B0BDE8AD
:101C2000F08100BF012002B0BDE8F08104F11C0585
:101C30002FCD084340EA8210D9034FF6FF7291433B
:101C4000A1F5803140EA05600843706001203866E4
:101C5000FFF796FC044600BF30688001DDD4FFF733
:101C60008FFC001B02284FF00300F5D95BE700BF93
:101C7000FFF786FC054641F2883700BF306F8007CA
:101C800008D5FFF77DFC401BB8424FF00300F5D9A3
:101C900049E700BFB8F1000F3FF581AE306C20F08E
:101CA000805030647BE600BFFFF76AFC054600BF4A
:101CB000306880037FF54EAEFFF762FC401B64285E
:101CC0004FF00300F4D92EE7411E0020B0EB116F56
:101CD0001CBF012070474EF21002CEF2000251608C
:101CE0004EF62351CEF20001F0230B7007219060D5
:101CF00011607047704700007047000090F83C206A
:101D0000012A4FF0020254D010B580F83D2002683D
:101D1000D2F804E0D2F808C00C682EF07003234318
:101D200041F2FF74C4F20004A24253600EDC40F2A0
:101D3000FF73C4F200039A4216DCB2F1804F2BD03D
:101D400040F20043C4F2000324E000BF40F2FF333E
:101D5000C4F201039A4213DC41F60003C4F200030B
:101D60009A4219D0002313E040F60003C4F20003A6
:101D70009A4211D040F60043C4F200030AE000BFCB
:101D800044F20003C4F201039A4205D040F200433A
:101D9000C4F201039A4204D149682CF0800319432C
:101DA00091600121002280F83D1080F83C20BDE8C0
:101DB0001040104670470000002804BF0120704703
:101DC00010B5044690F83D0028B9002084F83C0086
:101DD000204600F01FF8022084F83D002068211DF5
:101DE00001F060F8012084F8460084F83E0084F891
:101DF0003F0084F8400084F8410084F8420084F8F1
:101E0000430084F8440084F8450084F83D00002035
:101E100010BD00000068B0F1804F18BF704780B55A
:101E200082B00020019043F64000C4F20200016835
:101E3000002241F0010101600068002100F0010072
:101E4000019001981C20FFF71DFC1C2002B0BDE88A
:101E50008040FFF705BC000090F83D1001291CBF31
:101E600001207047022180F83D10006841F2FF72A6
:101E7000C168C4F20002904241F00101C1600DDC72
:101E800040F2FF71C4F20001884215DCB0F1804FCE
:101E90002AD040F20041C4F2000123E040F2FF31B9
:101EA000C4F20101884213DC41F60001C4F20001D2
:101EB000884219D0002113E040F60001C4F200016D
:101EC000884211D040F60041C4F200010AE000BF90
:101ED00044F20001C4F20101884205D040F2004101
:101EE000C4F20101884206D1816801F00701062988
:101EF00004BF00207047016841F00101016000202B
:101F00007047000090F83C20012A4FF002026CD08C
:101F100080B580F83D20D0F800C04FF67772DCF82D
:101F2000083023EA0202CCF808200B684F2B29DC8A
:101F30001F2B45DD202B46D0302B44D0402B40F0CA
:101F4000AF80D1F804E0C968DCF82030DCF820204C
:101F500022F00102CCF82020DCF8182022F0F00258
:101F600042EA011123F00A0242EA0E02CCF81810EC
:101F7000CCF82020DCF8081041F0470121F03001B6
:101F800028E000BF6F2B33DDB3F5005F74D0B3F5ED
:101F9000805F21D0702B40F08380D1E901E3C968D4
:101FA000DCF8082043EA0E0322F47F4243EA0121D1
:101FB0001143CCF80810DCF8081041F0770109E073
:101FC0000BB1102B6CD1DCF8081021F07001194313
:101FD00041F00701CCF808100022012180F83D10E3
:101FE000002180F83C10BDE880401046704700BFDB
:101FF000502B21D0602B53D1D1F804E0C968DCF814
:102000002030DCF8202022F01002CCF82020DCF870
:10201000182022F4704242EA013123F0A00242EA81
:102020000E12CCF81810CCF82020DCF8081041F083
:10203000670121F01001CDE7D1F804E0C968DCF8B0
:102040002030DCF8202022F00102CCF82020DCF83F
:10205000182022F0F00242EA011123F00A0242EABB
:102060000E02CCF81810CCF82020DCF8081041F053
:10207000570121F02001ADE7D1E901E3C968DCF89F
:10208000082043EA0E0322F47F4243EA0121114370
:10209000CCF80810DCF8081041F480419AE700BF42
:1020A00001229AE77047000070B504460068C568D1
:1020B0000669B10716D515F0020113D06FF00201C1
:1020C0000161012121778069800703D02046FFF755
:1020D000E9FF05E0204600F08FF8204600F08EF87A
:1020E00000202077700719D515F0040016D020685D
:1020F0006FF00401016102212177806910F4407FB3
:1021000004D02046FFF7CEFF06E000BF204600F0D7
:1021100073F8204600F072F800202077300717D5BA
:1021200015F0080014D020686FF008010161042147
:102130002177C069800703D02046FFF7B3FF05E091
:10214000204600F059F8204600F058F8002020778B
:10215000F00619D515F0100016D020686FF01001A8
:10216000016108212177C06910F4407F04D0204626
:10217000FFF798FF06E000BF204600F03DF820463C
:1021800000F03CF800202077F00718BF15F00100A0
:1021900002D1300609D412E020686FF0010101611C
:1021A000204600F02DF8300609D515F0800006D045
:1021B00020686FF0800101612046FFF79BFD7006EB
:1021C00009D515F0400006D020686FF0400101618C
:1021D000204600F037F8B00658BF70BD15F020005B
:1021E00008D021686FF0200220460A61BDE87040E7
:1021F000FFF782BD70BD000070470000704700000F
:1022000040F24C31C2F20001884201D0704700BF59
:1022100040F2E400C2F20000017801394AB2002A1B
:102220000170C8BF704740F27411C2F200014FF054
:1022300004220A604A6040F202220A8100210170F1
:10224000704700007047000090F84230202B0BD1FF
:1022500094460A4600294FF0010118BFBCF1000F57
:1022600006D10846704700BF02210846704700BFEC
:10227000B0B582B00121016300252221456382624D
:10228000A0F82CC0456480F84210C36B43F2711E65
:1022900043F2D124C0F6000EC0F600040168C3E981
:1022A0000FE442F6F574C0F60004C3E913450431A7
:1022B000044618466346FFF727F801952168204633
:1022C0000A680192496801910199216931B300BFFF
:1022D000016851E8031F026841F4807142E803136A
:1022E000E3B1016851E8031F026841F4807142E8DC
:1022F00003139BB1016851E8031F026841F4807128
:1023000042E8031353B1016851E8031F026841F426
:10231000807142E80313002BDAD100BF016851E855
:10232000051F026841F0010142E80513BBB30168D3
:1023300051E8051F026841F0010142E8051373B33B
:10234000016851E8051F026841F0010142E80513E8
:102350002BB3016851E8051F026841F0010142E812
:102360000513002BDAD11AE0016851E8051F026855
:1023700041F0400142E80513DBB1016851E8051F57
:10238000026841F0400142E8051393B1016851E849
:10239000051F026841F0400142E805134BB1016896
:1023A00051E8051F026841F0400142E80513002B87
:1023B000DAD1016B012933D10021009101680A684B
:1023C0000092496800910099016851E8031F026872
:1023D00041F0100142E80313DBB1016851E8031F2B
:1023E000026841F0100142E8031393B1016851E81B
:1023F000031F026841F0100142E803134BB101686A
:1024000051E8031F026841F0100142E80313002B5A
:10241000DAD1002102B0BDE8B0400846704700BFE5
:10242000012102B0BDE8B0400846704710B540F247
:10243000E40040F27414C2F200000A21C2F2000467
:102440000170207A617AE07240F28010C2F20000DE
:10245000A17201784278837862F30A2190F803C070
:102460002180D10863F34A1161804FEA8C0102791F
:1024700041EA931162F38A214079A180510860F307
:10248000CA11E1808109C0F3011002282172607233
:1024900014D0032818D0207A01281BD0032820D17B
:1024A00040F2521040F2F411C2F20000C0F2F411F6
:1024B00001604FF4FA71818000200DE0012001F0ED
:1024C0005DF9607A0328E6D1012001F075F9207AE0
:1024D0000128E3D140F6B83040F25011C2F20001B9
:1024E000088040F29434C2F2000440F28011C2F23B
:1024F000000120461222FFF7A7FEE06B006801688A
:1025000021F00801016010BD70470000B0B582B035
:1025100001680A68CC684B6902F02F05202D04F091
:10252000200505D125B102B0BDE8B04000F0DCBE09
:102530005FEA027C1EBF03F0010E04F4907313EBFC
:102540000E0341D1036BD50618D5012B16D114F01B
:10255000100313D0002201920A6801924A68019286
:10256000019A496949064BD4818DC28DC38D002BD8
:1025700018BF914240F0F48102B0B0BD13062DD5D2
:1025800014F080032AD090F84120212AF4D18268E7
:10259000B2F5805F03D10269002A00F06782026A07
:1025A000531C036212784A60C28C013A1304C2843D
:1025B000E2D1C86820F08000C860C86840F04000E0
:1025C000C86002B0B0BD00BFD30718BF14F4807359
:1025D00040F0D080530700F1D380D8E05206CBD52D
:1025E00014F04002C8D0CA6822F04002CA6020211C
:1025F00080F8411002B0BDE8B04000F0D5BA00BF8D
:10260000C16B0A68526893B2002BB5D0858DAB427E
:10261000B2D2C285C969B1F5807F00F0A08001689F
:1026200051E8031F026821F4807142E80313DBB113
:10263000016851E8031F026821F4807142E8031326
:1026400093B1016851E8031F026821F4807142E8E8
:1026500003134BB1016851E8031F026821F4807134
:1026600042E80313002BDAD1016851E8051F026824
:1026700021F0010142E80513BBB3016851E8051FD1
:10268000026821F0010142E8051373B3016851E8C3
:10269000051F026821F0010142E805132BB3016810
:1026A00051E8051F026821F0010142E80513002BE3
:1026B000DAD11AE0016851E8051F026821F04001F3
:1026C00042E80513DBB1016851E8051F026821F0FB
:1026D000400142E8051393B1016851E8051F026803
:1026E00021F0400142E805134BB1016851E8051F94
:1026F000026821F0400142E80513002BDAD12021C5
:1027000080F8421000210163016851E8031F02684C
:1027100021F0100142E80313DBB1016851E8031F07
:10272000026821F0100142E8031393B1016851E8F7
:10273000031F026821F0100142E803134BB1016846
:1027400051E8031F026821F0100142E80313002B37
:10275000DAD1C16B04460846FEF7E8FB20460221A9
:102760004163818DC28D891A89B202B0BDE8B04043
:10277000FFF75CBE436C43F001034364530706D587
:10278000BEF1000F03D0436C43F002034364930790
:1027900006D5BEF1000F03D0436C43F0040343643D
:1027A000BCF1000F06D55EEA050303D0436C43F08D
:1027B00008034364436C002B3FF4DEAE920605D55C
:1027C00025B1044600F090FD216820464969426C1D
:1027D00001F0400102F00802891800F0B98000BF42
:1027E000016851E8031F026821F4907142E8031365
:1027F000BBB3016851E8031F026821F4907142E8FD
:10280000031373B3016851E8031F026821F4907148
:1028100042E803132BB3016851E8031F026821F457
:10282000907142E80313002BDAD11AE0016851E8F5
:10283000051F026821F0010142E80513DBB10168C0
:1028400051E8051F026821F0010142E8051393B128
:10285000016851E8051F026821F0010142E80513F3
:102860004BB1016851E8051F026821F0010142E8FF
:102870000513002BDAD1016B012924D1016851E83D
:10288000031F026821F0100142E80313DBB1016865
:1028900051E8031F026821F0100142E8031393B1CD
:1028A000016851E8031F026821F0100142E8031398
:1028B0004BB1016851E8031F026821F0100142E8A2
:1028C0000313002BDAD1202180F84210002101638C
:1028D00001684969490640F1C380016851E8051F54
:1028E000026821F0400142E80513DBB1016851E8BC
:1028F000051F026821F0400142E8051393B1016809
:1029000051E8051F026821F0400142E805134BB170
:10291000016851E8051F026821F0400142E80513F3
:10292000002BDAD1C16B002900F09A8042F6E972DF
:10293000C0F60002044608460A65FEF73FFB002881
:102940003FF41AAEE06B016D02B0BDE8B04008473D
:102950000446FFF7D9FD0020606402B0B0BD00BF9F
:10296000891A00BF026852E8032F036822F49072AC
:1029700043E80325BDB3026852E8032F036822F43D
:10298000907243E8032575B3026852E8032F036889
:1029900022F4907243E803252DB3026852E8032F16
:1029A000036822F4907243E80325002DDAD11AE07F
:1029B000026852E8052F036822F0010243E805256A
:1029C000DDB1026852E8052F036822F0010243E8F6
:1029D000052595B1026852E8052F036822F001022F
:1029E00043E805254DB1026852E8052F036822F03F
:1029F000010243E80525002DDAD1202280F842208B
:102A000000220263026852E8032F036822F01002DA
:102A100043E80325DDB1026852E8032F036822F082
:102A2000100243E8032595B1026852E8032F0368BA
:102A300022F0100243E803254DB1026852E8032F4B
:102A4000036822F0100243E80325002DDAD10222A8
:102A500089B2426302B0BDE8B040FFF7E7BC00BFF7
:102A600002B0BDE8B040FFF74FBD00BF026A32F8C8
:102A7000023B6FF35F234B60026295E5002804BFC1
:102A80000120704710B5044690F8410028B9002095
:102A900084F84000204600F021F8242084F841000A
:102AA0002068C16821F40051C160204600F09CFC00
:102AB0002068016921F490410161416921F02A01F6
:102AC0004161C16841F40051C1600020202160646F
:102AD00084F8411084F84210606310BD70B586B070
:102AE000044644F600002168C4F20000002681423A
:102AF0000596CDE903660296019601D006B070BD39
:102B000043F630010096C4F202010A6900F5E03094
:102B100042F480220A610A6902F480220092009A3B
:102B200000960A6842F004020A60096801F0040194
:102B3000009100994FF4406101910221CDE9021604
:102B4000032104910721059101A9FEF743FC40F2FE
:102B5000EC2546F22800C2F20005C4F202004FF054
:102B600000614FF4806285E843002846C5E90362AE
:102B7000C5E90566C5E907666E62FEF713FB002826
:102B800018BFFDF73DFD272000210022E563AC635F
:102B9000FEF778FD2720FEF763FD06B070BD00004C
:102BA000704700007047000070470000FEE700001B
:102BB00080B540F29C2046F20041C2F20000C4F20F
:102BC000000100234FF4802C062280E80E00C0E9AB
:102BD000033CC0E905338383FDF7BAFF002808BF33
:102BE00080BDBDE88040FDF70BBD000080B540F220
:102BF000C42046F60001C2F20000C4F20001002326
:102C00004FF4802C062280E80E00C0E9033CC0E9A6
:102C100005338383FDF79CFF002808BF80BDBDE816
:102C20008040FDF7EDBC000080B582B0002001902F
:102C300043F63000C4F202000168002241F40011A2
:102C400001600068002100F40010019001980C2040
:102C5000FEF718FD0C2002B0BDE88040FEF700BD75
:102C600070B586B0002543F630000595CDE90355D3
:102C7000CDE901550095C4F20200016841F6004417
:102C800041F0020101600168C4F2020401F0020196
:102C90000091009900950168002241F00101016056
:102CA00001684FF4805601F00101009100990095F0
:102CB000016841F008010160016801F0080100911C
:102CC00000990095016841F004010160016801F07C
:102CD0000401009100990095016841F080010160B4
:102CE00000684FF4805100F080000090009820466A
:102CF000FEF740FC0120CDE9020501A9204601961E
:102D00000495FEF767FB06B070BD000080B586B085
:102D100040F24C300021C2F200004FF0630C0591EC
:102D2000CDE90311CDE900114FF0804244F29F1329
:102D3000C0E9021C01618021C0E900238161FFF725
:102D40003BF8002818BFFDF75BFC4FF48050029061
:102D500040F24C30C2F2000002A9FFF7D3F800287D
:102D600018BFFDF74DFC40F24C30C2F2000069463E
:102D7000FEF7C4FF002818BFFDF742FC06B080BD77
:102D800010B540F2943044F6000C48F2A062C2F252
:102D90000000C4F2000CC0F201024FF48053002185
:102DA0004FF4806E0C24C0E900C2C0E90231C0E9D2
:102DB00004E4C0E90611FFF761FE002808BF10BD5A
:102DC000BDE81040FDF71CBCFEE70000FEE7000078
:102DD0007047000070470000FEF7D8BB70B592B096
:102DE00006AC20463021FDF7CDFA002543F6400021
:102DF0000595CDE90355CDE901550095C4F20200D2
:102E00000168022641F080510160006800F08050A6
:102E10000090009847F200000095C4F2000001689D
:102E200041F480410160006800F480400090009807
:102E30000120099010200A9008200E90A820CDE9CA
:102E40000F060420119020460696CDE90C65FEF78A
:102E500065FD18B172B600BFFEE700BF0F20CDE9D7
:102E600001064FF4A05004904FF48050059001A843
:102E700005210395FEF742FC10B172B6FEE700BFD4
:102E800012B070BD4EF68850CEF20000016841F4D9
:102E9000700101607047000040F24C30C2F2000047
:102EA000FFF702B910B540F6FF3E0368C4F2000E0A
:102EB00040F2004C7045C4F2010C25DCB0F1804FAB
:102EC0002FD040F20042C4F20002904229D040F6D6
:102ED0000002C4F20002904223D041F6FF72C4F215
:102EE0000002904227DC70453ADCB0F1804F5BD0A5
:102EF00040F20042C4F20002904255D040F6000277
:102F0000C4F200024EE000BF40F60042C4F20002EC
:102F1000904206D0604504D00022C4F201029042E3
:102F2000DBD14A6823F07003134341F6FF72C4F209
:102F300000029042D7DD43F6FF72C4F201029042D4
:102F400020DC42F20002C4F2000290422CD00022A7
:102F5000C4F20102904227D0604525D028E000BF8E
:102F600040F60042C4F2000290421DD041F6000239
:102F7000C4F20002904217D041F60042C4F20002AF
:102F800010E000BF44F20002C4F2010290420BD0F4
:102F900044F60002C4F20102904205D044F200421D
:102FA000C4F20102904203D1CA6823F44073134370
:102FB00023F080024B69D1F800E08C681A4302606C
:102FC000C46240F48062C0F828E0624504BF096929
:102FD0000163012141610169C90708BF10BD016991
:102FE00021F00101016110BD806B0021C185C18408
:102FF000FFF78ABA806B01684A6990F84130212B4B
:103000002DD112F080022AD00021C184016851E83C
:10301000031F026821F0C00142E80313DBB101681D
:1030200051E8031F026821F0C00142E8031393B185
:10303000016851E8031F026821F0C00142E8031350
:103040004BB1016851E8031F026821F0C00142E85A
:103050000313002BDAD1202180F84110016849695F
:1030600090F84220222A40F07D8011F0400179D072
:103070000021C185016851E8031F026821F49071A5
:1030800042E80313BBB3016851E8031F026821F44F
:10309000907142E8031373B3016851E8031F02689B
:1030A00021F4907142E803132BB3016851E8031F28
:1030B000026821F4907142E80313002BDAD11AE080
:1030C000016851E8051F026821F0010142E805137B
:1030D000DBB1016851E8051F026821F0010142E8F7
:1030E000051393B1016851E8051F026821F0010141
:1030F00042E805134BB1016851E8051F026821F051
:10310000010142E80513002BDAD1016B012924D11A
:10311000016851E8031F026821F0100142E803131F
:10312000DBB1016851E8031F026821F0100142E899
:10313000031393B1016851E8031F026821F01001E5
:1031400042E803134BB1016851E8031F026821F004
:10315000100142E80313002BDAD1202180F842103D
:1031600000210163416C41F010014164FFF7CCB9CB
:103170000168806B0968C90500F19F800021C18545
:10318000016851E8031F026821F4807142E80313CB
:10319000E3B1016851E8031F026821F4807142E83D
:1031A00003139BB1016851E8031F026821F4807189
:1031B00042E8031353B1016851E8031F026821F488
:1031C000807142E80313002BDAD100BF016851E897
:1031D000051F026821F0010142E80513BBB3016835
:1031E00051E8051F026821F0010142E8051373B39D
:1031F000016851E8051F026821F0010142E805134A
:103200002BB3016851E8051F026821F0010142E873
:103210000513002BDAD11AE0016851E8051F026896
:1032200021F0400142E80513DBB1016851E8051FB8
:10323000026821F0400142E8051393B1016851E8AA
:10324000051F026821F0400142E805134BB10168F7
:1032500051E8051F026821F0400142E80513002BE8
:10326000DAD1202180F84210016B012925D100BF5D
:10327000016851E8031F026821F0100142E80313BE
:10328000DBB1016851E8031F026821F0100142E838
:10329000031393B1016851E8031F026821F0100184
:1032A00042E803134BB1016851E8031F026821F0A3
:1032B000100142E80313002BDAD100214163016BB6
:1032C000012918BFFFF76CBC818DFFF7AFB8000074
:1032D000806B01214163016B012918BFFFF762BCBC
:1032E000818D4908FFF7A2B881B090F842102229D9
:1032F00021D183680246B3F5805F09D152F8281FB7
:1033000052F8183C002B63D003685B680AE000BFEA
:1033100052F8281F13B90369002BF5D003685B68C6
:1033200003F07F030B70116801311160C18D013909
:103330000A04C18502D001B0704700BF0168CA68A5
:1033400022F02002CA60CA6822F48072CA604A6908
:1033500022F001024A61202180F8421000214163DD
:10336000026B012A3CD10163016851E8031F026826
:1033700021F0100142E80313DBB1016851E8031F9B
:10338000026821F0100142E8031393B1016851E88B
:10339000031F026821F0100142E803134BB10168DA
:1033A00051E8031F026821F0100142E80313002BCB
:1033B000DAD101680A68D20606D5002200920A68AE
:1033C0000092496800910099818D01B0FFF72EB8F5
:1033D000026852686FF35F2221F8022B8162A5E731
:1033E00001B0FFF7DDBB0000B0B50446006804F192
:1033F00008030ECB0569194325F440552A430261A1
:103400006269E3691143C268194349F20C639A4344
:103410001143C1604169A26921F4407141F2004346
:10342000114340F48062C4F201039A42416103D126
:10343000FEF72AFA02E000BFFEF712FAE1694FF642
:103440009C7563681922C0F6FF75B1F5004FA0FBAB
:1034500002011FD15A00DB0FFCF71CFF48F21F517D
:10346000C5F2EB11A0FB01235A0905F1805302FBC1
:103470000300322303EBC000A0FB01014FF4F870FE
:1034800000EA111000EB0210C1F342110844216858
:103490008860B0BD9A009B0FFCF7FCFE48F21F51FC
:1034A000C5F2EB11A0FB01235A0902FB05003223F0
:1034B00003EB0010A0FB0101F02000EA511000EB2B
:1034C0000210C1F34311084421688860B0BD0000B8
:1034D00040F29430C2F20000FFF718B8FEE7000097
:1034E00010B58AB040F2C42401200021C2F20004C9
:1034F0000890CDE90610CDE90011CDE90211CDE922
:103500000400099069462046FDF7E8F82046FDF7DB
:10351000D1FC20461021FDF777F80AB010BD00005D
:1035200010B58AB040F29C2401200021C2F20004B0
:103530000890CDE906100991CDE90011CDE90211FD
:10354000CDE9041169462046FDF7C8F82046FDF78D
:10355000B1FC20460221FDF757F80AB010BD00006B
:1035600070B582B0B2EE093A9FED2D4A30EE030AF3
:1035700020EE040ABDEEC00A10EE10CAB3EE0E0A29
:103580009FED283A30EE800A20EE030A9FED263A9E
:10359000BDEEC00A10EE10EA21EE030A9FED231AD9
:1035A00040F23422BDEEC00AC2F2000210EE103A20
:1035B00021EE810A1146BDEEC00A41F8080F002035
:1035C00010EE104AB2EE040A9FED191AC2E9040087
:1035D0004FEA1C2032EE000A10704FEA1E1020EE57
:1035E000010A90704FEA0E10BDEEC00A40EA1320A7
:1035F00010EE105AD07020095071280A40EA0410C9
:10360000907140F2C42008261371C2F2000001AB91
:10361000966182F801C0D571FDF70EF802B070BD59
:1036200066D62345008088423D0A034100C04C44D1
:1036300000C04C43000000002DE9F0412DED028B4D
:103640004FF60045CFF6FF7540F22C2305EB1147EE
:10365000C2F20003A1F580615980C2F3072140F254
:10366000E8080446000C0129C2F200081F8009D0B6
:10367000032927D1A4F58061A0F58060998000F02E
:103680007DFA0CE0A0F5806000EE100AB8EEC00AEA
:10369000A4F5806110EE100A998000F073FC9FED94
:1036A000300B53EC102B00F081FA9FED2F0B53ECF5
:1036B000102B00F0BBF900F087F908EE100AC8F8EB
:1036C000040001E098ED018A15FA84F000F056FA42
:1036D0000446D8F800000D4600F054FC9FED240B82
:1036E00006460F4653EC102B2046294600F05EFAA2
:1036F00032463B4600F09AF900F066F99FED1E0A4B
:1037000001EE100AB0EE082AB4EE401AF1EE10FAFB
:10371000C8BFB0EE421AB0EE002AB4EE421AF1EE83
:1037200010FAB8BFB0EE401ABFEE000AB4EE408AFD
:10373000F1EE10FA88ED001A0CDAB8EE000AB4EED9
:10374000408AF1EE10FAD8BF88ED010ABDEC028B79
:10375000BDE8F08188ED010ABDEC028BBDE8F08187
:10376000FCA9F1D24D62503F000000000000F8BFFC
:103770007B14AE47E17A94BF00F0FF4580B582B07C
:1037800040F23422C2F20002114641F8080F002034
:10379000C2E904004FF0FF301060C2F80300FD20C2
:1037A0000823D07140F2C4209361C2F2000001AB43
:1037B000FCF742FF02B080BD80B582B040F23422F7
:1037C000C2F20002114641F8080F0020C2E90400CD
:1037D0004FF0FF301060C2F80300FC200823D071C6
:1037E00040F2C4209361C2F2000001ABFCF724FF59
:1037F00002B080BDFDF7D8FEFFF7F0FAFFF730FA10
:10380000FFF712FAFFF7F2F9FFF7BAFAFFF7D0F96C
:10381000FFF77CFA40F24C30C2F20000FEF71CFBCE
:1038200040F29C20C2F20000FDF744FBFFF778FE57
:1038300040F2C420C2F20000FDF73CFBFFF750FE4F
:1038400040F2501440F29435C2F20004C2F2000576
:1038500004F1300128461222FEF7F6FCE86B40F234
:10386000E80900689FED249A01689FED24AA21F0E1
:103870000801C2F200094FF6FF7AB2EE048A04F1A1
:10388000020804F14205016004F1240207CAFFF7AF
:10389000D3FE99ED000AA38A27EA0A07BDEEC00A03
:1038A000D4E903121F4410EE100A3B46FCF7DCFD7E
:1038B0000120FDF77BFD99ED010A0120F0EE4A0A97
:1038C000B0EE481AF0EE491AB0EE4A2AFFF748FE69
:1038D00040462946FCF70AFE238C6FF30F06B4F925
:1038E0000000D4E906121E443346FCF757FE0220BE
:1038F000FDF75CFDC8E700BF9A99993E0000000003
:1039000080B5B0F910E00346A0F812E0501A01B2F9
:1039100000EE101A93ED001AB8EEC00A21EE001A5C
:103920001882BDEEC11AB3F91800B8EEC12A11EE23
:1039300010CA93ED011A83ED052A02EE100AB8EEC3
:10394000C22A21EE000A30EE020ABDEEC00AB3F927
:103950000C2010EE100A8242188302DB5242904281
:1039600001DA10461A83A1EB0E0193ED020A01EE73
:10397000101AB8EEC11A20EE010ABDEEC00A10EE10
:10398000101AACEB01010144B8EEC01A08B283ED85
:10399000071A198480BD00004FF0FF3202FA01F1CE
:1039A000C94389B201EE100A02EE101AB8EE411AAC
:1039B000B8EE422A81EE021A30EEC02A21EE021A37
:1039C00031EE000A7047000021F0004201F0004390
:1039D000A2F16052B2F5801F28BFD2F17F6C0BD9E3
:1039E0005FEA001C43EAC20242EB507018BF704706
:1039F00028BF20F001007047B2F5801FBCBF1846F9
:103A000070474FEA410C1CF5001F02D2084600F037
:103A100037BB70B500F074F900000089FFF7F6BFFE
:103A20004FF00040A0F580007047000010B591EA0B
:103A3000030F48BF83F0004300F1BE81841A71EB8D
:103A4000030C05D2121943EB0C03001B61EB0C01B4
:103A50004FEA1154A4EB135CDFF81CE11EEA430F9C
:103A600018BF9EEA445F00F0748021EA045123EA03
:103A70000E0343F48013DCF1200E32D322FA0CFE45
:103A800010EB0E0023FA0CFE41EB0E01CCF1200EE0
:103A900003FA0EFE10EB0E00CCF1200E51F10001E6
:103AA000B1F5801F32D201EB045112FA0EF2BDE8DB
:103AB000104058BF7047401C38BF5FEA420218BF31
:103AC0007047002814BF20F0010041F100014FEAC7
:103AD000410313F5001F38BF7047A1F1C04100F04A
:103AE0005DB9012A43EB0302ACF1200CDCF11F0E9F
:103AF00032BF4FF0000E23FA0CF310EB030041EB42
:103B00000451B4EB115FD0D0A1EB045101F5801149
:103B1000490801EB04515FEA30000ED350F1000078
:103B200038BF12FA0EFE08D1BDE81040C9E7401CAC
:103B300038BF5FEA4202CAD1C3E7BDE810404FEA8E
:103B4000410313F5001F38BF7047A1F1C04100F0D9
:103B500025B99EEA445F08D011EA5E0FBDE8104027
:103B600004BF01F0004100207047BDE8104070B56F
:103B700000F0C6F864FBBE3E0000E0FF10F000421B
:103B800048BF4042B0FA80F310FA03F10AD0C3F103
:103B90001D0303F5806302EB03524FEA415002EB31
:103BA000D12170474FF000007047000070B5DFF87A
:103BB00048C11CEA111E1EBF1CEA13159EEA0C0F19
:103BC00095EA0C0F00F06F8081EA03044EEAD47E80
:103BD000AE4421EA4C1123EA4C1341F4801143F422
:103BE0008013AEF17F7EA1FB024CA0FB036536196A
:103BF00055EB0C05A1FB034C4CF10003A0FB021C90
:103C000016EB0C06654153F10003094218BF46F05C
:103C1000010613F4007F0BD14FEA03314FEA053060
:103C200041EA155140EA165034036FF003020AE0EE
:103C30004FEAC3214FEAC52041EA555140EA5650A8
:103C4000F4026FF0020202EB2E4201EB025585EA0C
:103C5000CE710AD05FEA440C18BF24F0004450F142
:103C6000000041F1000120EAD47040F2FE7C624580
:103C700000D270BDA84214BF4FF080444FF04044C2
:103C8000002E08BF0024BEF1806FA8BFA1F1C04183
:103C9000BDE8704080F2828001F1C04101F0004136
:103CA0004FF0000070470CEA13159EEA0C0F18BF86
:103CB00095EA0C0F06D081EA030E4FF000000EF0DB
:103CC000004170BD00F01CF88900013E00F007B80B
:103CD00000F009B84FEA430C5FEA5C5C08D081EA67
:103CE000030100F05BB84FEA410C5FEA5C5CF6D17F
:103CF00002494FF0000070470000FF070000F87F06
:103D00000EF1020E2EF0030E5EF8046B364205D45F
:103D1000012A43EB030515F5001F12D8012841EBDA
:103D2000010C1CF5001F0CD80ED14FEAD17C0CEB16
:103D30004C0C0CF1020C15F5001F08BF4CEBD37CAA
:103D400004E04FF0080C01E04FEAD37C0CEB4C058B
:103D500026FA05F606F00706B6F1040C06D20EEBBD
:103D6000860CBDE870404CF0010C6047DFE80CF0B9
:103D7000090B02024FF00041A1F500214FF00000B5
:103D800070BD19461046012851EB010418BFD4F547
:103D9000001484BF002001F0004170BD0808A0F5A8
:103DA00000114FEA3101704710B591EA030F48BF87
:103DB00083F000433FF542AE841A71EB030C07D247
:103DC0008CF0004C121943EB0C03001B61EB0C014F
:103DD0004FEA1154A4EB135CDFF8A4E11EEA430F91
:103DE00018BF9EEA445F00F0B48021EA045123EA40
:103DF0006E035242C3EB6E0338BF5B1EDCF1200E34
:103E000025D322FA0CFE10EB0E0043FA0CFE41EB18
:103E10000E01CCF1200E03FA0EFE10EB0E00CCF1D9
:103E2000200E51F1000129D401EB045112FA0EF2D7
:103E3000BDE8104058BF7047401C1CBFB2F1004F96
:103E4000704700280CBF491C20F00100704712EB9E
:103E5000020E43EB030218BF4FF0010E4EEA42027E
:103E6000ACF1200CDCF11E0E56D943FA0CFE10EB1F
:103E70000E00CCF11E0E51F1FF31D5D50EF1010E21
:103E800012FA0EFE404141EB010101EB445C5FEA96
:103E90005C5C10D901EB045110EBDE7038BFBEF151
:103EA000004FBDE8104018BF704700280CBF491CE8
:103EB00020F00100704734D24FEAD42C24F400647F
:103EC00011F500111BD0B1FA81F20B3AA41AA41E0D
:103ED000D2F12003914030FA03F31943904001EBF3
:103EE000CC7101EB0451002CBDE81040A8BF704715
:103EF00001F1C04101F000414FF000007047B0FAFD
:103F000080F310FA03F102D1BDE810407047E41AC3
:103F1000173C4805C90AE2E701EB0451BDE810402F
:103F2000704749104FEA300001EB0451BDE81040E2
:103F300002E04FF0000170474A0008BF0042F8D08D
:103F4000B2F5001F28BF704701F000414FF000009C
:103F500070479EEA445F07D011EA5E0FBDE810404B
:103F600004BF002100207047BDE8104070B5FFF786
:103F7000C7FE00BF40DFF63E104683F000417047A9
:103F80000000E0FF43004FEAD30C4FEA3C0C4340F3
:103F90001FBF40070CF1605113F0FE4F70471CF03B
:103FA000006F03D10CF00041002070470CF000437B
:103FB00043EA507040EACC0010B500F00EF800BFA4
:103FC000000000924FEA0001FFF7E8BE4FF0004109
:103FD000A1F500214FF0000070470EF1020E2EF007
:103FE000030E5EF8044B244204D44FEA4102B2F1BE
:103FF0007F4F11D84FEA4003B3F17F4F0CD80ED159
:104000004FEAD07C0CEB4C0C0CF1020CB2F17F4F60
:1040100008BF4CEBD17C04E04FF0080C01E04FEA04
:10402000D17C0CEB4C0324FA03F404F00704B4F144
:10403000040C06D20EEB840CBDE810404CF0010CD1
:104040006047DFE80CF0070802024FF00040A0F5DF
:10405000800010BD0846420018BFD2F1807288BFB0
:1040600000F0004010BDF1EE100A4FF6FF71C0F2F3
:10407000C03120EA010040F04070E1EE100A7047C4
:10408000FF2141EAD050C005704700000000000049
:1040900000000102030406070809000000000102F5
:1040A000030400061016000610160000D040000899
:1040B00000000020F0000000EC010008C0410008F2
:1040C000F0000020F00800000C02000800000000D2
:1040D00001000000100000000024F4000000204156
:1040E0009A99193E9A99193E00100050000000005C
:1040F00000000000000000000000000000000000C0
:10410000000040400AD7233C00000000001000508F
:10411000000000000000000000000000000000009F
:1041200000000000000040400AD7233C00000000CF
:10413000001000500000000000000000000000001F
:104140000000000000000000000040400AD7233CAF
:1041500000000000001000500000000000000000FF
:1041600000000000000000000000000000004040CF
:104170000AD7233C0000000000100050000000009F
:10418000000000000000000000000000000000002F
:10419000000020410AD7233C0000000000300050FE
:1041A000000000000000000000000000000000000F
:1041B000000000000A00000000E87945000000004F
:040000050800018965
:00000001FF
